:020000040000FA
:060000000219FD02072AAF
:03000B0002029658
:030013000207469B
:03001B0002058E4D
:03002B0002032E9F
:03005B0002075841
:0300730002035332
:1000C0000406080C10182030406080A0C09000D1B9
:1000D0007301F101FE210E211E212B213B2148211C
:1000E0005B216B217E2188219821A521BB21C8217C
:1000F000DBA6F008A66F08A66D08856DF022A6F0B5
:1001000008A66D08A66E08A66D08856DF022E56E3E
:10011000B5F002E56FF608A66F08856DF022A6F02F
:1001200008A66D08A66F08856DF022A6F008A66ED9
:1001300008A66D08A66D08856DF022A6F008A66ECB
:1001400008A66E08856DF022E56EB5F002E56FF643
:1001500008A66D08A66E08856DF022A6F008A66DAB
:1001600008A66D08A66E08856DF022E56EB5F00252
:10017000E56FF608A66E08A66D08856DF022A6F05C
:1001800008A66F08856EF022E56EB5F002E56FF601
:1001900008A66E08856EF022A6F008A66D08A66E69
:1001A00008856EF022E56EB5F002E56FF608A66DE3
:1001B00008A66D08A66D08856DF022A6F008A66E4B
:1001C00008A66D08856EF022E56EB5F002E56FF6C3
:1001D00008A66D08A66D08856EF022A6F008A66D2B
:1001E00008A66D08A66D08856EF022E529A24733A2
:1001F000F52875290F8075E529A24733A24633F506
:100200002875290D8066E529A24733A24633A24509
:1002100033F52875290B8054E52854F0C24C452944
:10022000C4F5287529098044E528A24813A249137A
:10023000A24A13F5287529078032E528A24813A29F
:100240004913F5287529058023E528A24813F528C8
:100250007529038017204F93204E9C204DA8204CD9
:10026000B7204BC4204AD32049DFE528C465286560
:1002700029F478D0856DF023541E11CDE528235440
:100280001E11CDE528C423541E11CDE52923541E8B
:1002900011CDA6F00822203B0132C0D0C0E075D0BD
:1002A0001018B8CF3320830BD283856D8A08D0E035
:1002B000D0D03275A407D283C23B758E0C7589AA43
:1002C000C2A9C289C28B758A00758C00758200D262
:1002D000A8D2AAD0E0D0D032B283868AD0E0D0D0E3
:1002E00032203B0122C28DC0D0C0E075D01018B8BA
:1002F000CF3320830BD283856D8A08D0E0D0D02203
:1003000075A407D283C23B758E0C7589AAC2A9C297
:1003100089C28B758A00758C00758200D2A8D2AA1A
:10032000D0E0D0D022B283868AD0E0D0D022C0D014
:10033000C0E0C2CF053BE52360021523C3E54E6054
:1003400005754F008008054FE54F7002154FD0E04E
:10035000D0D032C2AF53E67F7592FA7593FFC220B8
:1003600053917FD2AF32C0D075D010E52C7004E528
:100370002B601EE52BA26013F528A261132528F53A
:1003800028E52C03C2E7F52903C2E73529F52980C2
:10039000067528FF7529FF5155C28D758AFF758E28
:1003A000097589A2D23BD2A9D28375A40FD0D032CD
:1003B000758200752800752900752A00780075F08F
:1003C00000E0C0E0C395F0D0F028C3956678004007
:1003D00007D24B95674001F80582E0C0E0C395F075
:1003E000D0F028C3956678004007D24A956740014F
:1003F000F80582E0C0E0C395F0D0F028C395667898
:10040000004007D24995674001F80582E0C0E0C38B
:1004100095F0D0F028C3956678004007D2489567DC
:100420004001F80582E0C0E0C395F0D0F028C39504
:100430006678004007D24795674001F80582E0C022
:10044000E0C395F0D0F028C3956678004007D24607
:1004500095674001F80582E0C0E0C395F0D0F02830
:10046000C3956678004007D24595674001F805823C
:10047000E0C0E0C395F0D0F028C39566780040074F
:10048000D24495674001F80582E0C0E0C395F0D002
:10049000F028C3956678004007D24395674001F87D
:1004A0000582E0C0E0C395F0D0F028C395667800DF
:1004B0004007D24295674001F80582E0C0E0C3954D
:1004C000F0D0F028C3956678004007D24195674088
:1004D00001F80582E0C0E0C395F0D0F028C395662E
:1004E00078004007D24095674001F80582E0C0E0FF
:1004F000C395F0D0F028C3956678004007D2539595
:10050000674001F80582E0C0E0C395F0D0F028C351
:10051000956678004007D25295674001F80582E061
:10052000C0E0C395F0D0F028C3956678004007D2AC
:100530005195674001F80582E0C0E0C395F0D0F026
:1005400028C3956678004007D25095674001F805AA
:1005500082E528C465286529303701F4652A540FDF
:1005600022900000D2A8D2AA0522E522700215220C
:100570000522E52270021522C3E52294324005755A
:100580004E00A18775230AD0F0D0E0D0D032C2AFA0
:10059000C2A8C28EC0D0C0E0C0F075D008C2CAA840
:1005A000CCA9CDD2CAD2AF758A00C3E89569F8E963
:1005B000956AF9E970ABE8956B40A6956C50A2E599
:1005C00082B4109D71B07099A928E528C39460FA8F
:1005D000E5299400FB50177B007A00E96010C313F3
:1005E000500CB54C04054D8005F54C754D00303769
:1005F000027166303A27C3EA94D0F8EB9407F940C9
:100600000BE8FAE9FB203509D235C111303502C2B9
:1006100035203902B235C3EA33FAEB33FBEB2B3B1F
:100620003BF9C3EB13FBEA13FAEA29FAEB3400FBBC
:1006300030E3047AFF7BFFE5255403601C202A1970
:10064000E55D33F9EB7007C3E99A4002E9FAE53654
:10065000C433332AFAEB3400FBC3EA33C4540FF833
:10066000EB33C454F048F87005EA60027801E522E3
:1006700060021522D230884EE54E6003754F00AC03
:100680005BC3E55B955C4002AC5CC3EC954E5008E7
:10069000EC75F008A4FAABF08A5453540F8BF07940
:1006A00000EAA2F013A2F113A2F213F4F8C3E89443
:1006B00007FAE99400FB50047A007B00C3E89550E8
:1006C000F5F0E99551E5F0501428F556740039F528
:1006D0005754FF701A755600755700801228F5564A
:1006E000740039F55754FF60067556FF755700C3FF
:1006F000E5569407F558E5579400F5595006755896
:1007000000755900885089518A528B53E55A755AA1
:10071000017003755A0075230A203707900000D234
:10072000A8D2AAD0F0D0E0D0D032C0E0E58AF0055F
:100730008285688BD0E032C289C0E0E58AF005820C
:1007400085688BD0E022C2AA85688BD28EC2CA850A
:10075000CC6985CD6AD2CA3253E6EF327901801472
:1007600079038010790A800C791E800879648004EE
:1007700079C880007817E4D5E0FDD8FAD9F6227858
:10078000FF20282879A1E76023E542601F74FF85D8
:1007900042F0848539F030290375F005A4F8C5F0DE
:1007A000600278FFC3E8955D5002A85D885C22C3B3
:1007B000E5419428E5429401E55C5003148001046E
:1007C0006002F55C2275E89022055EC3E55E940840
:1007D000405330EDF4A8BDA9BE755E00E9FA79A0DA
:1007E000E76041EA7006E55F6018800CC3E8955F3A
:1007F000600EE55F5005600A1480070460FA80020D
:10080000E55FF55FC39565401B755BC0C39404400D
:1008100013755B80C39404400B755B40C394044024
:1008200003755B0022E55B2410500274FFF55B2228
:10083000743279A687F0A4C5F0A2F733F55D22756E
:1008400041007542F022C2AFC2CAA8CCA9CDAA3BD2
:1008500030CF010AD2CAD2AFAB3CAC3D883C893D17
:10086000C3E89BF8E99C202808F9302C0221558028
:100870003EAD3E8A3EF9EA9DFA600678FF79FF8038
:1008800013AE3FAF408B3F8C40A83CA93DC3E89ED0
:10089000F8E99FF9C3E54213FBE54113FAE82AF5AD
:1008A00041E93BF54250087541FF7542FF804DAA72
:1008B00041AB42AC41AD427E047F02C3EB940440A5
:1008C0000D1E1FC3EB940840052029021E1FC3ED17
:1008D00013FDEC13FCDEF7C3EA9CFAEB9DFBEF6023
:1008E00009C3E913F9E813F8DFF7EA28FAEB39FB53
:1008F0008A418B4250067BFF8B418B42C3EB9402B3
:100900005002D22C3028047F03801C7892E6FFC36B
:10091000E537948240110FC3E53794A040010FC31F
:10092000EF940640027F057E02E542C4540FF9E5CC
:1009300042C454F0F8E541C4540F28F8C3E89EFAC5
:10094000E99400FB400AC3EA9401EB9400400122C1
:100950007A01E4FB22AA41AB42EBC4FEEAC4540F85
:100960004EFCC3EA9CFAEB9400FBC3E813C313F8F4
:10097000EA28FAEB3400FB8A418B42C3EB94024035
:1009800002C22C7802EBC4FE7B00EAC4540F4EFA7C
:10099000C3EA98FA4005C3940150027A017892E6BE
:1009A000FF22C2AF85412B85422CD2AF30200221DD
:1009B000AC854892854993D22043E68022C3E49ACD
:1009C000F8E49BF9202C6FE8FAE9FBD3E913FDE882
:1009D00013FC88488949C3EF94036037EF20E00C8B
:1009E000E82CF8E93DF9ECFAEDFB8013E828F8E98A
:1009F00039F9C3E82401F8E93400F97AFF7BFFC331
:100A0000EF9403400E8A4A8B4B884489458C468D6F
:100A1000478057884A894B8A448B458C468D47309E
:100A20002812754AF0754BFF7546F07547FF7548FB
:100A3000F07549FF8034E8FAD3E813FC8848C3EF27
:100A400094036020EF20E007E82CF8ECFA4156E828
:100A5000282401F87AFFC3EF940340088A4A8844A7
:100A60008C468006884A8A448C46302002416A754A
:100A70003402D22043E680E52554036034A841A91E
:100A800042C3E913F9E813F8C3E913F9E813F8309E
:100A90002804E92440F9C2AF53E67F759100C3E40E
:100AA00098F594E499F595759104D22043E680D2A7
:100AB000AF22D221754300752000302B03752040F2
:100AC00041D0D221754300752040302B03752000A2
:100AD00078017901202C20E52554036002C2217998
:100AE00014E542C313700104F8C39414400278144F
:100AF000302804781B791B202010E543600C302837
:100B000003D53404D222617751720543E59B5440EA
:100B1000B52002616130280908C3E89940011841F5
:100B2000F720210A08C3E899400241D041F7C221C9
:100B300053E67F759100302C117594007595F8750A
:100B40009104D22043E680020AD0E5427EFFC333FF
:100B50004005C3334001FEC3E49E759400F59561E2
:100B60003FC3E5339401500241D030210241D0D837
:100B700002617541F7C222C2AF53E67F75910085CD
:100B80004A94854B95759104854492854593D2206E
:100B900043E680D2AFE525540360072029020533E0
:100BA000801030220D202B0A20210715811581028B
:100BB000154C2278003021027801E53775F007A442
:100BC000F9E5F028F5F0E9A2F013A2F113A2F2136F
:100BD000F537C394785003753778C3E537953840B7
:100BE00009C291C292C29375D57F30200261EA8515
:100BF0004692854793D22043E68022A224E5509274
:100C0000E08552F975FA00F5FBF5FC8552E985524D
:100C1000EA22A224E55692E08558F975FA00F5FB20
:100C2000F5FC8558E98558EA22E55545541215D258
:100C3000F555D22430E0055355FEC22422D223D5E7
:100C40005A04055AC2239129203829C2AFC295C23D
:100C50009620230D75D80071FB75D53775D8408067
:100C60000B75D800911275D53775D840D294D2AF94
:100C7000759F4522C2AFC294C29520230D75D8003E
:100C800071FB75D56D75D840800B75D800911275C4
:100C9000D56D75D840D296D2AF759F4522D223D557
:100CA0005A04055AC2239129203829C2AFC295C2DD
:100CB0009620230D75D80071FB75D55B75D84080E3
:100CC0000B75D800911275D55B75D840D294D2AF10
:100CD000759F6522C2AFC294C29520230D75D800BE
:100CE00071FB75D55B75D840800B75D80091127576
:100CF000D55B75D840D296D2AF759F7522D223D5D9
:100D00005A04055AC2239129203829C2AFC294C27D
:100D10009520230D75D80071FB75D55B75D8408083
:100D20000B75D800911275D55B75D840D296D2AFAD
:100D3000759F7522C2AFC295C29620230D75D8004B
:100D400071FB75D55B75D840800B75D80091127515
:100D5000D55B75D840D294D2AF759F6522D223D58A
:100D60005A04055AC2239129203829C2AFC294C21D
:100D70009520230D75D80071FB75D56D75D8408011
:100D80000B75D800911275D56D75D840D296D2AF3B
:100D9000759F4522C2AFC295C29620230D75D8001B
:100DA00071FB75D53775D840800B75D800911275D9
:100DB000D53775D840D294D2AF759F4522D223D56E
:100DC0005A04055AC2239129203829C2AFC294C2BD
:100DD0009620230D75D80071FB75D56D75D84080B0
:100DE0000B75D800911275D56D75D840D295D2AFDC
:100DF000759F6522C2AFC294C29620230D75D8009C
:100E000071FB75D53775D840800B75D80091127578
:100E1000D53775D840D295D2AF759F7522D223D5DC
:100E20005A04055AC2239129203829C2AFC294C25C
:100E30009620230D75D80071FB75D53775D8408085
:100E40000B75D800911275D53775D840D295D2AFB1
:100E5000759F7522C2AFC294C29620230D75D8002B
:100E600071FB75D56D75D840800B75D800911275E2
:100E7000D56D75D840D295D2AF759F65227A147B17
:100E80007880127A107B8C800C7A0D7BB480067A85
:100E90000B7BC88000E560D5E001227902E4C295B1
:100EA000D5E0FDD292D5E0FDC292D5E0FDD295D538
:100EB000E0FDE920E002D29130E002D293E560D576
:100EC000E0FDE920E002C29130E002C2937496D5C1
:100ED000E0FDD9C9EAF8D5E0FDD8FBDBB8C2952220
:100EE000C291C292C293C294C295C29675D57F2216
:100EF000788076FF0876FF0876FF0876FF0876FF91
:100F00000876FF0876090876FF087601788C760166
:100F10000876FF0876FF0876FF0876FF0876FF0858
:100F200076030876FF0876FF0876FF0876250876B0
:100F3000D00876280876500876040876FF087602EE
:100F40000876FF08767A0876FF08760708760108A3
:100F500076FF0876FF087600087600227888E6C3D8
:100F60009403D23A5002C23AC238E630E102D23893
:100F7000A23892397886E6149000C09378A6F67865
:100F800086E6F539C394025003753902789CE675FC
:100F900038FFB402037538A0B4030375388278A013
:100FA000E6F8600674282409D8FCF565D1E02278BB
:100FB000A5E6F95403C2827002D282E9540CC281C0
:100FC0007002D281E95430C2807002D280E954C0EC
:100FD00070002275683C75662075671E3037037592
:100FE000671B756B6C756C14756DFA756EE8756FB3
:100FF000D82275680075664075673C3037037567A1
:1010000036756B9D756C87756DEC756ECB756FABBA
:1010100022741E208315C0D0C0E0740AD5E0FDD034
:10102000E0D0D02083EBD5E0EDC322C0D0C0E07487
:101030000AD5E0FDD0E0D0D03083D6D5E0EDD32284
:101040007563007564007597DE7597AD7581AF4364
:10105000FF8075EF0675A900120EE07580FF75F12F
:101060000F75A4077580FF75D4FF75900075F27E2B
:1010700075A57E75900075D57F75A60175E34075E1
:10108000E202120EE0E47800F6D8FD120EF0D1D3A1
:1010900078988660753001C2AF120770120E7D120B
:1010A0000768120E83120768120E89120768120F62
:1010B000AFC2AF75630075640078FA79FA308307C0
:1010C000D9FBD8F7021C00120F5C78988660120ECC
:1010D000E075C80475910475D84075D90875F78016
:1010E000759E03755580755A0175960275DA4275BD
:1010F000DB42759B80759D0075D10C75BC5975BB25
:101100001075E88075B20112075C753600C23012A6
:101110000770D23411119237C23B752B00752C0029
:1011200075E4B330370375E43B758851758E0C75E3
:1011300089AA758C00758D00758E0C75E68075B862
:101140000375A828D2AF120FF275223212076C7500
:101150004C00754D00C3E5229402400201B1120714
:101160006020300201B1E54E600201B1C2AF120E43
:101170007D120E7D120E7DD2AF1207707563007561
:10118000640012076CE54E600201B1C2AF120E8F0F
:10119000120E8F120E8FD2AF120770753000752BA2
:1011A00000752C00E4F531F5320531E531F4703F7E
:1011B0000532789AE67819146012783214600D7846
:1011C0007D14600878FA146003753200C3E5329824
:1011D000401D120EE012075C1532753100789986B9
:1011E00060C2AF120E8FD2AF7898866012076C1271
:1011F0000764E523700201B1C3E54E9401500AC3B0
:10120000E54C940150160211A912076CE5237003F6
:101210000210B1754C00754D000213BEC3E54C942D
:10122000017017C2AF120EE078998660120E7D78B9
:10123000988660D2AF12076C61B0C3E54C9402701F
:1012400017C2AF120EE078998660120E83789886E6
:1012500060D2AF12076C61B0C3E54C94037017C243
:10126000AF120EE078998660120E8978988660D267
:10127000AF12076C61B0C3E54C94047017C2AF1293
:101280000EE078998660120E8F78988660D2AF1241
:10129000076C61B0C3E54C94057017C2AF120EE045
:1012A00078998660120E8F78988660D2AF12076C9C
:1012B00061B0C3E54C94077019C3E54D9406500224
:1012C00021F87401303A0274037888F6C238C239C2
:1012D00061B0C3E54C94087019C3E54D9406500203
:1012E00021F87402303A0274047888F6D238D23980
:1012F00061B0C3E54C94097017C3E54D94065002E4
:1013000021F8303A0BC37888E69402F6C23A61B00D
:10131000C3E54C940A7016C3E54D9406500221F8BB
:10132000203A0A7888E62402F6D23A61B0C3E54C46
:1013300094147025C3E54D9406500221F8C2AF9075
:101340001A0B740093D2AF7888F613C238C23940B2
:1013500002D2384002D2398057C3E54C9415703818
:10136000C3E54D9406404FC2AF901A0B740093D260
:10137000AFF8B801027402B802027401B803027433
:1013800004B8040274037888F613C238C2394002E4
:10139000D2384002D2398018C3E54C940C701175D4
:1013A00063A57564F1C3E54D9406400AF11AD2AF06
:1013B000754C00754D0075630075640021F8120EC0
:1013C000E0755E00752400752500753700755E08B0
:1013D00012075C1207C530EDFDA8BDA9BEE970017A
:1013E000F8885F1207C9755E08C2AF120830855DC4
:1013F0005B855D5CD2AF303A07C238303502D238F7
:10140000D228753300120DBD120E1D12083F1208AE
:10141000461209A21209BD12083F1208461209A27B
:101420001209BD12083F120AC2120BB3120C3D1270
:1014300008461209A21209BD120AB2202C03120793
:101440007F302C031207AF120BB3120C9D1208460B
:101450001209A21209BD120AC2120BB3120CFD121C
:1014600008461209A21209BD120AB2120BB3120DDC
:101470005D1208461209A21209BD120AC2120BB36C
:10148000120DBD1208461209A21209BD1207C5129B
:101490000AB2120BB3120E1D1207C9120846120926
:1014A000A21209BD302827855D5B79187A0CC3E547
:1014B0003399400EC228D2298A35855D5B855D5CF3
:1014C000800CC3E54E94014003021426A154302938
:1014D0001F202B1CE535147006C229D22A8126F55F
:1014E00035203A07C3E54E94014003021426806478
:1014F000753600203A0F78FA79A4E760027803C3C2
:10150000E54F98504FE523604B303A1720380520BF
:101510003507800F303502800A202B07D22B855DDE
:101520005B816878F0302B05855D5B7820C3E542F0
:10153000985003021426302B1BC22BC238303502C0
:10154000D238D229753512855D5B81260536E54E88
:101550006002A157753600C2AF120EE0752500D2A9
:10156000AF12076C120EE075240078A4E66006D274
:1015700094D295D296C3E5369404400201B1219EDF
:101580008322010203040D090508040D090C080457
:101590000D832201020304050607083931292119A8
:1015A0001109100839312921191118100839312968
:1015B000211920181008393129212820181008393C
:1015C00031293028201810083931383028201810D7
:1015D000083983220102030405060708090A0B0CD7
:1015E0000D0E0F10F1E1D1C1B1A191817161514195
:1015F0003121112010F1E1D1C1B1A191817161516D
:10160000413121302010F1E1D1C1B1A1918171614D
:1016100051413140302010F1E1D1C1B1A19181712E
:101620006151415040302010F1E1D1C1B1A191810F
:10163000716151605040302010F1E1D1C1B1A191F0
:1016400081716170605040302010F1E1D1C1B1A1D1
:101650009181718070605040302010F1E1D1C1B1B2
:10166000A19181908070605040302010F1E1D1C193
:10167000B1A191A0908070605040302010F1E1D174
:10168000C1B1A1B0A0908070605040302010F1E155
:10169000D1C1B1C0B0A0908070605040302010F136
:1016A000E1D1C1D0C0B0A090807060504030201017
:1016B000F1E1D1E0D0C0B0A0908070605040302007
:1016C00010F1E1F0E0D0C0B0A090807060504030E8
:1016D0002010F1901A0D7820F153E520B4550AA39B
:1016E000F153E520B4AA0280137563A57564F11265
:1016F0000EF0F11A756300756400801D901A03786E
:10170000807B0AF153A308DBFA901A0F788C7B1ABE
:10171000F153A308DBFA901A2922C2AFF196F173B4
:10172000901A007410F158A3744EF158A37421F16B
:1017300058901A0378807B0AF157A308DBFA901AB5
:101740000F788C7B1AF157A308DBFAF1A9F1879087
:101750001A2922E493F622E6438F01538FFDFFC33B
:10176000E583941C400122EF8563B78564B7F0538D
:101770008FFE22438F02438F018563B78564B79044
:101780001A0DF0538FFC22901A0D7455F158901ACF
:101790000E74AAF158227A3079D07820901A40F14C
:1017A00053E520F709A3DAF7227A3079D0901A406E
:1017B000E7F15809A3DAF9227C05120770DCFB2255
:1017C000C2AF120E7D120E83120E89120E8F1207F7
:1017D00064120E7D120E83120E89120E8F12076490
:1017E000120E7D120E83120E89120E8FD2AF22C2FC
:1017F000AF120E8F120E89120E83120E7D12076425
:10180000120E8F120E89120E83120E7D12076412B1
:0E1810000E8F120E89120E83120E7DD2AF22A1
:1019FD00021040104E21FFFFFFFFFFFF09FF01FF07
:101A0D0055AA01FFFFFFFFFF03FFFFFF25D0285061
:0D1A1D0004FF02FF7AFF0701FFFF0000FF3A
:101A400023555F4C5F31352320202020202020208B
:101A500023424C48454C492445464D3842313023B9
:101A60002020202020202020202020202020202076
:101C0000C2AFC2D37597DE7597AD7581C075A90057
:101C100043FF80752438752503B1EA7529A5752A17
:101C2000F143F10853A4F7D28375D4FF75E3407DE7
:101C3000FA780379E67C10752200752300901DF771
:101C40007B06752498752501E4308310C0E0E430EC
:101C5000830AD5E0FAD0E0D5E0EF806D208308D884
:101C6000FBD9F9DCF781C9308308D8FBD9F9DCF757
:101C700081C9B1AAE493A3C39A6004DDB481C9DB2E
:101C8000DBB19C600281317B08E493FAA3B17DDB78
:101C9000F87A30B17D752200752300B19CEAFCEB27
:101CA000FDC3ED94FE400EB19C8A278B28ED30E0F9
:101CB000048A828B83B19C7AC270D8C3ED94FE6093
:101CC0001950CEBD0029EC600F7520007521FF75FD
:101CD0002900752A000200008100A827A928080908
:101CE000D804D90281ECB1A0EAF281E00D81B5C33C
:101CF000ED94035051EDA2E092007AC5C3E58294C1
:101D000000E583941C508C200010438F02438F0108
:101D10008529B7852AB7F0300027A827A928080900
:101D2000438F01538FFDD804D902A141C3E58394A9
:101D30001C4003A3A126E28529B7852AB7F0A3A1F9
:101D400026538FFC81917AC1BD030CE493A3FAB1B1
:101D500061DCF8B15981918193AA22AB23B17DEB6B
:101D6000FAEA6222752608C3E52313F523E5221358
:101D7000F52250066323A0632201D526EAB1EAB119
:101D8000EA75260AEAF4200102D283300102C283F6
:101D9000B1EAC3134002C201D526EB22B1A0EAFB8F
:101DA000208302A1A0308302A1A5752608AE24AF2E
:101DB00025C3EF13FFEE13FEB1EEB1EAC3EA133011
:101DC00083024480FA30E703632201C3E52313F55D
:101DD00023E52213F52250066323A0632201D526B2
:101DE000D9E52265236523F52222AE24AF250E0F07
:101DF000DEFEDFFCD20122424C48656C693437318B
:051E000064E8B10601D9
:00000001FF
