:020000040000FA
:060000000219FD02069644
:03000B0002029658
:030013000206DF03
:03001B0002055388
:03002B000202E3EB
:03005B000206F1A9
:030073000203186D
:1000C0000406080C10182030406080A0C09000D1B9
:1000D0007301F101FE210E211E212B213B2148211C
:1000E0005B216B217E2188219821A521BB21C8217C
:1000F000DBA6F008A67408A672088572F022A6F0A6
:1001000008A67208A67308A672088572F022E57325
:10011000B5F002E574F608A674088572F022A6F020
:1001200008A67208A674088572F022A6F008A673C5
:1001300008A67208A672088572F022A6F008A673B7
:1001400008A673088572F022E573B5F002E574F62F
:1001500008A67208A673088572F022A6F008A67297
:1001600008A67208A673088572F022E573B5F0023E
:10017000E574F608A67308A672088572F022A6F048
:1001800008A674088573F022E573B5F002E574F6ED
:1001900008A673088573F022A6F008A67208A67355
:1001A000088573F022E573B5F002E574F608A672CF
:1001B00008A67208A672088572F022A6F008A67337
:1001C00008A672088573F022E573B5F002E574F6AF
:1001D00008A67208A672088573F022A6F008A67217
:1001E00008A67208A672088573F022E529A2473393
:1001F000F52875290F8075E529A24733A24633F506
:100200002875290D8066E529A24733A24633A24509
:1002100033F52875290B8054E52854F0C24C452944
:10022000C4F5287529098044E528A24813A249137A
:10023000A24A13F5287529078032E528A24813A29F
:100240004913F5287529058023E528A24813F528C8
:100250007529038017204F93204E9C204DA8204CD9
:10026000B7204BC4204AD32049DFE528C465286560
:1002700029F478D08572F023541E11CDE52823543B
:100280001E11CDE528C423541E11CDE52923541E8B
:1002900011CDA6F008220540203B0132C0D0C0E0BD
:1002A00075D01018B8CF3320800BD28085728A08A1
:1002B000D0E0D0D03275A4C0D280C23B758E0C7510
:1002C00089AAC2A9C289C28B758A00758C00758201
:1002D00000D2A8D2AAD0E0D0D032B280868AD0E0B4
:1002E000D0D032C0D0C0E0C2CF0541E5676009E59B
:1002F000666005756600801B756601E52360021562
:1003000023C3E554600575550080080555E5557013
:10031000021555D0E0D0D032C2AF53E67F7592FAC5
:100320007593FFC22053917FD2AF32C0D075D010E9
:10033000E52C7004E52B601EE52BA26013F528A2C6
:1003400061132528F528E52C03C2E7F52903C2E748
:100350003529F52980067528FF7529FF5155C28D6D
:10036000758A86758E097589A2D23BD2A9D280750D
:10037000A4C1D0D032758200752800752900752A75
:1003800000780075F000E0C0E0C395F0D0F028C31D
:10039000956B78004007D24B956C4001F80582E0E0
:1003A000C0E0C395F0D0F028C3956B78004007D229
:1003B0004A956C4001F80582E0C0E0C395F0D0F0AA
:1003C00028C3956B78004007D249956C4001F80529
:1003D00082E0C0E0C395F0D0F028C3956B78004070
:1003E00007D248956C4001F80582E0C0E0C395F063
:1003F000D0F028C3956B78004007D247956C400138
:10040000F80582E0C0E0C395F0D0F028C3956B7882
:10041000004007D246956C4001F80582E0C0E0C379
:1004200095F0D0F028C3956B78004007D245956CC5
:100430004001F80582E0C0E0C395F0D0F028C395F4
:100440006B78004007D244956C4001F80582E0C00B
:10045000E0C395F0D0F028C3956B78004007D243F5
:10046000956C4001F80582E0C0E0C395F0D0F0281B
:10047000C3956B78004007D242956C4001F8058225
:10048000E0C0E0C395F0D0F028C3956B780040073A
:10049000D241956C4001F80582E0C0E0C395F0D0F0
:1004A000F028C3956B78004007D240956C4001F866
:1004B0000582E0C0E0C395F0D0F028C3956B7800CA
:1004C0004007D253956C4001F80582E0C0E0C39527
:1004D000F0D0F028C3956B78004007D252956C405D
:1004E00001F80582E0C0E0C395F0D0F028C3956B19
:1004F00078004007D251956C4001F80582E0C0E0D9
:10050000C395F0D0F028C3956B78004007D2509582
:100510006C4001F80582E528C4652865293037015B
:10052000F4652A540F22900000D2A8D2AA0522E531
:1005300022700215220522E52270021522C3E5224F
:1005400094324005755400A14C75230AD0F0D0E0D8
:10055000D0D032C2AFC2A8C28EC0D0C0E0C0F07549
:10056000D008C2CAA8CCA9CDD2CAD2AF758A00C35E
:10057000E8956EF8E9956FF9E970ABE8957040A6DB
:10058000957150A2E582B4109D71757099A928E506
:1005900028C39460FAE5299400FB50177B007A0089
:1005A000E96010C313500CB5520405538005F55291
:1005B000755300303702712B303A27C3EA94D0F8D4
:1005C000EB9407F9400BE8FAE9FB203509D235A195
:1005D000D6303502C235203902B235C3EA33FAEBE0
:1005E00033FBEB2B3B3BF9C3EB13FBEA13FAEA2992
:1005F000FAEB3400FB30E3047AFF7BFFE52554037C
:10060000601B202A18E55E33F9EB7007C3E99A40B6
:1006100002E9FAE53CC4332AFAEB3400FBC3EA33BF
:10062000C4540FF8EB33C454F048F87005EA600284
:100630007801E52260021522D2308854E554600327
:10064000755500AC5CC3E55C955D4002AC5DC3ECE8
:1006500095545008EC75F008A4FAABF08A5A535A36
:1006600003EB13F45403F9EA13F4F8C3E89478FAAB
:10067000E99400FB50047A007B00885689578A5819
:100680008B5975230A203707900000D2A8D2AAD030
:10069000F0D0E0D0D032C0D0C0E0E58AF00582854D
:1006A0006D8BD0E0D0D032308020F00582856D8B0C
:1006B000D0E0D0D032F005822080FDE58AF00582BE
:1006C000856D8BD0E0D0D0C28932F005823080FDBC
:1006D000E58AF00582856D8BD0E0D0D0C28932C228
:1006E000AA856D8BD28EC2CA85CC6E85CD6FD2CADB
:1006F0003253E6EF327901801479038010790A8051
:100700000C791E80087964800479C880007817E429
:10071000D5E0FDD8FAD9F62278FF20282879A1E77C
:100720006023E548601F74FF8548F084853FF03002
:10073000290375F005A4F8C5F0600278FFC3E895B9
:100740005E5002A85E885D22C3E54794A0E5489408
:1007500000E55D5003148001046002F55D2275E838
:100760009022055FC3E55F9408405330EDF4A8BDC7
:10077000A9BE755F00E9FA79A0E76041EA7006E575
:10078000606018800CC3E89560600EE560500560FD
:100790000A1480070460FA8002E560F560C3956A78
:1007A000401B755CC0C394044013755C80C3940403
:1007B000400B755C40C394044003755C0022E55C0B
:1007C0002410500274FFF55C22743279A687F0A4DD
:1007D000C5F0A2F733F55E227547007548F022C2D6
:1007E000AFC2CAA8CCA9CDAA4130CF010AD2CAD281
:1007F000AFC3EA13FAE913F9E813F8AB42AC438844
:10080000428943C3E89BF8E99C20280A547FF930C9
:100810002C0201FC8040AD448A44F9EA9D547FFAE1
:10082000600678FF79FF8013AE45AF468B458C4656
:10083000A842A943C3E89EF8E99FF9C3E54813FB22
:10084000E54713FAE82AF547E93BF54850087547AC
:10085000FF7548FF804DAA47AB48AC47AD487E04C2
:100860007F02C3EB9404400D1E1FC3EB94084005A8
:100870002029021E1FC3ED13FDEC13FCDEF7C3EAB3
:100880009CFAEB9DFBEF6009C3E913F9E813F8DF6D
:10089000F7EA28FAEB39FB8A478B4850067BFF8B37
:1008A000478B48C3EB94025002D22C3028047F03BC
:1008B000801C7892E6FFC3E53D948240110FC3E5AA
:1008C0003D94A040010FC3EF940640027F057E02D5
:1008D000E548C4540FF9E548C454F0F8E547C4545A
:1008E0000F28F8C3E89EFAE99400FB400AC3EA9493
:1008F00001EB94004001227A01E4FB22AA47AB48B5
:10090000EBC4FEEAC4540F4EFCC3EA9CFAEB94001D
:10091000FBC3E813C313F8EA28FAEB3400FB8A4759
:100920008B48C3EB94024002C22C7802EBC4FE7BDE
:1009300000EAC4540F4EFAC3EA98FA4005C3940182
:1009400050027A017892E6FF22C2AF85472B854894
:100950002CD2AF3020022153854E92854F93D22066
:1009600043E68022C3E49AF8E49BF9C3E833F8E94C
:1009700033F9302C030209E9E8FAE9FBD3E913FD66
:10098000E813FC884E894FC3EF94036038EF20E0F2
:100990000CE82CF8E93DF9ECFAEDFB8013E828F8B7
:1009A000E939F9C3E82401F8E93400F97AFF7BFF5B
:1009B000C3EF9403400F8A508B51884A894B8C4C6B
:1009C0008D4D020A1E885089518A4A8B4B8C4C8D62
:1009D0004D3028127550F07551FF754CF0754DFF74
:1009E000754EF0754FFF020A1EE8FAD3E813FC8833
:1009F0004EC3EF94036021EF20E007E82CF8ECFAF7
:100A00004109E8282401F87AFFC3EF940340098ADA
:100A100050884A8C4C020A1E88508A4A8C4C3020DE
:100A200002411E753A02D22043E680E52554036058
:100A30002DA847A948C3E913F9E813F8302804E9B9
:100A40002440F9C2AF53E67F759100C3E498F59452
:100A5000E499F595759104D22043E680D2AF22D275
:100A600021754900752000302B03752040417DD24F
:100A700021754900752040302B03752000780179DD
:100A800001202C20E52554036002C2217914E54899
:100A9000C313700104F8C39414400278143028047E
:100AA000781B791BC3E833F8C3E933F9202010E53C
:100AB00049600C302803D53A04D222613051260512
:100AC00049E59B5440B52002611A30280908C3E863
:100AD0009940011841AC20210A08C3E8994002411D
:100AE0007D41ACC22153E67F759100302C11759485
:100AF000007595F0759104D22043E680020A7DE5E9
:100B0000487EFFC3334009C3334005C3334001FE71
:100B1000C3E49E759400F59541F4C3E53994015002
:100B200002417D302102417DD802612E41ACC222BA
:100B3000C2AF53E67F7591008550948551957591AC
:100B400004854A92854B93D22043E680D2AFE525B7
:100B5000540360072029020539801030220D202B14
:100B60000A202107158115810218282278003021DA
:100B7000027801E53D75F007A4F9E5F028F5F0E904
:100B8000A2F013A2F113A2F213F53DC3947850031F
:100B9000753D78C3E53D953E400CC286C290C29239
:100BA00075D4FF75D50F30200261A6854C92854D16
:100BB00093D22043E68022E55B455A71CCF55B4336
:100BC000560130E006535B3D5356FE22832201025C
:100BD00003040D090508040D090C08040D83220106
:100BE00002030405060708393129211911091008E3
:100BF00039312921191118100839312921192018E2
:100C000010083931292128201810083931293028B5
:100C1000201810083931383028201810083971B7D9
:100C200020383EC2AFC291C29375D8008558F9856D
:100C300059FA53F77F8556FB8557FC8558E9855946
:100C4000EA43F7808556FB8557FC8558E98559EAC4
:100C500075D4FF75D50375D840D287D2AF759F4242
:100C600022C2AFC287C29175D8008558F98559FA5A
:100C700053F77F8556FB8557FC8558E98559EA432C
:100C8000F7808556FB8557FC8558E98559EA75D468
:100C90003F75D50F75D840D293D2AF759F42227160
:100CA000B720383EC2AFC291C29375D8008558F9BB
:100CB0008559FA53F77F8556FB8557FC8558E9859A
:100CC00059EA43F7808556FB8557FC8558E98559D5
:100CD000EA75D4FF75D50C75D840D287D2AF759F11
:100CE0005222C2AFC287C29175D8008558F9855982
:100CF000FA53F77F8556FB8557FC8558E98559EAF5
:100D000043F7808556FB8557FC8558E98559EA7578
:100D1000D4FF75D50C75D840D293D2AF759F3222CF
:100D200071B720383EC2AFC287C29175D8008558CE
:100D3000F98559FA53F77F8556FB8557FC8558E9A5
:100D40008559EA43F7808556FB8557FC8558E98528
:100D500059EA75D4FF75D50C75D840D293D2AF75CA
:100D60009F3222C2AFC291C29375D8008558F985CF
:100D700059FA53F77F8556FB8557FC8558E9855905
:100D8000EA43F7808556FB8557FC8558E98559EA83
:100D900075D4FF75D50C75D840D287D2AF759F52E8
:100DA0002271B720383EC2AFC287C29175D8008584
:100DB00058F98559FA53F77F8556FB8557FC8558B6
:100DC000E98559EA43F7808556FB8557FC8558E944
:100DD0008559EA75D43F75D50F75D840D293D2AFF7
:100DE000759F4222C2AFC291C29375D8008558F94F
:100DF0008559FA53F77F8556FB8557FC8558E98559
:100E000059EA43F7808556FB8557FC8558E9855993
:100E1000EA75D4FF75D50375D840D287D2AF759FD8
:100E2000422271B720383EC2AFC287C29375D80044
:100E30008558F98559FA53F77F8556FB8557FC8508
:100E400058E98559EA43F7808556FB8557FC855854
:100E5000E98559EA75D43F75D50F75D840D291D23E
:100E6000AF759F5222C2AFC287C29375D800855812
:100E7000F98559FA53F77F8556FB8557FC8558E964
:100E80008559EA43F7808556FB8557FC8558E985E7
:100E900059EA75D4FF75D50375D840D291D2AF7594
:100EA0009F322271B720383EC2AFC287C29375D835
:100EB000008558F98559FA53F77F8556FB8557FC0D
:100EC0008558E98559EA43F7808556FB8557FC85A7
:100ED00058E98559EA75D4FF75D50375D840D29184
:100EE000D2AF759F3222C2AFC287C29375D8008538
:100EF00058F98559FA53F77F8556FB8557FC855875
:100F0000E98559EA43F7808556FB8557FC8558E902
:100F10008559EA75D43F75D50F75D840D291D2AFB7
:100F2000759F52227A147B7880127A107B8C800C09
:100F30007A0D7BB480067A0B7BC88000E565D5E02E
:100F400001227902E4C291D5E0FDD290D5E0FDC244
:100F500090D5E0FDD291D5E0FDE920E002D28630C7
:100F6000E002D292E565D5E0FDE920E002C28630DC
:100F7000E002C2927496D5E0FDD9C9EAF8D5E0FD49
:100F8000D8FBDBB8C29122C286C290C292C287C28D
:100F900091C29375D4FF75D50F22788076FF0876BD
:100FA000FF0876FF0876FF0876FF0876FF087609C7
:100FB0000876FF087601788C76010876FF0876FFC0
:100FC0000876FF0876FF0876FF0876030876FF08A4
:100FD00076FF0876FF0876250876D008762808760A
:100FE000500876040876FF0876020876FF08767ABD
:100FF0000876FF0876070876010876FF0876FF086E
:10100000760008760022FA75F00CA4ABF0EAC33340
:10101000F8740133F9E8C333F8E933F9E8C32BF87E
:10102000E93400F9E8C333F8E933F9227888E6C3F4
:101030009403D23A5002C23AC238E630E102D238C2
:10104000A23892397886E6149000C09378A6F67894
:1010500086E6F53FC394025003753F02789CE6751F
:101060003EFFB40203753EA0B40303753E8278A030
:10107000E6F8600674282409D8FCF56A7896E6112B
:101080000688318932789EE611068833893478974C
:10109000E6110688358936120F87223036117A001C
:1010A0007B007CFF7D007E0031018B628A612230F3
:1010B0003A227896E6FA7B00789EE6FC7D00C3EA49
:1010C00033FAEB33FBC3EC33FCED33FD7E0A310125
:1010D0008B648A637896303A02789EE6FA7B0078D1
:1010E00097E6FC7D007E00303A10C3EA33FAEB331A
:1010F000FBC3EC33FCED33FD7E0A31018B628A6168
:1011000022C3EC9EFCED9400FDC3EC9AFCED9BFD2C
:10111000C3EC9423ED940050047C237D00C3EC9435
:10112000FFED940140047CFF7D017BFF0B7A000AF8
:10113000EA7009C3EC33FCED33FD80F0EC8AF0A4D7
:10114000AEF0ED8AF0A42E947C40E4EAF460DD2257
:10115000D236119B1207011207017A007B007C1026
:101160001206F9E5542AFA74003BFBDCF37C04C355
:10117000EB13FBEA13FADCF7FFEB60027FFFC236EA
:10118000119B2278A5E6F954037000E9540C700015
:10119000E954307000E954C0700022758851758E92
:1011A0000C7589AA758C00758D00758E0C756D3C5B
:1011B000756B20756C1E303703756C1B75704E7522
:1011C00071437572FF7573EC7574DD227588517506
:1011D0008E0C7589AA758C00758D00758E0C756DD9
:1011E00000756B40756C3C303703756C3675709DBF
:1011F0007571877572EC7573CB7574AB22741E2094
:101200008015C0D0C0E0740AD5E0FDD0E0D0D02079
:1012100080EBD5E0EDC322C0D0C0E0740AD5E0FD7C
:10122000D0E0D0D03080D6D5E0EDD32275680075FF
:1012300069007597DE7597AD7581AF43FF8075EFD7
:101240000675A900120F8775803F75F1C375A4C09C
:1012500075803F75D4FF75900075F20F75A50F75F9
:10126000900075D50F75A60175E34075E202120F67
:1012700087E4F8F6D8FD120F9A12185E7898866502
:10128000753001C2AF120709120F24120701120FA5
:101290002A120701120F301207013183C2AF75689D
:1012A0000075690078FA79FA308016D9FBD8F7759D
:1012B000A91375A71075C10075A700756700021CFA
:1012C00000112C119B78988665120F8775A71075F1
:1012D000C13075A70075A90375670175C8047591BC
:1012E0000475D84075D90875F782759E03755B083B
:1012F00075960275DA4275DB4275A82375E680752E
:10130000B803759B80759D0075D10C75BCB975BB14
:101310001075E88075B2011206F5753C00C23012F6
:101320000709C231C232C233C2347552007553004C
:10133000D23431FD9237C23B752B00752C0075E419
:101340008030370375E408319BC2A9D2ABD2AAD250
:10135000AF752232120705755200755300C3E5229E
:101360009402401731CC7522321207057552007570
:101370005300C3E52294024002419C1206F920303A
:1013800002419CE5546002419CC2AF120F24120F2F
:1013900024120F24D2AF120709203403303A03027B
:1013A00014441206F9788CE6C3940150028144E596
:1013B00030C39401500281447568A57569F17F02BC
:1013C000D236119B120705C2AFC236119BC3E5543A
:1013D000947FD2AF406E1206F5C2AF120F36D2AF75
:1013E000DFDE3150C3EF7897F612070912194B7FF1
:1013F0000AD236119B120705C2AFC236119BC3E554
:1014000054947FD2AF50E81206F5C2AF120F2412E7
:1014100006FD120F24D2AFDFD83150EF24037896A7
:10142000F6F87997E7C394234003985006E82423FD
:101430007897F61207091218A512197A12070511E2
:101440009B02129C756800756900120705E55460DF
:1014500002419CC2AF120F36120F36120F36D2AFB6
:10146000120709753000752B00752C00E4F537F56F
:10147000380537E537F4703F0538789AE67819145F
:101480006012783214600D787D14600878FA146068
:1014900003753800C3E53898401D120F871206F512
:1014A000153875370078998665C2AF120F36D2AFFE
:1014B000789886651207051206FDE5237002419CA7
:1014C000C3E5549401500AC3E55294015016021426
:1014D00071120705E523700302129C7552007553C3
:1014E00000021687C3E55294017017C2AF120F872E
:1014F00078998665120F2478988665D2AF12070511
:10150000C179C3E55294027017C2AF120F87789960
:101510008665120F2A78988665D2AF120705C179C1
:10152000C3E55294037017C2AF120F87789986658E
:10153000120F3078988665D2AF120705C179C3E5DE
:101540005294047017C2AF120F8778998665120FF4
:101550003678988665D2AF120705C179C3E55294F3
:10156000057017C2AF120F8778998665120F36780B
:10157000988665D2AF120705C179C3E5529407700A
:1015800019C3E5539406500281C07401303A0274C5
:10159000037888F6C238C239C179C3E5529408701D
:1015A00019C3E5539406500281C07402303A0274A4
:1015B000047888F6D238D239C179C3E552940970DB
:1015C00017C3E5539406500281C0303A0BC37888A4
:1015D000E69402F6C23AC179C3E552940A7016C382
:1015E000E5539406500281C0203A0A7888E6240226
:1015F000F6D23AC179C3E55294147025C3E55394E9
:1016000006500281C0C2AF901A0B740093D2AF781B
:1016100088F613C238C2394002D2384002D239802B
:1016200058C3E55294157038C3E55394064050C230
:10163000AF901A0B740093D2AFF8B801027402B8DD
:1016400002027401B803027404B8040274037888B7
:10165000F613C238C2394002D2384002D23980195A
:10166000C3E552940C70127568A57569F1C3E55312
:101670009406400B1218A5D2AF7552007553007531
:10168000680075690081C0C2AF120F87E4D2AFE471
:10169000F55FF524F525F53D755F081206F512078F
:1016A0005E30EDFDA8BDA9BEE97001F888601207A3
:1016B00062755F08C2AF1207C9855E5C855E5DD248
:1016C000AF75A71075C13075A70075A903756701BF
:1016D000303A07C238303502D238D2287539001274
:1016E0000E22120EA31207D81207DF12094912099F
:1016F000641207D81207DF1209491209641207D8C9
:10170000120A6F120B6C120C1E1207DF120949121B
:101710000964120A5F202C03120718302C031207E9
:1017200048120B6C120C9F1207DF12094912096450
:10173000120A6F120B6C120D201207DF12094912E8
:101740000964120A5F120B6C120DA11207DF120955
:1017500049120964120A6F120B6C120E221207DF73
:1017600012094912096412075E120A5F120B6C1209
:101770000EA31207621207DF12094912096430280A
:1017800028855E5C79187A0CC3E53999400EC22829
:10179000D2298A3B855E5C855E5D800DC3E55494ED
:1017A00001400302170002183030291F202B1CE5CE
:1017B0003B147006C229D22AE100F53B203A07C348
:1017C000E554940140030217008065753C00203AFF
:1017D0000F78FA79A4E760027803C3E55598505072
:1017E000E523604C303A17203805203507800F304C
:1017F0003502800A202B07D22B855E5CE14278F00F
:10180000302B05855E5C7820C3E5489850030217AD
:1018100000302B1CC22BC238303502D238D2297589
:101820003B12855E5C021700053CE5546002013303
:10183000753C00C2AF120F87752500D2AF120705A5
:10184000120F8775240078A4E66006D287D291D261
:1018500093C3E53C9404400302129C021466901A60
:101860000D782011DEE520B4550AA311DEE520B481
:10187000AA0280137568A57569F1120F9A11A575F2
:101880006800756900801D901A0378807B0A11DE5C
:10189000A308DBFA901A0F788C7B1A11DEA308DB01
:1018A000FA901A2922C2AF312111FE901A00741049
:1018B00011E3A3744E11E3A3742111E3901A03788A
:1018C000807B0A11E2A308DBFA901A0F788C7B1A4E
:1018D00011E2A308DBFA31343112901A2922E49381
:1018E000F622E6438F01538FFDFFC3E583941C402E
:1018F0000122EF8568B78569B7F0538FFE22438FC9
:1019000002438F018568B78569B7901A0DF0538F30
:10191000FC22901A0D745511E3901A0E74AA11E36B
:10192000227A3079D07820901A4011DEE520F7092C
:10193000A3DAF7227A3079D0901A40E711E309A3AD
:10194000DAF9227C05120709DCFB22C2AF120F2450
:10195000120F2A120F30120F361206FD120F241228
:101960000F2A120F30120F361206FD120F24120F1B
:101970002A120F30120F36D2AF22C2AF120F361218
:101980000F30120F2A120F241206FD120F36120FFB
:1019900030120F2A120F241206FD120F36120F30CA
:0919A000120F2A120F24D2AF220B
:1019FD0002122C104E21FFFFFFFFFFFF09FF01FF19
:101A0D0055AA01FFFFFFFFFF03FFFFFF25D0285061
:0D1A1D0004FF02FF7AFF0701FFFF0000FF3A
:101A400023435F485F313230232020202020202094
:101A500023424C48454C492445464D3842323123B7
:101A60002020202020202020202020202020202076
:101BFF00FFC2AFC2D37597DE7597AD7581C075A95A
:101C0F000043FF80752438752503B1EA7529A57542
:101C1F002AF143F10153A4FED28075D4FF75E3403E
:101C2F007DFA780379E67C10752200752300901DEC
:101C3F00F77B06752498752501E4308010C0E0E429
:101C4F0030800AD5E0FAD0E0D5E0EF806D20800833
:101C5F00D8FBD9F9DCF781C9308008D8FBD9F9DC7A
:101C6F00F781C9B1AAE493A3C39A6004DDB481C913
:101C7F00DBDBB19C600281317B08E493FAA3B17D79
:101C8F00DBF87A30B17D752200752300B19CEAFC38
:101C9F00EBFDC3ED94FE400EB19C8A278B28ED30EF
:101CAF00E0048A828B83B19C7AC270D8C3ED94FE14
:101CBF00601950CEBD0029EC600F7520007521FF13
:101CCF00752900752A000200008100A827A928089D
:101CDF0009D804D90281ECB1A0EAF281E00D81B5F7
:101CEF00C3ED94035051EDA2E092007AC5C3E58293
:101CFF009400E583941C508C200010438F02438F77
:101D0F00018529B7852AB7F0300027A827A9280809
:101D1F0009438F01538FFDD804D902A141C3E58335
:101D2F00941C4003A3A126E28529B7852AB7F0A307
:101D3F00A126538FFC81917AC1BD030CE493A3FAC2
:101D4F00B161DCF8B15981918193AA22AB23B17DA6
:101D5F00EBFAEA6222752608C3E52313F523E52281
:101D6F0013F52250066323A0632201D526EAB1EAB8
:101D7F00B1EA75260AEAF4200102D280300102C2CC
:101D8F0080B1EAC3134002C201D526EB22B1A0EA0B
:101D9F00FB208002A1A0308002A1A5752608AE24E9
:101DAF00AF25C3EF13FFEE13FEB1EEB1EAC3EA1393
:101DBF003080024480FA30E703632201C3E5231326
:101DCF00F523E52213F52250066323A0632201D5E4
:101DDF0026D9E52265236523F52222AE24AF250EF1
:101DEF000FDEFEDFFCD20122424C48656C693437AE
:061DFF003164E8B20601A8
:011FFF00FFE2
:00000001FF
