:020000040000FA
:060000000219FD02069E3C
:03000B0002029658
:030013000206E7FB
:03001B0002055388
:03002B000202E3EB
:03005B000206F9A1
:030073000203186D
:1000C0000406080C10182030406080A0C09000D1B9
:1000D0007301F101FE210E211E212B213B2148211C
:1000E0005B216B217E2188219821A521BB21C8217C
:1000F000DBA6F008A67408A672088572F022A6F0A6
:1001000008A67208A67308A672088572F022E57325
:10011000B5F002E574F608A674088572F022A6F020
:1001200008A67208A674088572F022A6F008A673C5
:1001300008A67208A672088572F022A6F008A673B7
:1001400008A673088572F022E573B5F002E574F62F
:1001500008A67208A673088572F022A6F008A67297
:1001600008A67208A673088572F022E573B5F0023E
:10017000E574F608A67308A672088572F022A6F048
:1001800008A674088573F022E573B5F002E574F6ED
:1001900008A673088573F022A6F008A67208A67355
:1001A000088573F022E573B5F002E574F608A672CF
:1001B00008A67208A672088572F022A6F008A67337
:1001C00008A672088573F022E573B5F002E574F6AF
:1001D00008A67208A672088573F022A6F008A67217
:1001E00008A67208A672088573F022E529A2473393
:1001F000F52875290F8075E529A24733A24633F506
:100200002875290D8066E529A24733A24633A24509
:1002100033F52875290B8054E52854F0C24C452944
:10022000C4F5287529098044E528A24813A249137A
:10023000A24A13F5287529078032E528A24813A29F
:100240004913F5287529058023E528A24813F528C8
:100250007529038017204F93204E9C204DA8204CD9
:10026000B7204BC4204AD32049DFE528C465286560
:1002700029F478D08572F023541E11CDE52823543B
:100280001E11CDE528C423541E11CDE52923541E8B
:1002900011CDA6F008220540203B0132C0D0C0E0BD
:1002A00075D01018B8CF3320830BD28385728A089B
:1002B000D0E0D0D03275A404D283C23B758E0C75C9
:1002C00089AAC2A9C289C28B758A00758C00758201
:1002D00000D2A8D2AAD0E0D0D032B283868AD0E0B1
:1002E000D0D032C0D0C0E0C2CF0541E5676009E59B
:1002F000666005756600801B756601E52360021562
:1003000023C3E554600575550080080555E5557013
:10031000021555D0E0D0D032C2AF53E67F7592FAC5
:100320007593FFC22053917FD2AF32C0D075D010E9
:10033000E52C7004E52B601EE52BA26013F528A2C6
:1003400061132528F528E52C03C2E7F52903C2E748
:100350003529F52980067528FF7529FF5155C28D6D
:10036000758A86758E097589A2D23BD2A9D283750A
:10037000A40CD0D032758200752800752900752A2A
:1003800000780075F000E0C0E0C395F0D0F028C31D
:10039000956B78004007D24B956C4001F80582E0E0
:1003A000C0E0C395F0D0F028C3956B78004007D229
:1003B0004A956C4001F80582E0C0E0C395F0D0F0AA
:1003C00028C3956B78004007D249956C4001F80529
:1003D00082E0C0E0C395F0D0F028C3956B78004070
:1003E00007D248956C4001F80582E0C0E0C395F063
:1003F000D0F028C3956B78004007D247956C400138
:10040000F80582E0C0E0C395F0D0F028C3956B7882
:10041000004007D246956C4001F80582E0C0E0C379
:1004200095F0D0F028C3956B78004007D245956CC5
:100430004001F80582E0C0E0C395F0D0F028C395F4
:100440006B78004007D244956C4001F80582E0C00B
:10045000E0C395F0D0F028C3956B78004007D243F5
:10046000956C4001F80582E0C0E0C395F0D0F0281B
:10047000C3956B78004007D242956C4001F8058225
:10048000E0C0E0C395F0D0F028C3956B780040073A
:10049000D241956C4001F80582E0C0E0C395F0D0F0
:1004A000F028C3956B78004007D240956C4001F866
:1004B0000582E0C0E0C395F0D0F028C3956B7800CA
:1004C0004007D253956C4001F80582E0C0E0C39527
:1004D000F0D0F028C3956B78004007D252956C405D
:1004E00001F80582E0C0E0C395F0D0F028C3956B19
:1004F00078004007D251956C4001F80582E0C0E0D9
:10050000C395F0D0F028C3956B78004007D2509582
:100510006C4001F80582E528C4652865293037015B
:10052000F4652A540F22900000D2A8D2AA0522E531
:1005300022700215220522E52270021522C3E5224F
:1005400094324005755400A14C75230AD0F0D0E0D8
:10055000D0D032C2AFC2A8C28EC0D0C0E0C0F07549
:10056000D008C2CAA8CCA9CDD2CAD2AF758A00C35E
:10057000E8956EF8E9956FF9E970ABE8957040A6DB
:10058000957150A2E582B4109D71757099A928E506
:1005900028C39460FAE5299400FB50177B007A0089
:1005A000E96010C313500CB5520405538005F55291
:1005B000755300303702712B303A27C3EA94D0F8D4
:1005C000EB9407F9400BE8FAE9FB203509D235A195
:1005D000D6303502C235203902B235C3EA33FAEBE0
:1005E00033FBEB2B3B3BF9C3EB13FBEA13FAEA2992
:1005F000FAEB3400FB30E3047AFF7BFFE52554037C
:10060000601B202A18E55E33F9EB7007C3E99A40B6
:1006100002E9FAE53CC4332AFAEB3400FBC3EA33BF
:10062000C4540FF8EB33C454F048F87005EA600284
:100630007801E52260021522D2308854E554600327
:10064000755500AC5CC3E55C955D4002AC5DC3ECE8
:1006500095545008EC75F008A4FAABF08A5A535A36
:1006600007EB131392D5A2E7F45401F9EA13A2D5CC
:1006700013F4F8C3E8940AFAE99400FB50047A00F2
:100680007B00885689578A588B5975230A2037076B
:10069000900000D2A8D2AAD0F0D0E0D0D032C0D002
:1006A000C0E0E58AF00582856D8BD0E0D0D0323095
:1006B0008320F00582856D8BD0E0D0D032F00582AA
:1006C0002083FDE58AF00582856D8BD0E0D0D0C215
:1006D0008932F005823083FDE58AF00582856D8BD5
:1006E000D0E0D0D0C28932C2AA856D8BD28EC2CA68
:1006F00085CC6E85CD6FD2CA3253E6EF3279018058
:100700001479038010790A800C791E80087964803E
:100710000479C880007817E4D5E0FDD8FAD9F6222C
:1007200078FF20282879A1E76023E548601F74FF3F
:100730008548F084853FF030290375F005A4F8C59D
:10074000F0600278FFC3E8955E5002A85E885D22E3
:10075000C3E54794A0E5489400E55D50031480018B
:10076000046002F55D2275E89022055FC3E55F94A1
:1007700008405330EDF4A8BDA9BE755F00E9FA79D1
:10078000A0E76041EA7006E5606018800CC3E89558
:1007900060600EE5605005600A1480070460FA800E
:1007A00002E560F560C3956A401B755CC0C39404A4
:1007B0004013755C80C39404400B755C40C3940483
:1007C0004003755C0022E55C2410500274FFF55C68
:1007D00022743279A687F0A4C5F0A2F733F55E2221
:1007E0007547007548F022C2AFC2CAA8CCA9CDAAED
:1007F0004130CF010AD2CAD2AFC3EA13FAE913F9E2
:10080000E813F8AB42AC4388428943C3E89BF8E95C
:100810009C20280A547FF9302C0221048040AD44EA
:100820008A44F9EA9D547FFA600678FF79FF8013C5
:10083000AE45AF468B458C46A842A943C3E89EF817
:10084000E99FF9C3E54813FBE54713FAE82AF547A2
:10085000E93BF54850087547FF7548FF804DAA47AA
:10086000AB48AC47AD487E047F02C3EB9404400D17
:100870001E1FC3EB940840052029021E1FC3ED1361
:10088000FDEC13FCDEF7C3EA9CFAEB9DFBEF60097D
:10089000C3E913F9E813F8DFF7EA28FAEB39FB8A22
:1008A000478B4850067BFF8B478B48C3EB94025025
:1008B00002D22C3028047F03801C7892E6FFC3E527
:1008C0003D948240110FC3E53D94A040010FC3EF5A
:1008D000940640027F057E02E548C4540FF9E548BE
:1008E000C454F0F8E547C4540F28F8C3E89EFAE969
:1008F0009400FB400AC3EA9401EB94004001227A81
:1009000001E4FB22AA47AB48EBC4FEEAC4540F4EF5
:10091000FCC3EA9CFAEB9400FBC3E813C313F8EAA8
:1009200028FAEB3400FB8A478B48C3EB9402400261
:10093000C22C7802EBC4FE7B00EAC4540F4EFAC30B
:10094000EA98FA4005C3940150027A017892E6FFD2
:1009500022C2AF85472B85482CD2AF302002215BC5
:10096000854E92854F93D22043E68022C3E49AF8C5
:10097000E49BF9C3E833F8E933F9302C030209F1B9
:10098000E8FAE9FBD3E913FDE813FC884E894FC36D
:10099000EF94036038EF20E00CE82CF8E93DF9EC27
:1009A000FAEDFB8013E828F8E939F9C3E82401F8E7
:1009B000E93400F97AFF7BFFC3EF9403400F8A50BC
:1009C0008B51884A894B8C4C8D4D020A2688508960
:1009D000518A4A8B4B8C4C8D4D3028127550F075D6
:1009E00051FF754CF0754DFF754EF0754FFF020AC3
:1009F00026E8FAD3E813FC884EC3EF94036021EF96
:100A000020E007E82CF8ECFA4111E8282401F87AF4
:100A1000FFC3EF940340098A50884A8C4C020A268F
:100A200088508A4A8C4C3020024126753A02D220E6
:100A300043E680E5255403602DA847A948C3E91380
:100A4000F9E813F8302804E92440F9C2AF53E67FEF
:100A5000759100C3E498F594E499F595759104D2E5
:100A60002043E680D2AF22D22175490075200030A4
:100A70002B037520404185D22175490075204030F7
:100A80002B0375200078017901202C20E5255403E3
:100A90006002C2217914E548C313700104F8C394BD
:100AA0001440027814302804781B791BC3E833F80B
:100AB000C3E933F9202010E549600C302803D53A0A
:100AC00004D2226138512E0549E59B5440B52002DD
:100AD000612230280908C3E89940011841B4202157
:100AE0000A08C3E8994002418541B4C22153E67F18
:100AF000759100302C117594007595F0759104D2A4
:100B00002043E680020A85E5487EFFC3334009C3DF
:100B1000334005C3334001FEC3E49E759400F59550
:100B200041FCC3E5399401500241853021024185E1
:100B3000D802613641B4C222C2AF53E67F7591003C
:100B4000855094855195759104854A92854B93D231
:100B50002043E680D2AFE525540360072029020533
:100B600039801030220D202B0A2021071581158194
:100B70000216C52278003021027801E53D75F007A4
:100B8000A4F9E5F028F5F0E9A2F013A2F113A2F21E
:100B900013F53DC394785003753D78C3E53D953E0C
:100BA0004009C291C292C29375D57F30200261ABD9
:100BB000854C92854D93D22043E68022E55B455AD1
:100BC00071E2F55B43560130E006535BFE5356FE7F
:100BD000228322010203040D090508040D090C08F3
:100BE000040D832201020304050607083931292177
:100BF0001911091008393129211911181008393132
:100C00002921192018100839312921282018100805
:100C10003931293028201810083931383028201867
:100C200010083971BC20383BC2AFC295C29675D846
:100C3000008558F98559FA53F77F8556FB8557FC8F
:100C40008558E98559EA43F7808556FB8557FC8529
:100C500058E98559EA75D53775D840D294D2AF7521
:100C60009F4522C2AFC294C29575D8008558F985B8
:100C700059FA53F77F8556FB8557FC8558E9855906
:100C8000EA43F7808556FB8557FC8558E98559EA84
:100C900075D56D75D840D296D2AF759F452271BC7F
:100CA00020383BC2AFC295C29675D8008558F985E9
:100CB00059FA53F77F8556FB8557FC8558E98559C6
:100CC000EA43F7808556FB8557FC8558E98559EA44
:100CD00075D55B75D840D294D2AF759F6522C2AFEF
:100CE000C294C29575D8008558F98559FA53F77F93
:100CF0008556FB8557FC8558E98559EA43F7808579
:100D000056FB8557FC8558E98559EA75D55B75D83A
:100D100040D296D2AF759F752271BC20383BC2AFCE
:100D2000C294C29575D8008558F98559FA53F77F52
:100D30008556FB8557FC8558E98559EA43F7808538
:100D400056FB8557FC8558E98559EA75D55B75D8FA
:100D500040D296D2AF759F7522C2AFC295C296752A
:100D6000D8008558F98559FA53F77F8556FB855782
:100D7000FC8558E98559EA43F7808556FB8557FC81
:100D80008558E98559EA75D55B75D840D294D2AFBC
:100D9000759F652271BC20383BC2AFC294C2957565
:100DA000D8008558F98559FA53F77F8556FB855742
:100DB000FC8558E98559EA43F7808556FB8557FC41
:100DC0008558E98559EA75D56D75D840D296D2AF68
:100DD000759F4522C2AFC295C29675D8008558F955
:100DE0008559FA53F77F8556FB8557FC8558E98569
:100DF00059EA43F7808556FB8557FC8558E98559A4
:100E0000EA75D53775D840D294D2AF759F45227117
:100E1000BC20383BC2AFC294C29675D8008558F941
:100E20008559FA53F77F8556FB8557FC8558E98528
:100E300059EA43F7808556FB8557FC8558E9855963
:100E4000EA75D56D75D840D295D2AF759F6522C22F
:100E5000AFC294C29675D8008558F98559FA53F7F0
:100E60007F8556FB8557FC8558E98559EA43F7800D
:100E70008556FB8557FC8558E98559EA75D5377540
:100E8000D840D295D2AF759F752271BC20383BC235
:100E9000AFC294C29675D8008558F98559FA53F7B0
:100EA0007F8556FB8557FC8558E98559EA43F780CD
:100EB0008556FB8557FC8558E98559EA75D5377500
:100EC000D840D295D2AF759F7522C2AFC294C29658
:100ED00075D8008558F98559FA53F77F8556FB85F3
:100EE00057FC8558E98559EA43F7808556FB8557B5
:100EF000FC8558E98559EA75D56D75D840D295D2EB
:100F0000AF759F65227A147B7880127A107B8C8073
:100F10000C7A0D7BB480067A0B7BC88000E565D522
:100F2000E001227902E4C295D5E0FDD292D5E0FD40
:100F3000C292D5E0FDD295D5E0FDE920E002D29144
:100F400030E002D293E565D5E0FDE920E002C291F0
:100F500030E002C2937496D5E0FDD9C9EAF8D5E035
:100F6000FDD8FBDBB8C29522C291C292C293C29453
:100F7000C295C29675D57F22788076FF0876FF08E5
:100F800076FF0876FF0876FF0876FF087609087670
:100F9000FF087601788C76010876FF0876FF0876E0
:100FA000FF0876FF0876FF0876030876FF0876FFCD
:100FB0000876FF0876250876D00876280876500847
:100FC00076040876FF0876020876FF08767A0876B7
:100FD000FF0876070876010876FF0876FF08760096
:100FE00008760022FA75F00CA4ABF0EAC333F8746B
:100FF0000133F9E8C333F8E933F9E8C32BF8E934EE
:1010000000F9E8C333F8E933F9227888E6C394039A
:10101000D23A5002C23AC238E630E102D238A2389F
:1010200092397886E6149000C09378A6F67886E622
:10103000F53FC394025003753F02789CE6753EFF6E
:10104000B40203753EA0B40303753E8278A0E6F8AF
:10105000600674282409D8FCF56A7896E6120FE435
:1010600088318932789EE6120FE488338934789784
:10107000E6120FE488358936120F6822C3EC9EFC15
:10108000ED9400FDC3EC9AFCED9BFDC3EC9423EDC5
:10109000940050047C237D00C3EC94FFED94014048
:1010A000047CFF7D017BFF0B7A000AEA7009C3EC28
:1010B00033FCED33FD80F0EC8AF0A4AEF0ED8AF065
:1010C000A42E947C40E4EAF460DD2278A5E6F9548D
:1010D00003D2827002C282E9540C7000E95430706D
:1010E00000E954C0700022758851758E0C7589AA6C
:1010F000758C00758D00758E0C756D3C756B20754B
:101100006C1E303703756C1B75704E7571437572AC
:10111000FF7573EC7574DD22758851758E0C7589B9
:10112000AA758C00758D00758E0C756D00756B4001
:10113000756C3C303703756C3675709D75718775AD
:1011400072EC7573CB7574AB22741E208315C0D0FE
:10115000C0E0740AD5E0FDD0E0D0D02083EBD5E02C
:10116000EDC322C0D0C0E0740AD5E0FDD0E0D0D0FD
:101170003083D6D5E0EDD322756800756900759788
:10118000DE7597AD7581AF43FF8075EF0675A900D9
:10119000120F687580FB75F10F75A4047580FB75DF
:1011A000D4FF75900075F27E75A57E75900075D59B
:1011B0007F75A60175E34075E202120F68E4F8F648
:1011C000D8FD120F781217FA78988665753001C22B
:1011D000AF120711120F05120709120F0B120709A0
:1011E000120F1112070911CBC2AF756800756900A3
:1011F00078FA79FA308316D9FBD8F775A91375A751
:101200001075C10075A700756700021C00110A78EF
:10121000988665120F6875A71075C13075A700759F
:10122000A90375670175C80475910475D84075D90F
:101230000875F781759E03755B2075960275DA4215
:1012400075DB4275A82375E68075B803759B8075BC
:101250009D0075D10C75BCB975BB1075E88075B271
:10126000011206FD753C00C230120711C231C232B4
:10127000C233C234755200755300D23431499237AB
:10128000C23B752B00752C0075E4B330370375E451
:101290003B11E7C2A9D2ABD2AAD2AF752232120754
:1012A0000D755200755300C3E522940240173118A2
:1012B00075223212070D755200755300C3E5229452
:1012C00002400221E812070120300221E8E55460C3
:1012D0000221E8C2AF120F05120F05120F05D2AF9F
:1012E00012071175680075690012070DE554600258
:1012F00021E8C2AF120F17120F17120F17D2AF1239
:101300000711753000752B00752C00E4F537F538A2
:101310000537E537F4703F0538789AE67819146098
:1013200012783214600D787D14600878FA14600326
:10133000753800C3E53898401D120F681206FD1578
:101340003875370078998665C2AF120F17D2AF781B
:1013500098866512070D120705E523700221E8C380
:10136000E5549401500AC3E552940150160213103B
:1013700012070DE52370030211E875520075530042
:10138000021526C3E55294017017C2AF120F687898
:10139000998665120F0578988665D2AF12070DA160
:1013A00018C3E55294027017C2AF120F687899867D
:1013B00065120F0B78988665D2AF12070DA118C37E
:1013C000E55294037017C2AF120F687899866512C0
:1013D0000F1178988665D2AF12070DA118C3E55298
:1013E00094047017C2AF120F6878998665120F17B0
:1013F00078988665D2AF12070DA118C3E5529405FF
:101400007017C2AF120F6878998665120F17789817
:101410008665D2AF12070DA118C3E5529407701963
:10142000C3E55394065002615F7401303A027403BD
:101430007888F6C238C239A118C3E55294087019E9
:10144000C3E55394065002615F7402303A0274049B
:101450007888F6D238D239A118C3E55294097017AA
:10146000C3E55394065002615F303A0BC37888E6B7
:101470009402F6C23AA118C3E552940A7016C3E565
:101480005394065002615F203A0A7888E62402F6F7
:10149000D23AA118C3E55294147025C3E5539406BB
:1014A0005002615FC2AF901A0B740093D2AF78887C
:1014B000F613C238C2394002D2384002D2398058BD
:1014C000C3E55294157038C3E55394064050C2AF3B
:1014D000901A0B740093D2AFF8B801027402B802EC
:1014E000027401B803027404B8040274037888F625
:1014F00013C238C2394002D2384002D2398019C3EF
:10150000E552940C70127568A57569F1C3E55394A2
:1015100006400B121841D2AF755200755300756822
:1015200000756900615FC2AF120F68E4D2AFE4F5E5
:101530005FF524F525F53D755F081206FD12076677
:1015400030EDFDA8BDA9BEE97001F8886012076AF8
:10155000755F08C2AF1207D1855E5C855E5DD2AF54
:1015600075A71075C13075A70075A903756701309F
:101570003A07C238303502D238D228753900120EF7
:101580000F120E8A1207E01207E712095112096CB6
:101590001207E01207E712095112096C1207E01254
:1015A0000A77120B74120C231207E7120951120961
:1015B0006C120A67202C03120720302C03120750EC
:1015C000120B74120C9E1207E712095112096C12C9
:1015D0000A77120B74120D191207E712095112093A
:1015E0006C120A67120B74120D941207E71209515C
:1015F00012096C120A77120B74120E0F1207E712FF
:10160000095112096C120766120A67120B74120E46
:101610008A12076A1207E712095112096C3028274B
:10162000855E5C79187A0CC3E53999400EC228D2E0
:10163000298A3B855E5C855E5D800CC3E554940120
:10164000400302159FC1CD30291F202B1CE53B1400
:101650007006C229D22AA19FF53B203A07C3E55460
:101660009401400302159F8064753C00203A0F7876
:10167000FA79A4E760027803C3E55598504FE52353
:10168000604B303A17203805203507800F3035027F
:10169000800A202B07D22B855E5CA1E178F0302BED
:1016A00005855E5C7820C3E54898500302159F309D
:1016B0002B1BC22BC238303502D238D229753B12CF
:1016C000855E5CA19F053CE5546002C1D0753C007D
:1016D000C2AF120F68752500D2AF12070D120F6846
:1016E00075240078A4E66006D294D295D296C3E51C
:1016F0003C9404400221E8610583220102030405B1
:10170000060708090A0B0C0D0E0F10F1E1D1C1B14B
:10171000A19181716151413121112010F1E1D1C1BB
:10172000B1A19181716151413121302010F1E1D19C
:10173000C1B1A19181716151413140302010F1E17D
:10174000D1C1B1A19181716151415040302010F15E
:10175000E1D1C1B1A191817161516050403020103F
:10176000F1E1D1C1B1A1918171617060504030202F
:1017700010F1E1D1C1B1A191817180706050403010
:101780002010F1E1D1C1B1A19181908070605040F1
:10179000302010F1E1D1C1B1A191A09080706050D2
:1017A00040302010F1E1D1C1B1A1B0A090807060B3
:1017B0005040302010F1E1D1C1B1C0B0A090807094
:1017C000605040302010F1E1D1C1D0C0B0A0908075
:1017D00070605040302010F1E1D1E0D0C0B0A09056
:1017E0008070605040302010F1E1F0E0D0C0B0A037
:1017F000908070605040302010F1901A0D782011C8
:101800007AE520B4550AA3117AE520B4AA02801320
:101810007568A57569F1120F7811417568007569D1
:1018200000801D901A0378807B0A117AA308DBFAE6
:10183000901A0F788C7B1A117AA308DBFA901A2978
:1018400022C2AF11BD119A901A007410117FA374B7
:101850004E117FA37421117F901A0378807B0A11A7
:101860007EA308DBFA901A0F788C7B1A117EA308EE
:10187000DBFA11D011AE901A2922E493F622E64346
:101880008F01538FFDFFC3E583941C400122EF8538
:1018900068B78569B7F0538FFE22438F02438F01EB
:1018A0008568B78569B7901A0DF0538FFC22901A9E
:1018B0000D7455117F901A0E74AA117F227A307917
:1018C000D07820901A40117AE520F709A3DAF722A0
:1018D0007A3079D0901A40E7117F09A3DAF9227C97
:1018E00005120711DCFB22C2AF120F05120F0B12FB
:1018F0000F11120F17120705120F05120F0B120FFF
:1019000011120F17120705120F05120F0B120F11EC
:10191000120F17D2AF22C2AF120F17120F11120FF0
:101920000B120F05120705120F17120F11120F0BD2
:10193000120F05120705120F17120F11120F0B12BB
:051940000F05D2AF22EB
:1019FD00021178104E21FFFFFFFFFFFF09FF01FFCE
:101A0D0055AA01FFFFFFFFFF03FFFFFF25D0285061
:0D1A1D0004FF02FF7AFF0701FFFF0000FF3A
:101A4000234D5F485F31302320202020202020209C
:101A500023424C48454C492445464D3842323123B7
:101A60002020202020202020202020202020202076
:101C0000C2AFC2D37597DE7597AD7581C075A90057
:101C100043FF80752438752503B1EA7529A5752A17
:101C2000F143F10853A4F7D28375D4FF75E3407DE7
:101C3000FA780379E67C10752200752300901DF771
:101C40007B06752498752501E4308310C0E0E430EC
:101C5000830AD5E0FAD0E0D5E0EF806D208308D884
:101C6000FBD9F9DCF781C9308308D8FBD9F9DCF757
:101C700081C9B1AAE493A3C39A6004DDB481C9DB2E
:101C8000DBB19C600281317B08E493FAA3B17DDB78
:101C9000F87A30B17D752200752300B19CEAFCEB27
:101CA000FDC3ED94FE400EB19C8A278B28ED30E0F9
:101CB000048A828B83B19C7AC270D8C3ED94FE6093
:101CC0001950CEBD0029EC600F7520007521FF75FD
:101CD0002900752A000200008100A827A928080908
:101CE000D804D90281ECB1A0EAF281E00D81B5C33C
:101CF000ED94035051EDA2E092007AC5C3E58294C1
:101D000000E583941C508C200010438F02438F0108
:101D10008529B7852AB7F0300027A827A928080900
:101D2000438F01538FFDD804D902A141C3E58394A9
:101D30001C4003A3A126E28529B7852AB7F0A3A1F9
:101D400026538FFC81917AC1BD030CE493A3FAB1B1
:101D500061DCF8B15981918193AA22AB23B17DEB6B
:101D6000FAEA6222752608C3E52313F523E5221358
:101D7000F52250066323A0632201D526EAB1EAB119
:101D8000EA75260AEAF4200102D283300102C283F6
:101D9000B1EAC3134002C201D526EB22B1A0EAFB8F
:101DA000208302A1A0308302A1A5752608AE24AF2E
:101DB00025C3EF13FFEE13FEB1EEB1EAC3EA133011
:101DC00083024480FA30E703632201C3E52313F55D
:101DD00023E52213F52250066323A0632201D526B2
:101DE000D9E52265236523F52222AE24AF250E0F07
:101DF000DEFEDFFCD20122424C48656C693437318B
:051E000064E8B20601D8
:00000001FF
