:020000040000FA
:060000000219FD02069E3C
:03000B0002029658
:030013000206E7FB
:03001B0002055388
:03002B000202E3EB
:03005B000206F9A1
:030073000203186D
:1000C0000406080C10182030406080A0C09000D1B9
:1000D0007301F101FE210E211E212B213B2148211C
:1000E0005B216B217E2188219821A521BB21C8217C
:1000F000DBA6F008A67408A672088572F022A6F0A6
:1001000008A67208A67308A672088572F022E57325
:10011000B5F002E574F608A674088572F022A6F020
:1001200008A67208A674088572F022A6F008A673C5
:1001300008A67208A672088572F022A6F008A673B7
:1001400008A673088572F022E573B5F002E574F62F
:1001500008A67208A673088572F022A6F008A67297
:1001600008A67208A673088572F022E573B5F0023E
:10017000E574F608A67308A672088572F022A6F048
:1001800008A674088573F022E573B5F002E574F6ED
:1001900008A673088573F022A6F008A67208A67355
:1001A000088573F022E573B5F002E574F608A672CF
:1001B00008A67208A672088572F022A6F008A67337
:1001C00008A672088573F022E573B5F002E574F6AF
:1001D00008A67208A672088573F022A6F008A67217
:1001E00008A67208A672088573F022E529A2473393
:1001F000F52875290F8075E529A24733A24633F506
:100200002875290D8066E529A24733A24633A24509
:1002100033F52875290B8054E52854F0C24C452944
:10022000C4F5287529098044E528A24813A249137A
:10023000A24A13F5287529078032E528A24813A29F
:100240004913F5287529058023E528A24813F528C8
:100250007529038017204F93204E9C204DA8204CD9
:10026000B7204BC4204AD32049DFE528C465286560
:1002700029F478D08572F023541E11CDE52823543B
:100280001E11CDE528C423541E11CDE52923541E8B
:1002900011CDA6F008220540203B0132C0D0C0E0BD
:1002A00075D01018B8CF3320810BD28185728A089F
:1002B000D0E0D0D03275A4F8D281C23B758E0C75D7
:1002C00089AAC2A9C289C28B758A00758C00758201
:1002D00000D2A8D2AAD0E0D0D032B281868AD0E0B3
:1002E000D0D032C0D0C0E0C2CF0541E5676009E59B
:1002F000666005756600801B756601E52360021562
:1003000023C3E554600575550080080555E5557013
:10031000021555D0E0D0D032C2AF53E67F7592FAC5
:100320007593FFC22053917FD2AF32C0D075D010E9
:10033000E52C7004E52B601EE52BA26013F528A2C6
:1003400061132528F528E52C03C2E7F52903C2E748
:100350003529F52980067528FF7529FF5155C28D6D
:10036000758A86758E097589A2D23BD2A9D281750C
:10037000A4FAD0D032758200752800752900752A3C
:1003800000780075F000E0C0E0C395F0D0F028C31D
:10039000956B78004007D24B956C4001F80582E0E0
:1003A000C0E0C395F0D0F028C3956B78004007D229
:1003B0004A956C4001F80582E0C0E0C395F0D0F0AA
:1003C00028C3956B78004007D249956C4001F80529
:1003D00082E0C0E0C395F0D0F028C3956B78004070
:1003E00007D248956C4001F80582E0C0E0C395F063
:1003F000D0F028C3956B78004007D247956C400138
:10040000F80582E0C0E0C395F0D0F028C3956B7882
:10041000004007D246956C4001F80582E0C0E0C379
:1004200095F0D0F028C3956B78004007D245956CC5
:100430004001F80582E0C0E0C395F0D0F028C395F4
:100440006B78004007D244956C4001F80582E0C00B
:10045000E0C395F0D0F028C3956B78004007D243F5
:10046000956C4001F80582E0C0E0C395F0D0F0281B
:10047000C3956B78004007D242956C4001F8058225
:10048000E0C0E0C395F0D0F028C3956B780040073A
:10049000D241956C4001F80582E0C0E0C395F0D0F0
:1004A000F028C3956B78004007D240956C4001F866
:1004B0000582E0C0E0C395F0D0F028C3956B7800CA
:1004C0004007D253956C4001F80582E0C0E0C39527
:1004D000F0D0F028C3956B78004007D252956C405D
:1004E00001F80582E0C0E0C395F0D0F028C3956B19
:1004F00078004007D251956C4001F80582E0C0E0D9
:10050000C395F0D0F028C3956B78004007D2509582
:100510006C4001F80582E528C4652865293037015B
:10052000F4652A540F22900000D2A8D2AA0522E531
:1005300022700215220522E52270021522C3E5224F
:1005400094324005755400A14C75230AD0F0D0E0D8
:10055000D0D032C2AFC2A8C28EC0D0C0E0C0F07549
:10056000D008C2CAA8CCA9CDD2CAD2AF758A00C35E
:10057000E8956EF8E9956FF9E970ABE8957040A6DB
:10058000957150A2E582B4109D71757099A928E506
:1005900028C39460FAE5299400FB50177B007A0089
:1005A000E96010C313500CB5520405538005F55291
:1005B000755300303702712B303A27C3EA94D0F8D4
:1005C000EB9407F9400BE8FAE9FB203509D235A195
:1005D000D6303502C235203902B235C3EA33FAEBE0
:1005E00033FBEB2B3B3BF9C3EB13FBEA13FAEA2992
:1005F000FAEB3400FB30E3047AFF7BFFE52554037C
:10060000601B202A18E55E33F9EB7007C3E99A40B6
:1006100002E9FAE53CC4332AFAEB3400FBC3EA33BF
:10062000C4540FF8EB33C454F048F87005EA600284
:100630007801E52260021522D2308854E554600327
:10064000755500AC5CC3E55C955D4002AC5DC3ECE8
:1006500095545008EC75F008A4FAABF08A5A535A36
:1006600007EB131392D5A2E7F45401F9EA13A2D5CC
:1006700013F4F8C3E89405FAE99400FB50047A00F7
:100680007B00885689578A588B5975230A2037076B
:10069000900000D2A8D2AAD0F0D0E0D0D032C0D002
:1006A000C0E0E58AF00582856D8BD0E0D0D0323095
:1006B0008120F00582856D8BD0E0D0D032F00582AC
:1006C0002081FDE58AF00582856D8BD0E0D0D0C217
:1006D0008932F005823081FDE58AF00582856D8BD7
:1006E000D0E0D0D0C28932C2AA856D8BD28EC2CA68
:1006F00085CC6E85CD6FD2CA3253E6EF3279018058
:100700001479038010790A800C791E80087964803E
:100710000479C880007817E4D5E0FDD8FAD9F6222C
:1007200078FF20282879A1E76023E548601F74FF3F
:100730008548F084853FF030290375F005A4F8C59D
:10074000F0600278FFC3E8955E5002A85E885D22E3
:10075000C3E54794A0E5489400E55D50031480018B
:10076000046002F55D2275E89022055FC3E55F94A1
:1007700008405330EDF4A8BDA9BE755F00E9FA79D1
:10078000A0E76041EA7006E5606018800CC3E89558
:1007900060600EE5605005600A1480070460FA800E
:1007A00002E560F560C3956A401B755CC0C39404A4
:1007B0004013755C80C39404400B755C40C3940483
:1007C0004003755C0022E55C2410500274FFF55C68
:1007D00022743279A687F0A4C5F0A2F733F55E2221
:1007E0007547007548F022C2AFC2CAA8CCA9CDAAED
:1007F0004130CF010AD2CAD2AFC3EA13FAE913F9E2
:10080000E813F8AB42AC4388428943C3E89BF8E95C
:100810009C20280A547FF9302C0221048040AD44EA
:100820008A44F9EA9D547FFA600678FF79FF8013C5
:10083000AE45AF468B458C46A842A943C3E89EF817
:10084000E99FF9C3E54813FBE54713FAE82AF547A2
:10085000E93BF54850087547FF7548FF804DAA47AA
:10086000AB48AC47AD487E047F02C3EB9404400D17
:100870001E1FC3EB940840052029021E1FC3ED1361
:10088000FDEC13FCDEF7C3EA9CFAEB9DFBEF60097D
:10089000C3E913F9E813F8DFF7EA28FAEB39FB8A22
:1008A000478B4850067BFF8B478B48C3EB94025025
:1008B00002D22C3028047F03801C7892E6FFC3E527
:1008C0003D948240110FC3E53D94A040010FC3EF5A
:1008D000940640027F057E02E548C4540FF9E548BE
:1008E000C454F0F8E547C4540F28F8C3E89EFAE969
:1008F0009400FB400AC3EA9401EB94004001227A81
:1009000001E4FB22AA47AB48EBC4FEEAC4540F4EF5
:10091000FCC3EA9CFAEB9400FBC3E813C313F8EAA8
:1009200028FAEB3400FB8A478B48C3EB9402400261
:10093000C22C7802EBC4FE7B00EAC4540F4EFAC30B
:10094000EA98FA4005C3940150027A017892E6FFD2
:1009500022C2AF85472B85482CD2AF302002215BC5
:10096000854E92854F93D22043E68022C3E49AF8C5
:10097000E49BF9C3E833F8E933F9302C030209F1B9
:10098000E8FAE9FBD3E913FDE813FC884E894FC36D
:10099000EF94036038EF20E00CE82CF8E93DF9EC27
:1009A000FAEDFB8013E828F8E939F9C3E82401F8E7
:1009B000E93400F97AFF7BFFC3EF9403400F8A50BC
:1009C0008B51884A894B8C4C8D4D020A2688508960
:1009D000518A4A8B4B8C4C8D4D3028127550F075D6
:1009E00051FF754CF0754DFF754EF0754FFF020AC3
:1009F00026E8FAD3E813FC884EC3EF94036021EF96
:100A000020E007E82CF8ECFA4111E8282401F87AF4
:100A1000FFC3EF940340098A50884A8C4C020A268F
:100A200088508A4A8C4C3020024126753A02D220E6
:100A300043E680E5255403602DA847A948C3E91380
:100A4000F9E813F8302804E92440F9C2AF53E67FEF
:100A5000759100C3E498F594E499F595759104D2E5
:100A60002043E680D2AF22D22175490075200030A4
:100A70002B037520404185D22175490075204030F7
:100A80002B0375200078017901202C20E5255403E3
:100A90006002C2217914E548C313700104F8C394BD
:100AA0001440027814302804781B791BC3E833F80B
:100AB000C3E933F9202010E549600C302803D53A0A
:100AC00004D2226138512E0549E5BF5440B52002B9
:100AD000612230280908C3E89940011841B4202157
:100AE0000A08C3E8994002418541B4C22153E67F18
:100AF000759100302C117594007595F0759104D2A4
:100B00002043E680020A85E5487EFFC3334009C3DF
:100B1000334005C3334001FEC3E49E759400F59550
:100B200041FCC3E5399401500241853021024185E1
:100B3000D802613641B4C222C2AF53E67F7591003C
:100B4000855094855195759104854A92854B93D231
:100B50002043E680D2AFE525540360072029020533
:100B600039801030220D202B0A2021071581158194
:100B700002178B2278003021027801E53D75F007DD
:100B8000A4F9E5F028F5F0E9A2F013A2F113A2F21E
:100B900013F53DC394785003753D78C3E53D953E0C
:100BA000400CC285C286C28775D4FF75D507302038
:100BB0000261AE854C92854D93D22043E68022E5BA
:100BC0005B455A71E5F55B43560130E006535BFE29
:100BD0005356FE228322010203040D090508040D69
:100BE000090C08040D8322010203040506070839D5
:100BF0003129211911091008393129211911181029
:100C000008393129211920181008393129212820C3
:100C10001810083931293028201810083931383097
:100C200028201810083971BF20383EC2AFC291C2C7
:100C30009275D8008558F98559FA53F77F8556FB88
:100C40008557FC8558E98559EA43F7808556FB8529
:100C500057FC8558E98559EA75D47F75D50375D851
:100C600040D290D2AF75AA5322C2AFC290C2917542
:100C7000D8008558F98559FA53F77F8556FB855773
:100C8000FC8558E98559EA43F7808556FB8557FC72
:100C90008558E98559EA75D4DF75D50675D840D2EF
:100CA00092D2AF75AA532271BF20383EC2AFC29113
:100CB000C29275D8008558F98559FA53F77F855641
:100CC000FB8557FC8558E98559EA43F7808556FB33
:100CD0008557FC8558E98559EA75D4BF75D50575E2
:100CE000D840D290D2AF75AA4322C2AFC290C2916F
:100CF00075D8008558F98559FA53F77F8556FB85D5
:100D000057FC8558E98559EA43F7808556FB855796
:100D1000FC8558E98559EA75D4BF75D50575D84065
:100D2000D292D2AF75AA632271BF20383EC2AFC241
:100D300090C29175D8008558F98559FA53F77F8587
:100D400056FB8557FC8558E98559EA43F780855657
:100D5000FB8557FC8558E98559EA75D4BF75D505DB
:100D600075D840D292D2AF75AA6322C2AFC291C2E7
:100D70009275D8008558F98559FA53F77F8556FB47
:100D80008557FC8558E98559EA43F7808556FB85E8
:100D900057FC8558E98559EA75D4BF75D50575D8CE
:100DA00040D290D2AF75AA432271BF20383EC2AF65
:100DB000C290C29175D8008558F98559FA53F77FCA
:100DC0008556FB8557FC8558E98559EA43F78085A8
:100DD00056FB8557FC8558E98559EA75D4DF75D5EA
:100DE0000675D840D292D2AF75AA5322C2AFC29133
:100DF000C29275D8008558F98559FA53F77F855600
:100E0000FB8557FC8558E98559EA43F7808556FBF1
:100E10008557FC8558E98559EA75D47F75D50375E2
:100E2000D840D290D2AF75AA532271BF20383EC2AB
:100E3000AFC290C29275D8008558F98559FA53F718
:100E40007F8556FB8557FC8558E98559EA43F7802D
:100E50008556FB8557FC8558E98559EA75D4DF75B9
:100E6000D50675D840D291D2AF75AA4322C2AFC27F
:100E700090C29275D8008558F98559FA53F77F8545
:100E800056FB8557FC8558E98559EA43F780855616
:100E9000FB8557FC8558E98559EA75D47F75D503DC
:100EA00075D840D291D2AF75AA632271BF20383E67
:100EB000C2AFC290C29275D8008558F98559FA53CD
:100EC000F77F8556FB8557FC8558E98559EA43F736
:100ED000808556FB8557FC8558E98559EA75D47F8E
:100EE00075D50375D840D291D2AF75AA6322C2AF2F
:100EF000C290C29275D8008558F98559FA53F77F88
:100F00008556FB8557FC8558E98559EA43F7808566
:100F100056FB8557FC8558E98559EA75D4DF75D5A8
:100F20000675D840D291D2AF75AA43227A147B7845
:100F300080127A107B8C800C7A0D7BB480067A0B41
:100F40007BC88000E565D5E001227902E4C291D535
:100F5000E0FDD286D5E0FDC286D5E0FDD291D5E098
:100F6000FDE920E002D28530E002D287E565D5E0D8
:100F7000FDE920E002C28530E002C2877496D5E028
:100F8000FDD9C9EAF8D5E0FDD8FBDBB8C29122C291
:100F900085C286C287C290C291C29275D4FF75D5B0
:100FA0000722788076FF0876FF0876FF0876FF082C
:100FB00076FF0876FF0876090876FF087601788CB8
:100FC00076010876FF0876FF0876FF0876FF087638
:100FD000FF0876030876FF0876FF0876FF08762577
:100FE0000876D00876280876500876040876FF0838
:100FF00076020876FF08767A0876FF087607087684
:10100000010876FF0876FF08760008760022FA7558
:10101000F00CA4ABF0EAC333F8740133F9E8C3333E
:10102000F8E933F9E8C32BF8E93400F9E8C333F8F9
:10103000E933F9227888E6C39403D23A5002C23ADF
:10104000C238E630E102D238A23892397886E61406
:101050009000C09378A6F67886E6F53FC3940250D8
:1010600003753F02789CE6753EFFB40203753EA00F
:10107000B40303753E8278A0E6F86006742824095C
:10108000D8FCF56A7896E6110E88318932789EE6AA
:10109000110E883389347897E6110E883589361217
:1010A0000F8F223036117A007B007CFF7D007E009E
:1010B00031098B628A6122303A227896E6FA7B0007
:1010C000789EE6FC7D00C3EA33FAEB33FBC3EC33D6
:1010D000FCED33FD7E0A31098B648A637896303AE1
:1010E00002789EE6FA7B007897E6FC7D007E003071
:1010F0003A10C3EA33FAEB33FBC3EC33FCED33FDB8
:101100007E0A31098B628A6122C3EC9EFCED940059
:10111000FDC3EC9AFCED9BFDC3EC9423ED940050D1
:10112000047C237D00C3EC94FFED940140047CFF1C
:101130007D017BFF0B7A000AEA7009C3EC33FCEDFA
:1011400033FD80F0EC8AF0A4AEF0ED8AF0A42E948A
:101150007C40E4EAF460DD22D23611A312070912C2
:1011600007097A007B007C10120701E5542AFA7403
:10117000003BFBDCF37C04C3EB13FBEA13FADCF764
:10118000FFEB60027FFFC23611A32278A5E6F95477
:1011900003D2837002C283E9540CD2847002C284E9
:1011A000E954307000E954C0700022758851758E82
:1011B0000C7589AA758C00758D00758E0C756D3C4B
:1011C000756B20756C1E303703756C1B75704E7512
:1011D00071437572FF7573EC7574DD2275885175F6
:1011E0008E0C7589AA758C00758D00758E0C756DC9
:1011F00000756B40756C3C303703756C3675709DAF
:101200007571877572EC7573CB7574AB22741E2083
:101210008115C0D0C0E0740AD5E0FDD0E0D0D02068
:1012200081EBD5E0EDC322C0D0C0E0740AD5E0FD6B
:10123000D0E0D0D03081D6D5E0EDD32275680075EE
:1012400069007597DE7597AD7581AF43FF8075EFC7
:101250000675A900120F8F75800275F1FF75A4F84D
:1012600075800275D4FF75900075F20775A5077536
:10127000900075D50775A60175E34075E202120F5F
:101280008FE4F8F6D8FD120FA21218C07898866580
:10129000753001C2AF120711120F2C120709120F7D
:1012A00032120709120F38120709318BC2AF756865
:1012B0000075690078FA79FA308116D9FBD8F7758C
:1012C000A91375A71075C10075A700756700021CEA
:1012D00000113411A378988665120F8F75A71075C9
:1012E000C13075A70075A90375670175C8047591AC
:1012F0000475D84075D90875F781759E03755B2014
:1013000075960275DA4275DB4275A82375E680751D
:10131000B80375BF8075AB0075D10C75BCB975BBD2
:101320001075E88075B2011206FD753C00C23012DE
:101330000711C231C232C233C23475520075530034
:10134000D234510D9237C23B752B00752C0075E4D9
:101350009130370375E41931ABC2A9D2ABD2AAD20E
:10136000AF75223212070D755200755300C3E52286
:101370009402401731DC75223212070D7552007548
:101380005300C3E5229402400241AC120701203011
:101390000241ACE554600241ACC2AF120F2C120FF7
:1013A0002C120F2CD2AF120711756800756900124C
:1013B000070DE554600241ACC2AF120F3E120F3E62
:1013C000120F3ED2AF120711753000752B00752C2D
:1013D00000E4F537F5380537E537F4703F05387820
:1013E0009AE67819146012783214600D787D1460D2
:1013F0000878FA146003753800C3E53898401D1268
:101400000F8F1206FD153875370078998665C2AFC3
:10141000120F3ED2AF7898866512070D120705E5C8
:1014200023700241ACC3E5549401500AC3E55294C1
:101430000150160213D612070DE52370030212ACF9
:101440007552007553000215ECC3E55294017017F4
:10145000C2AF120F8F78998665120F2C7898866527
:10146000D2AF12070DA1DEC3E55294027017C2AFCE
:10147000120F8F78998665120F3278988665D2AFF1
:1014800012070DA1DEC3E55294037017C2AF120F0D
:101490008F78998665120F3878988665D2AF1207D3
:1014A0000DA1DEC3E55294047017C2AF120F8F78FE
:1014B000998665120F3E78988665D2AF12070DA106
:1014C000DEC3E55294057017C2AF120F8F7899866C
:1014D00065120F3E78988665D2AF12070DA1DEC364
:1014E000E55294077019C3E55394065002812574A0
:1014F00001303A0274037888F6C238C239A1DEC3DB
:10150000E55294087019C3E553940650028125747E
:1015100002303A0274047888F6D238D239A1DEC398
:10152000E55294097017C3E55394065002812530A3
:101530003A0BC37888E69402F6C23AA1DEC3E552BC
:10154000940A7016C3E553940650028125203A0A86
:101550007888E62402F6D23AA1DEC3E552941470EC
:1015600025C3E553940650028125C2AF901A0B742F
:101570000093D2AF7888F613C238C2394002D2380D
:101580004002D2398058C3E55294157038C3E553F0
:1015900094064050C2AF901A0B740093D2AFF8B8C3
:1015A00001027402B802027401B803027404B804A0
:1015B0000274037888F613C238C2394002D2384028
:1015C00002D2398019C3E552940C70127568A57562
:1015D00069F1C3E5539406400B121907D2AF755257
:1015E000007553007568007569008125C2AF120F40
:1015F0008FE4D2AFE4F55FF524F525F53D755F087E
:101600001206FD12076630EDFDA8BDA9BEE9700106
:10161000F8886012076A755F08C2AF1207D1855E4D
:101620005C855E5DD2AF75A71075C13075A700757A
:10163000A903756701303A07C238303502D238D273
:1016400028753900120E2A120EAB1207E01207E7B6
:1016500012095112096C1207E01207E71209511220
:10166000096C1207E0120A77120B74120C2612078B
:10167000E712095112096C120A67202C0312072085
:10168000302C03120750120B74120CA71207E7122A
:10169000095112096C120A77120B74120D281207E5
:1016A000E712095112096C120A67120B74120DA984
:1016B0001207E712095112096C120A77120B741201
:1016C0000E2A1207E712095112096C120766120A54
:1016D00067120B74120EAB12076A1207E712095158
:1016E00012096C302827855E5C79187A0CC3E539BD
:1016F00099400EC228D2298A3B855E5C855E5D805A
:101700000CC3E55494014003021665E19330291F90
:10171000202B1CE53B147006C229D22AC165F53B7B
:10172000203A07C3E55494014003021665806475AE
:101730003C00203A0F78FA79A4E760027803C3E509
:101740005598504FE523604B303A17203805203527
:1017500007800F303502800A202B07D22B855E5C74
:10176000C1A778F0302B05855E5C7820C3E54898EA
:101770005003021665302B1BC22BC238303502D203
:1017800038D229753B12855E5CC165053CE5546025
:1017900002E196753C00C2AF120F8F752500D2AFE3
:1017A00012070D120F8F75240078A4E66006D29000
:1017B000D291D292C3E53C9404400241AC61CB8308
:1017C000220102030405060708090A0B0C0D0E0F7F
:1017D00010F1E1D1C1B1A19181716151413121116A
:1017E0002010F1E1D1C1B1A191817161514131214B
:1017F000302010F1E1D1C1B1A1918171615141312C
:1018000040302010F1E1D1C1B1A19181716151410C
:101810005040302010F1E1D1C1B1A19181716151ED
:10182000605040302010F1E1D1C1B1A191817161CE
:1018300070605040302010F1E1D1C1B1A1918171AF
:101840008070605040302010F1E1D1C1B1A1918190
:10185000908070605040302010F1E1D1C1B1A19171
:10186000A0908070605040302010F1E1D1C1B1A152
:10187000B0A0908070605040302010F1E1D1C1B133
:10188000C0B0A0908070605040302010F1E1D1C114
:10189000D0C0B0A0908070605040302010F1E1D1F5
:1018A000E0D0C0B0A0908070605040302010F1E1D6
:1018B000F0E0D0C0B0A0908070605040302010F1B7
:1018C000901A0D78203140E520B4550AA33140E547
:1018D00020B4AA0280137568A57569F1120FA231B0
:1018E00007756800756900801D901A0378807B0A6F
:1018F0003140A308DBFA901A0F788C7B1A3140A391
:1019000008DBFA901A2922C2AF31833160901A00A5
:1019100074103145A3744E3145A374213145901A9A
:101920000378807B0A3144A308DBFA901A0F788C85
:101930007B1A3144A308DBFA31963174901A2922BC
:10194000E493F622E6438F01538FFDFFC3E58394B2
:101950001C400122EF8568B78569B7F0538FFE22DE
:10196000438F02438F018568B78569B7901A0DF0E0
:10197000538FFC22901A0D74553145901A0E74AA9B
:101980003145227A3079D07820901A403140E520D4
:10199000F709A3DAF7227A3079D0901A40E7314577
:1019A00009A3DAF9227C05120711DCFB22C2AF126F
:1019B0000F2C120F32120F38120F3E120705120FA2
:1019C0002C120F32120F38120F3E120705120F2C75
:1019D000120F32120F38120F3ED2AF22C2AF120FC7
:1019E0003E120F38120F32120F2C120705120F3E43
:1019F000120F38120F32120F2C1207051202123C6E
:101A00000F38120F32120F2CD2AF2201FF55AA014C
:101A1000FFFFFFFFFF03FFFFFF25D0285004FF0259
:0A1A2000FF7AFF0701FFFF0000FF3F
:101A400023515F485F303523202020202020202094
:101A500023424C48454C492445464D3842323123B7
:101A60002020202020202020202020202020202076
:101C0000C2AFC2D37597DE7597AD7581C075A90057
:101C100043FF80752438752503B1EA7529A5752A17
:101C2000F143F10253A4FDD28175D4FF75E3407DE9
:101C3000FA780379E67C10752200752300901DF771
:101C40007B06752498752501E4308110C0E0E430EE
:101C5000810AD5E0FAD0E0D5E0EF806D208108D888
:101C6000FBD9F9DCF781C9308108D8FBD9F9DCF759
:101C700081C9B1AAE493A3C39A6004DDB481C9DB2E
:101C8000DBB19C600281317B08E493FAA3B17DDB78
:101C9000F87A30B17D752200752300B19CEAFCEB27
:101CA000FDC3ED94FE400EB19C8A278B28ED30E0F9
:101CB000048A828B83B19C7AC270D8C3ED94FE6093
:101CC0001950CEBD0029EC600F7520007521FF75FD
:101CD0002900752A000200008100A827A928080908
:101CE000D804D90281ECB1A0EAF281E00D81B5C33C
:101CF000ED94035051EDA2E092007AC5C3E58294C1
:101D000000E583941C508C200010438F02438F0108
:101D10008529B7852AB7F0300027A827A928080900
:101D2000438F01538FFDD804D902A141C3E58394A9
:101D30001C4003A3A126E28529B7852AB7F0A3A1F9
:101D400026538FFC81917AC1BD030CE493A3FAB1B1
:101D500061DCF8B15981918193AA22AB23B17DEB6B
:101D6000FAEA6222752608C3E52313F523E5221358
:101D7000F52250066323A0632201D526EAB1EAB119
:101D8000EA75260AEAF4200102D281300102C281FA
:101D9000B1EAC3134002C201D526EB22B1A0EAFB8F
:101DA000208102A1A0308102A1A5752608AE24AF32
:101DB00025C3EF13FFEE13FEB1EEB1EAC3EA133011
:101DC00081024480FA30E703632201C3E52313F55F
:101DD00023E52213F52250066323A0632201D526B2
:101DE000D9E52265236523F52222AE24AF250E0F07
:101DF000DEFEDFFCD20122424C48656C693437318B
:051E000064E8B20601D8
:00000001FF
