:020000040000FA
:060000000219FD02069149
:03000B0002029658
:030013000206DA08
:03001B0002055388
:03002B000202E3EB
:03005B000206ECAE
:030073000203186D
:1000C0000406080C10182030406080A0C09000D1B9
:1000D0007301F101FE210E211E212B213B2148211C
:1000E0005B216B217E2188219821A521BB21C8217C
:1000F000DBA6F008A67208A670088570F022A6F0AC
:1001000008A67008A67108A670088570F022E5712F
:10011000B5F002E572F608A672088570F022A6F026
:1001200008A67008A672088570F022A6F008A671CD
:1001300008A67008A670088570F022A6F008A671BF
:1001400008A671088570F022E571B5F002E572F637
:1001500008A67008A671088570F022A6F008A6709F
:1001600008A67008A671088570F022E571B5F00246
:10017000E572F608A67108A670088570F022A6F050
:1001800008A672088571F022E571B5F002E572F6F5
:1001900008A671088571F022A6F008A67008A6715D
:1001A000088571F022E571B5F002E572F608A670D7
:1001B00008A67008A670088570F022A6F008A6713F
:1001C00008A670088571F022E571B5F002E572F6B7
:1001D00008A67008A670088571F022A6F008A6701F
:1001E00008A67008A670088571F022E529A2473399
:1001F000F52875290F8075E529A24733A24633F506
:100200002875290D8066E529A24733A24633A24509
:1002100033F52875290B8054E52854F0C24C452944
:10022000C4F5287529098044E528A24813A249137A
:10023000A24A13F5287529078032E528A24813A29F
:100240004913F5287529058023E528A24813F528C8
:100250007529038017204F93204E9C204DA8204CD9
:10026000B7204BC4204AD32049DFE528C465286560
:1002700029F478D08570F023541E11CDE52823543D
:100280001E11CDE528C423541E11CDE52923541E8B
:1002900011CDA6F008220540203B0132C0D0C0E0BD
:1002A00075D01018B8CF3320830BD28385708A089D
:1002B000D0E0D0D03275A407D283C23B758E0C75C6
:1002C00089AAC2A9C289C28B758A00758C00758201
:1002D00000D2A8D2AAD0E0D0D032B283868AD0E0B1
:1002E000D0D032C0D0C0E0C2CF0541E5656009E59D
:1002F000646005756400801B756401E52360021568
:1003000023C3E554600575550080080555E5557013
:10031000021555D0E0D0D032C2AF53E67F7592FAC5
:100320007593FFC22053917FD2AF32C0D075D010E9
:10033000E52C7004E52B601EE52BA26013F528A2C6
:1003400061132528F528E52C03C2E7F52903C2E748
:100350003529F52980067528FF7529FF5155C28D6D
:10036000758A86758E097589A2D23BD2A9D283750A
:10037000A40FD0D032758200752800752900752A27
:1003800000780075F000E0C0E0C395F0D0F028C31D
:10039000956978004007D24B956A4001F80582E0E4
:1003A000C0E0C395F0D0F028C3956978004007D22B
:1003B0004A956A4001F80582E0C0E0C395F0D0F0AC
:1003C00028C3956978004007D249956A4001F8052D
:1003D00082E0C0E0C395F0D0F028C3956978004072
:1003E00007D248956A4001F80582E0C0E0C395F065
:1003F000D0F028C3956978004007D247956A40013C
:10040000F80582E0C0E0C395F0D0F028C395697884
:10041000004007D246956A4001F80582E0C0E0C37B
:1004200095F0D0F028C3956978004007D245956AC9
:100430004001F80582E0C0E0C395F0D0F028C395F4
:100440006978004007D244956A4001F80582E0C00F
:10045000E0C395F0D0F028C3956978004007D243F7
:10046000956A4001F80582E0C0E0C395F0D0F0281D
:10047000C3956978004007D242956A4001F8058229
:10048000E0C0E0C395F0D0F028C39569780040073C
:10049000D241956A4001F80582E0C0E0C395F0D0F2
:1004A000F028C3956978004007D240956A4001F86A
:1004B0000582E0C0E0C395F0D0F028C395697800CC
:1004C0004007D253956A4001F80582E0C0E0C39529
:1004D000F0D0F028C3956978004007D252956A4061
:1004E00001F80582E0C0E0C395F0D0F028C395691B
:1004F00078004007D251956A4001F80582E0C0E0DB
:10050000C395F0D0F028C3956978004007D2509584
:100510006A4001F80582E528C4652865293037015D
:10052000F4652A540F22900000D2A8D2AA0522E531
:1005300022700215220522E52270021522C3E5224F
:1005400094324005755400A14C75230AD0F0D0E0D8
:10055000D0D032C2AFC2A8C28EC0D0C0E0C0F07549
:10056000D008C2CAA8CCA9CDD2CAD2AF758A00C35E
:10057000E8956CF8E9956DF9E970ABE8956E40A6E1
:10058000956F50A2E582B4109D71757099A928E508
:1005900028C39460FAE5299400FB50177B007A0089
:1005A000E96010C313500CB5520405538005F55291
:1005B000755300303702712B303A27C3EA94D0F8D4
:1005C000EB9407F9400BE8FAE9FB203509D235A195
:1005D000D6303502C235203902B235C3EA33FAEBE0
:1005E00033FBEB2B3B3BF9C3EB13FBEA13FAEA2992
:1005F000FAEB3400FB30E3047AFF7BFFE52554037C
:10060000601B202A18E55C33F9EB7007C3E99A40B8
:1006100002E9FAE53CC4332AFAEB3400FBC3EA33BF
:10062000C4540FF8EB33C454F048F87005EA600284
:100630007801E52260021522D2308854E554600327
:10064000755500AC5AC3E55A955B4002AC5BC3ECF0
:1006500095545008EC75F008A4FAABF0EB13F45481
:1006600003F9EA13F4F8C3E89419FAE99400FB508B
:10067000047A007B00885689578A588B5975230A5B
:10068000203707900000D2A8D2AAD0F0D0E0D0D076
:1006900032C0D0C0E0E58AF00582856B8BD0E0D017
:1006A000D032308320F00582856B8BD0E0D0D03201
:1006B000F005822083FDE58AF00582856B8BD0E012
:1006C000D0D0C28932F005823083FDE58AF0058200
:1006D000856B8BD0E0D0D0C28932C2AA856B8BD219
:1006E0008EC2CA85CC6C85CD6DD2CA3253E6EF324C
:1006F0007901801479038010790A800C791E8008B2
:100700007964800479C880007817E4D5E0FDD8FAD0
:10071000D9F62278FF20282879A1E76023E54860F0
:100720001F74FF8548F084853FF030290375F0057C
:10073000A4F8C5F0600278FFC3E8955C5002A85C9D
:10074000885B22C3E54794A0E5489400E55B50032D
:10075000148001046002F55B2275E89022055DC3F8
:10076000E55D9408405330EDF4A8BDA9BE755D0069
:10077000E9FA79A0E76041EA7006E55E6018800C4E
:10078000C3E8955E600EE55E5005600A14800704BC
:1007900060FA8002E55EF55EC39568401B755AC03D
:1007A000C394044013755A80C39404400B755A4097
:1007B000C394044003755A0022E55A241050027471
:1007C000FFF55A22743279A687F0A4C5F0A2F73358
:1007D000F55C227547007548F022C2AFC2CAA8CCAA
:1007E000A9CDAA4130CF010AD2CAD2AFC3EA13FAC7
:1007F000E913F9E813F8AB42AC4388428943C3E8F4
:100800009BF8E99C20280A547FF9302C0201F880DB
:1008100040AD448A44F9EA9D547FFA600678FF7936
:10082000FF8013AE45AF468B458C46A842A943C313
:10083000E89EF8E99FF9C3E54813FBE54713FAE89A
:100840002AF547E93BF54850087547FF7548FF8092
:100850004DAA47AB48AC47AD487E047F02C3EB943A
:1008600004400D1E1FC3EB940840052029021E1FE3
:10087000C3ED13FDEC13FCDEF7C3EA9CFAEB9DFB22
:10088000EF6009C3E913F9E813F8DFF7EA28FAEB98
:1008900039FB8A478B4850067BFF8B478B48C3EB5D
:1008A00094025002D22C3028047F03801C7892E6F8
:1008B000FFC3E53D948240110FC3E53D94A0400184
:1008C0000FC3EF940640027F057E02E548C4540F33
:1008D000F9E548C454F0F8E547C4540F28F8C3E8D4
:1008E0009EFAE99400FB4009C3EA9401EB9400509E
:1008F000047A01E4FB020944AA47AB48EBC4FEEAD0
:10090000C4540F4EFCC3EA9CFAEB9400FBC3E813FB
:10091000C313F8EA28FAEB3400FB8A478B48C3EB91
:1009200094024002C22C7802EBC4FE7B00EAC4545D
:100930000F4EFAC3EA98FA4005C3940150027A01B7
:100940007892E6FFC2AF85472B85482CD2AF302086
:10095000022144854E92854F93D22043E680C3E422
:100960009AF8E49BF9C3E833F8E933F9302C030231
:1009700009E3E8FAE9FBD3E913FDE813FC884E89A3
:100980004FC3EF94036038EF20E00CE82CF8E93D0A
:10099000F9ECFAEDFB8013E828F8E939F9C3E8240B
:1009A00001F8E93400F97AFF7BFFC3EF9403400FAD
:1009B0008A508B51884A894B8C4C8D4D020A18887D
:1009C0005089518A4A8B4B8C4C8D4D302812755072
:1009D000F07551FF754CF0754DFF754EF0754FFF7A
:1009E000020A18E8FAD3E813FC884EC3EF940360B8
:1009F00021EF20E007E82CF8ECFA4103E828240175
:100A0000F87AFFC3EF940340098A50884A8C4C025D
:100A10000A1888508A4A8C4C3020024118753A02D4
:100A2000D22043E680E5255403602DA847A948C39A
:100A3000E913F9E813F8302804E92440F9C2AF5368
:100A4000E67F759100C3E498F594E499F595759166
:100A500004D22043E680D2AF22D22175490075200E
:100A600000302B037520404177D221754900752055
:100A700040302B0375200078017901202C20E525DA
:100A800054036002C2217914E548C313700104F8CD
:100A9000C3941440027814302804781B791BC3E8EF
:100AA00033F8C3E933F9202010E549600C302803FE
:100AB000D53A04D222612A51200549E59B5440B51C
:100AC0002002611430280908C3E89940011841A6A2
:100AD00020210A08C3E8994002417741A6C2215368
:100AE000E67F759100302C117594007595F0759125
:100AF00004D22043E680020A77E5487EFFC33340F4
:100B000009C3334005C3334001FEC3E49E7594001E
:100B1000F59541EEC3E53994015002417730210249
:100B20004177D802612841A6C222C2AF53E67F7541
:100B30009100855094855195759104854A92854B15
:100B400093D22043E680D2AFE525540360072029E5
:100B5000020539801030220D202B0A202107158133
:100B600015810217612278003021027801E53D7578
:100B7000F007A4F9E5F028F5F0E9A2F013A2F113CB
:100B8000A2F213F53DC394785003753D78C3E53D5B
:100B9000953E4009C291C292C29375D57F30200222
:100BA000619D854C92854D93D22043E6802220386A
:100BB0003BC2AFC295C29675D8008558F98559FADF
:100BC00053F77F8556FB8557FC8558E98559EA43DD
:100BD000F7808556FB8557FC8558E98559EA75D518
:100BE0003775D840D294D2AF759F4522C2AFC29418
:100BF000C29575D8008558F98559FA53F77F8556FF
:100C0000FB8557FC8558E98559EA43F7808556FBF3
:100C10008557FC8558E98559EA75D56D75D840D258
:100C200096D2AF759F452220383BC2AFC295C2967F
:100C300075D8008558F98559FA53F77F8556FB8595
:100C400057FC8558E98559EA43F7808556FB855757
:100C5000FC8558E98559EA75D55B75D840D294D2A0
:100C6000AF759F6522C2AFC294C29575D8008558F2
:100C7000F98559FA53F77F8556FB8557FC8558E966
:100C80008559EA43F7808556FB8557FC8558E985E9
:100C900059EA75D55B75D840D296D2AF759F75224B
:100CA00020383BC2AFC294C29575D8008558F985EB
:100CB00059FA53F77F8556FB8557FC8558E98559C6
:100CC000EA43F7808556FB8557FC8558E98559EA44
:100CD00075D55B75D840D296D2AF759F7522C2AFDD
:100CE000C295C29675D8008558F98559FA53F77F91
:100CF0008556FB8557FC8558E98559EA43F7808579
:100D000056FB8557FC8558E98559EA75D55B75D83A
:100D100040D294D2AF759F652220383BC2AFC294B7
:100D2000C29575D8008558F98559FA53F77F8556CD
:100D3000FB8557FC8558E98559EA43F7808556FBC2
:100D40008557FC8558E98559EA75D56D75D840D227
:100D500096D2AF759F4522C2AFC295C29675D80094
:100D60008558F98559FA53F77F8556FB8557FC85D9
:100D700058E98559EA43F7808556FB8557FC855825
:100D8000E98559EA75D53775D840D294D2AF759FA9
:100D9000452220383BC2AFC294C29675D800855810
:100DA000F98559FA53F77F8556FB8557FC8558E935
:100DB0008559EA43F7808556FB8557FC8558E985B8
:100DC00059EA75D56D75D840D295D2AF759F652219
:100DD000C2AFC294C29675D8008558F98559FA53A6
:100DE000F77F8556FB8557FC8558E98559EA43F717
:100DF000808556FB8557FC8558E98559EA75D537B6
:100E000075D840D295D2AF759F752220383BC2AFBE
:100E1000C294C29675D8008558F98559FA53F77F60
:100E20008556FB8557FC8558E98559EA43F7808547
:100E300056FB8557FC8558E98559EA75D53775D82D
:100E400040D295D2AF759F7522C2AFC294C296753B
:100E5000D8008558F98559FA53F77F8556FB855791
:100E6000FC8558E98559EA43F7808556FB8557FC90
:100E70008558E98559EA75D56D75D840D295D2AFB8
:100E8000759F65227A147B7880127A107B8C800C97
:100E90007A0D7BB480067A0B7BC88000E563D5E0D1
:100EA00001227902E4C295D5E0FDD292D5E0FDC2DF
:100EB00092D5E0FDD295D5E0FDE920E002D2913057
:100EC000E002D293E563D5E0FDE920E002C2913073
:100ED000E002C2937496D5E0FDD9C9EAF8D5E0FDE9
:100EE000D8FBDBB8C29522C291C292C293C294C20F
:100EF00095C29675D57F22788076FF0876FF0876B2
:100F0000FF0876FF0876FF0876FF0876090876FF67
:100F1000087601788C76010876FF0876FF0876FF60
:100F20000876FF0876FF0876030876FF0876FF0844
:100F300076FF0876250876D0087628087650087659
:100F4000040876FF0876020876FF08767A0876FFAE
:100F50000876070876010876FF0876FF087600080D
:100F6000760022FA75F00CA4ABF0EAC333F87401F2
:100F700033F9E8C333F8E933F9E8C32BF8E934006F
:100F8000F9E8C333F8E933F9227888E6C39403D249
:100F90003A5002C23AC238E630E102D238A2389260
:100FA000397886E6149000C09378A6F67886E6F540
:100FB0003FC394025003753F02789CE6753EFFB430
:100FC0000203753EA0B40303753E8278A0E6F86084
:100FD0000674282409D8FCF5687896E6F163883110
:100FE0008932789EE6F163883389347897E6F16335
:100FF00088358936D1E7223036117A007B007CFFB4
:101000007D007E00115D8B608A5F22303A227896E7
:10101000E6FA7B00789EE6FC7D00C3EA33FAEB3308
:10102000FBC3EC33FCED33FD7E0A115D8B628A61FC
:101030007896303A02789EE6FA7B007897E6FC7D57
:10104000007E00303A10C3EA33FAEB33FBC3EC33D3
:10105000FCED33FD7E0A115D8B608A5F22C3EC9E3E
:10106000FCED9400FDC3EC9AFCED9BFDC3EC9423D6
:10107000ED940050047C237D00C3EC94FFED9401BB
:1010800040047CFF7D017BFF0B7A000AEA7009C3F4
:10109000EC33FCED33FD80F0EC8AF0A4AEF0ED8A89
:1010A000F0A42E947C40E4EAF460DD22D236120FE4
:1010B000F71206FC1206FC7A007B007C101206F484
:1010C000E5542AFA74003BFBDCF37C04C3EB13FB0E
:1010D000EA13FADCF7FFEB60027FFFC236120FF76C
:1010E0002278A5E6F95403C2827002D282E9540C38
:1010F000C2817002D281E95430C2807002D280E98C
:1011000054C0700022758851758E0C7589AA758C33
:1011100000758D00758E0C756B3C756920756A1EA7
:10112000303703756A1B756E4E756F437570FF75AA
:1011300071EC7572DD22758851758E0C7589AA75F2
:101140008C00758D00758E0C756B00756940756A25
:101150003C303703756A36756E9D756F877570EC18
:101160007571CB7572AB22741E208315C0D0C0E0A0
:10117000740AD5E0FDD0E0D0D02083EBD5E0EDC3FC
:1011800022C0D0C0E0740AD5E0FDD0E0D0D03083DA
:10119000D6D5E0EDD3227566007567007597DE75CC
:1011A00097AD7581AF43FF8075EF0675A900120EEC
:1011B000E77580FF75F10F75A4077580FF75D4FF83
:1011C00075900075F27E75A57E75900075D57F755A
:1011D000A60175E34075E202120EE7E4F8F6D8FDC9
:1011E000120EF7F19578988663753001C2AF120739
:1011F00004120E841206FC120E8A1206FC120E90C5
:101200001206FC11E1C2AF75660075670078FA79C5
:10121000FA308316D9FBD8F775A91375A71075C1D5
:101220000075A700756500021C00120F89120FF7E8
:1012300078988663120EE775A71075C13075A70000
:1012400075A90375650175C80475910475D8407555
:10125000D90875F782759E0375960275DA4275DBBB
:101260004275A82375E68075B803759B80759D004F
:1012700075D10C75BCB975BB1075E88075B20112DB
:1012800006F0753C00C230120704C231C232C233CC
:10129000C234755200755300D23431679237C23B65
:1012A000752B00752C0075E4B330370375E43B31C2
:1012B00005C2A9D2ABD2AAD2AF75223212070075ED
:1012C0005200755300C3E52294024017313675224F
:1012D00032120700755200755300C3E52294024094
:1012E0000241051206F42030024105E55460024136
:1012F00005C2AF120E84120E84120E84D2AF1207F2
:1013000004203403303A030213B01206F4788CE65A
:10131000C39401500261B0E530C39401500261B042
:101320007566A57567F17F02D236120FF7120700B6
:10133000C2AFC236120FF7C3E554947FD2AF4070EC
:101340001206F0C2AF120E96D2AFDFDC11ACC3EFC3
:101350007897F612070412188B7F0AD236120FF70D
:10136000120700C2AFC236120FF7C3E554947FD202
:10137000AF50E61206F0C2AF120E841206F8120E3B
:1013800084D2AFDFD611ACEF24037896F6F87997C4
:10139000E7C394234003985006E824237897F61275
:1013A0000704F1E01218BA120700120FF702120533
:1013B000756600756700120700E55460024105C2BA
:1013C000AF120E96120E96120E96D2AF1207047539
:1013D0003000752B00752C00E4F537F5380537E53E
:1013E00037F4703F0538789AE6781914601278322D
:1013F00014600D787D14600878FA14600375380065
:10140000C3E53898401D120EE71206F015387537FF
:101410000078998663C2AF120E96D2AF7898866331
:101420001207001206F8E52370024105C3E5549443
:1014300001500AC3E552940150160213DD12070051
:10144000E52370030212057552007553000215F270
:10145000C3E55294017017C2AF120EE77899866304
:10146000120E8478988663D2AF120700A1E4C3E518
:101470005294027017C2AF120EE778998663120E6B
:101480008A78988663D2AF120700A1E4C3E552942C
:10149000037017C2AF120EE778998663120E907828
:1014A000988663D2AF120700A1E4C3E5529404709A
:1014B00017C2AF120EE778998663120E9678988657
:1014C00063D2AF120700A1E4C3E55294057017C2BE
:1014D000AF120EE778998663120E9678988663D2DB
:1014E000AF120700A1E4C3E55294077019C3E55396
:1014F00094065002812C7401303A0274037888F605
:10150000C238C239A1E4C3E55294087019C3E55347
:1015100094065002812C7402303A0274047888F6E2
:10152000D238D239A1E4C3E55294097017C3E55308
:1015300094065002812C303A0BC37888E69402F668
:10154000C23AA1E4C3E552940A7016C3E553940667
:101550005002812C203A0A7888E62402F6D23AA179
:10156000E4C3E55294147025C3E5539406500281F8
:101570002CC2AF901A0B740093D2AF7888F613C2C6
:1015800038C2394002D2384002D2398057C3E552BE
:1015900094157038C3E5539406404FC2AF901A0BB0
:1015A000740093D2AFF8B801027402B80202740159
:1015B000B803027404B8040274037888F613C238BE
:1015C000C2394002D2384002D2398018C3E5529461
:1015D0000C70117566A57567F1C3E5539406400A52
:1015E000F1E0D2AF75520075530075660075670063
:1015F000812CC2AF120EE7E4D2AFE4F55DF524F51D
:1016000025F53D755D081206F012075930EDFDA86D
:10161000BDA9BEE97001F8885E12075D755D08C25C
:10162000AF1207C4855C5A855C5BD2AF75A7107595
:10163000C13075A70075A903756501303A07C23836
:10164000303502D238D228753900120D92120E0BA5
:101650001207D31207DA1207D31207DA1207D312CE
:101660000A69120B66120BAE1207DA120A59202C05
:1016700003120713302C03120743120B66120C27B8
:101680001207DA120A69120B66120CA01207DA129C
:101690000A59120B66120D191207DA120A69120B97
:1016A00066120D921207DA120759120A59120B66C6
:1016B000120E0B12075D1207DA302827855C5A7963
:1016C000187A0CC3E53999400EC228D2298A3B8585
:1016D0005C5A855C5B800CC3E554940140030216A0
:1016E0005FE16930291F202B1CE53B147006C229DD
:1016F000D22AC15FF53B203A07C3E5549401400369
:1017000002165F8064753C00203A0F78FA79A4E7EE
:1017100060027803C3E55598504FE523604B303A9B
:1017200017203805203507800F303502800A202B1E
:1017300007D22B855C5AC18F78F0302B05855C5A17
:101740007820C3E54898500302165F302B1BC22B4C
:10175000C238303502D238D229753B12855C5AC165
:101760005F053CE5546002E16C753C00C2AF120EAF
:10177000E7752500D2AF120700120EE77524007836
:10178000A4E66006D294D295D296C3E53C94044078
:1017900002410561D2901A0D782012181EE520B47E
:1017A000550BA312181EE520B4AA0280137566A576
:1017B0007567F1120EF7F1E0756600756700801F1E
:1017C000901A0378807B0A12181EA308DBF9901A7E
:1017D0000F788C7B1A12181EA308DBF9901A2922A5
:1017E000C2AF12186112183E901A0074101218231A
:1017F000A3744E121823A37421121823901A03788D
:10180000807B0A1122A308DBFA901A0F788C7B1ACE
:101810001122A308DBFA11741152901A2922E493C1
:10182000F622E6438F01538FFDFFC3E583941C40EE
:101830000122EF8566B78567B7F0538FFE22438F8D
:1018400002438F018566B78567B7901A0DF0538FF5
:10185000FC22901A0D74551123901A0E74AA1123AC
:10186000227A3079D07820901A40111EE520F709AD
:10187000A3DAF7227A3079D0901A40E7112309A32E
:10188000DAF9227C05120704DCFB22C2AF120E84B7
:10189000120E8A120E90120E961206F8120E841272
:1018A0000E8A120E90120E961206F8120E84120E66
:1018B0008A120E90120E96D2AF22C2AF120E96125C
:1018C0000E90120E8A120E841206F8120E96120E46
:1018D00090120E8A120E841206F8120E96120E90B4
:0918E000120E8A120E84D2AF220E
:1019FD00021196104E21FFFFFFFFFFFF09FF01FFB0
:101A0D0055AA01FFFFFFFFFF03FFFFFF25D0285061
:0D1A1D0004FF02FF7AFF0701FFFF0000FF3A
:101A400023555F485F32352320202020202020208E
:101A500023424C48454C492445464D3842323123B7
:101A60002020202020202020202020202020202076
:101C0000C2AFC2D37597DE7597AD7581C075A90057
:101C100043FF80752438752503B1EA7529A5752A17
:101C2000F143F10853A4F7D28375D4FF75E3407DE7
:101C3000FA780379E67C10752200752300901DF771
:101C40007B06752498752501E4308310C0E0E430EC
:101C5000830AD5E0FAD0E0D5E0EF806D208308D884
:101C6000FBD9F9DCF781C9308308D8FBD9F9DCF757
:101C700081C9B1AAE493A3C39A6004DDB481C9DB2E
:101C8000DBB19C600281317B08E493FAA3B17DDB78
:101C9000F87A30B17D752200752300B19CEAFCEB27
:101CA000FDC3ED94FE400EB19C8A278B28ED30E0F9
:101CB000048A828B83B19C7AC270D8C3ED94FE6093
:101CC0001950CEBD0029EC600F7520007521FF75FD
:101CD0002900752A000200008100A827A928080908
:101CE000D804D90281ECB1A0EAF281E00D81B5C33C
:101CF000ED94035051EDA2E092007AC5C3E58294C1
:101D000000E583941C508C200010438F02438F0108
:101D10008529B7852AB7F0300027A827A928080900
:101D2000438F01538FFDD804D902A141C3E58394A9
:101D30001C4003A3A126E28529B7852AB7F0A3A1F9
:101D400026538FFC81917AC1BD030CE493A3FAB1B1
:101D500061DCF8B15981918193AA22AB23B17DEB6B
:101D6000FAEA6222752608C3E52313F523E5221358
:101D7000F52250066323A0632201D526EAB1EAB119
:101D8000EA75260AEAF4200102D283300102C283F6
:101D9000B1EAC3134002C201D526EB22B1A0EAFB8F
:101DA000208302A1A0308302A1A5752608AE24AF2E
:101DB00025C3EF13FFEE13FEB1EEB1EAC3EA133011
:101DC00083024480FA30E703632201C3E52313F55D
:101DD00023E52213F52250066323A0632201D526B2
:101DE000D9E52265236523F52222AE24AF250E0F07
:101DF000DEFEDFFCD20122424C48656C693437318B
:051E000064E8B20601D8
:00000001FF
