:020000040000FA
:060000000219FD020734A5
:03000B0002029658
:0300130002075091
:03001B0002059E3D
:03002B0002032E9F
:03005B0002076237
:0300730002036322
:1000C0000406080C10182030406080A0C09000D1B9
:1000D0007301F101FE210E211E212B213B2148211C
:1000E0005B216B217E2188219821A521BB21C8217C
:1000F000DBA6F008A66F08A66D08856DF022A6F0B5
:1001000008A66D08A66E08A66D08856DF022E56E3E
:10011000B5F002E56FF608A66F08856DF022A6F02F
:1001200008A66D08A66F08856DF022A6F008A66ED9
:1001300008A66D08A66D08856DF022A6F008A66ECB
:1001400008A66E08856DF022E56EB5F002E56FF643
:1001500008A66D08A66E08856DF022A6F008A66DAB
:1001600008A66D08A66E08856DF022E56EB5F00252
:10017000E56FF608A66E08A66D08856DF022A6F05C
:1001800008A66F08856EF022E56EB5F002E56FF601
:1001900008A66E08856EF022A6F008A66D08A66E69
:1001A00008856EF022E56EB5F002E56FF608A66DE3
:1001B00008A66D08A66D08856DF022A6F008A66E4B
:1001C00008A66D08856EF022E56EB5F002E56FF6C3
:1001D00008A66D08A66D08856EF022A6F008A66D2B
:1001E00008A66D08A66D08856EF022E529A24733A2
:1001F000F52875290F8075E529A24733A24633F506
:100200002875290D8066E529A24733A24633A24509
:1002100033F52875290B8054E52854F0C24C452944
:10022000C4F5287529098044E528A24813A249137A
:10023000A24A13F5287529078032E528A24813A29F
:100240004913F5287529058023E528A24813F528C8
:100250007529038017204F93204E9C204DA8204CD9
:10026000B7204BC4204AD32049DFE528C465286560
:1002700029F478D0856DF023541E11CDE528235440
:100280001E11CDE528C423541E11CDE52923541E8B
:1002900011CDA6F00822203B0132C0D0C0E075D0BD
:1002A0001018B8CF3320840BD284856D8A08D0E033
:1002B000D0D03275A4E0D284C23B758E0C7589AA69
:1002C000C2A9C289C28B758A00758C00758200D262
:1002D000A8D2AAD0E0D0D032B284868AD0E0D0D0E2
:1002E00032203B0122C28DC0D0C0E075D01018B8BA
:1002F000CF3320840BD284856D8A08D0E0D0D02201
:1003000075A4E0D284C23B758E0C7589AAC2A9C2BD
:1003100089C28B758A00758C00758200D2A8D2AA1A
:10032000D0E0D0D022B284868AD0E0D0D022C0D013
:10033000C0E0C2CF053BE5626009E561600575611B
:1003400000801B756101E52360021523C3E54E6043
:1003500005754F008008054FE54F7002154FD0E03E
:10036000D0D032C2AF53E67F7592FA7593FFC220A8
:1003700053917FD2AF32C0D075D010E52C7004E518
:100380002B601EE52BA26013F528A261132528F52A
:1003900028E52C03C2E7F52903C2E73529F52980B2
:1003A000067528FF7529FF5155C28D758A9E758E79
:1003B000097589A2D23BD2A9D28475A4F0D0D032DB
:1003C000758200752800752900752A00780075F07F
:1003D00000E0C0E0C395F0D0F028C39566780040F7
:1003E00007D24B95674001F80582E0C0E0C395F065
:1003F000D0F028C3956678004007D24A956740013F
:10040000F80582E0C0E0C395F0D0F028C395667887
:10041000004007D24995674001F80582E0C0E0C37B
:1004200095F0D0F028C3956678004007D2489567CC
:100430004001F80582E0C0E0C395F0D0F028C395F4
:100440006678004007D24795674001F80582E0C012
:10045000E0C395F0D0F028C3956678004007D246F7
:1004600095674001F80582E0C0E0C395F0D0F02820
:10047000C3956678004007D24595674001F805822C
:10048000E0C0E0C395F0D0F028C39566780040073F
:10049000D24495674001F80582E0C0E0C395F0D0F2
:1004A000F028C3956678004007D24395674001F86D
:1004B0000582E0C0E0C395F0D0F028C395667800CF
:1004C0004007D24295674001F80582E0C0E0C3953D
:1004D000F0D0F028C3956678004007D24195674078
:1004E00001F80582E0C0E0C395F0D0F028C395661E
:1004F00078004007D24095674001F80582E0C0E0EF
:10050000C395F0D0F028C3956678004007D2539584
:10051000674001F80582E0C0E0C395F0D0F028C341
:10052000956678004007D25295674001F80582E051
:10053000C0E0C395F0D0F028C3956678004007D29C
:100540005195674001F80582E0C0E0C395F0D0F016
:1005500028C3956678004007D25095674001F8059A
:1005600082E528C465286529303701F4652A540FCF
:1005700022900000D2A8D2AA0522E52270021522FC
:100580000522E52270021522C3E52294324005754A
:100590004E00A19775230AD0F0D0E0D0D032C2AF80
:1005A000C2A8C28EC0D0C0E0C0F075D008C2CAA830
:1005B000CCA9CDD2CAD2AF758A00C3E89569F8E953
:1005C000956AF9E970ABE8956B40A6956C50A2E589
:1005D00082B4109D71C07099A928E528C39460FA6F
:1005E000E5299400FB50177B007A00E96010C313E3
:1005F000500CB54C04054D8005F54C754D00303759
:10060000027176303A27C3EA94D0F8EB9407F940A8
:100610000BE8FAE9FB203509D235C121303502C299
:1006200035203902B235C3EA33FAEB33FBEB2B3B0F
:100630003BF9C3EB13FBEA13FAEA29FAEB3400FBAC
:1006400030E3047AFF7BFFE5255403601C202A1960
:10065000E55D33F9EB7007C3E99A4002E9FAE53644
:10066000C433332AFAEB3400FBC3EA33C4540FF823
:10067000EB33C454F048F87005EA60027801E522D3
:1006800060021522D230884EE54E6003754F00ACF3
:100690005BC3E55B955C4002AC5CC3EC954E5008D7
:1006A000EC75F008A4FAABF08A54535403EB13F43E
:1006B0005403F9EA13F4F8C3E8940AFAE99400FB46
:1006C00050047A007B00C3E89550F5F0E99551E5B8
:1006D000F0501428F556740339F55754FC701A7508
:1006E0005600755700801228F556740039F5575496
:1006F000FC60067556FF755703C3E556940AF55816
:10070000E5579400F5595006755800755900885002
:1007100089518A528B53E55A755A027003755A01F2
:1007200075230A203707900000D2A8D2AAD0F0D0B3
:10073000E0D0D032C0E0E58AF0058285688BD0E059
:1007400032C289C0E0E58AF0058285688BD0E0225C
:10075000C2AA85688BD28EC2CA85CC6985CD6AD281
:10076000CA3253E6EF327901801479038010790A96
:10077000800C791E80087964800479C8800078171D
:10078000E4D5E0FDD8FAD9F62278FF20282879A10F
:10079000E76023E542601F74FF8542F0848539F0ED
:1007A00030290375F005A4F8C5F0600278FFC3E8AE
:1007B000955D5002A85D885C22C3E54194A0E542A6
:1007C0009400E55C5003148001046002F55C22751E
:1007D000E89022055EC3E55E9408405330EDF4A82E
:1007E000BDA9BE755E00E9FA79A0E76041EA70062E
:1007F000E55F6018800CC3E8955F600EE55F50050B
:10080000600A1480070460FA8002E55FF55FC39513
:1008100065401B755BC0C394044013755B80C39433
:1008200004400B755B40C394044003755B0022E5F4
:100830005B2410500274FFF55B22743279A687F0B6
:10084000A4C5F0A2F733F55D227541007542F02290
:10085000C2AFC2CAA8CCA9CDAA3B30CF010AD2CA26
:10086000D2AFC3EA13FAE913F9E813F8AB3CAC3D95
:10087000883C893DC3E89BF8E99C20280A547FF90D
:10088000302C02216D8040AD3E8A3EF9EA9D547FB6
:10089000FA600678FF79FF8013AE3FAF408B3F8C44
:1008A00040A83CA93DC3E89EF8E99FF9C3E542137F
:1008B000FBE54113FAE82AF541E93BF5425008759A
:1008C00041FF7542FF804DAA41AB42AC41AD427E33
:1008D000047F02C3EB9404400D1E1FC3EB94084039
:1008E000052029021E1FC3ED13FDEC13FCDEF7C328
:1008F000EA9CFAEB9DFBEF6009C3E913F9E813F8F2
:10090000DFF7EA28FAEB39FB8A418B4250067BFF7E
:100910008B418B42C3EB94025002D22C3028047FCF
:1009200003801C7892E6FFC3E537948240110FC321
:10093000E53794A040010FC3EF940640027F057E87
:1009400002E542C4540FF9E542C454F0F8E541C44D
:10095000540F28F8C3E89EFAE99400FB400AC3EA62
:100960009401EB94004001227A01E4FB22AA41ABFE
:1009700042EBC4FEEAC4540F4EFCC3EA9CFAEB946B
:1009800000FBC3E813C313F8EA28FAEB3400FB8A30
:10099000418B42C3EB94024002C22C7802EBC4FEAE
:1009A0007B00EAC4540F4EFAC3EA98FA4005C39498
:1009B0000150027A017892E6FF22C2AF85412B8571
:1009C000422CD2AF30200221C4854892854993D26F
:1009D0002043E68022C3E49AF8E49BF9C3E833F8A5
:1009E000E933F9202C6FE8FAE9FBD3E913FDE813AA
:1009F000FC88488949C3EF94036037EF20E00CE896
:100A00002CF8E93DF9ECFAEDFB8013E828F8E93918
:100A1000F9C3E82401F8E93400F97AFF7BFFC3EF5A
:100A20009403400E8A4A8B4B884489458C468D47F7
:100A30008057884A894B8A448B458C468D4730289D
:100A400012754AF0754BFF7546F07547FF7548F013
:100A50007549FF8034E8FAD3E813FC8848C3EF9463
:100A6000036020EF20E007E82CF8ECFA4175E82855
:100A70002401F87AFFC3EF940340088A4A88448C23
:100A8000468006884A8A448C463020024189753463
:100A900002D22043E680E5255403602DA841A942F7
:100AA000C3E913F9E813F8302804E92440F9C2AF88
:100AB00053E67F759100C3E498F594E499F5957534
:100AC0009104D22043E680D2AF22D2217543007533
:100AD0002000302B0375204041E8D221754300757A
:100AE0002040302B0375200078017901202C28E567
:100AF0002554036002C2217914E542C31370010436
:100B0000F8C3941440027814302804781B791BC36E
:100B1000E833F8C3E933F9202010E543600C3028AE
:100B200003D53404D222619B51910543E59B544087
:100B3000B52002618530280908C3E8994001186191
:100B40001720210A08C3E899400241E86117C22131
:100B500053E67F759100302C117594007595F075F2
:100B60009104D22043E680020AE8E5427EFFC333C7
:100B70004009C3334005C3334001FEC3E49E75946E
:100B800000F595615FC3E5339401500241E83021DF
:100B90000241E8D80261996117C222C2AF53E67FD1
:100BA000759100854A94854B95759104854492858D
:100BB0004593D22043E680D2AFE525540360072059
:100BC00029020533801030220D202B0A2021071521
:100BD0008115810215C92278003021027801E5379C
:100BE00075F007A4F9E5F028F5F0E9A2F013A2F1F9
:100BF00013A2F213F537C394785003753778C3E521
:100C00003795384009C290C291C29275D57F302085
:100C100002810E854692854793D22043E68022A228
:100C200024E55092E08552F98553FA53F77FF5FB9E
:100C30008551FC8552E98553EA308D031202E1307B
:100C4000890312074143F780F5FB8551FC8552E982
:100C50008553EA22A224E55692E08558F98559FA8F
:100C600053F77FF5FB8557FC8558E98559EA308DA8
:100C7000031202E130890312074143F780F5FB8537
:100C800057FC8558E98559EA22E55545541215FD6A
:100C9000F555D22430E0055355FEC22422D223D587
:100CA0005A04055AC2239189203829C2AFC294C27E
:100CB0009520230D75D800911F75D51B75D84080E0
:100CC0000B75D800915475D51B75D840D293D2AF0F
:100CD000759F2322C2AFC293C29420230D75D80002
:100CE000911F75D53675D840800B75D80091547515
:100CF000D53675D840D295D2AF759F2322D223D551
:100D00005A04055AC2239189203829C2AFC294C21D
:100D10009520230D75D800911F75D52D75D840806D
:100D20000B75D800915475D52D75D840D293D2AF9C
:100D3000759F1322C2AFC293C29420230D75D800B1
:100D4000911F75D52D75D840800B75D800915475BD
:100D5000D52D75D840D295D2AF759F0322D223D519
:100D60005A04055AC2239189203829C2AFC293C2BE
:100D70009420230D75D800911F75D52D75D840800E
:100D80000B75D800915475D52D75D840D295D2AF3A
:100D9000759F0322C2AFC294C29520230D75D8005F
:100DA000911F75D52D75D840800B75D8009154755D
:100DB000D52D75D840D293D2AF759F1322D223D5AB
:100DC0005A04055AC2239189203829C2AFC293C25E
:100DD0009420230D75D800911F75D53675D84080A5
:100DE0000B75D800915475D53675D840D295D2AFD1
:100DF000759F2322C2AFC294C29520230D75D800DF
:100E0000911F75D51B75D840800B75D8009154750E
:100E1000D51B75D840D293D2AF759F2322D223D54C
:100E20005A04055AC2239189203829C2AFC293C2FD
:100E30009520230D75D800911F75D53675D8408043
:100E40000B75D800915475D53675D840D294D2AF71
:100E5000759F1322C2AFC293C29520230D75D8008F
:100E6000911F75D51B75D840800B75D800915475AE
:100E7000D51B75D840D294D2AF759F0322D223D50B
:100E80005A04055AC2239189203829C2AFC293C29D
:100E90009520230D75D800911F75D51B75D84080FE
:100EA0000B75D800915475D51B75D840D294D2AF2C
:100EB000759F0322C2AFC293C29520230D75D8003F
:100EC000911F75D53675D840800B75D80091547533
:100ED000D53675D840D294D2AF759F13227A147B41
:100EE0007880127A107B8C800C7A0D7BB480067A25
:100EF0000B7BC88000E560D5E001227902E4C29452
:100F0000D5E0FDD291D5E0FDC291D5E0FDD294D5DA
:100F1000E0FDE920E002D29030E002D292E560D517
:100F2000E0FDE920E002C29030E002C2927496D562
:100F3000E0FDD9C9EAF8D5E0FDD8FBDBB8C29422C0
:100F4000C290C291C292C293C294C29575D57F22BB
:100F5000788076FF0876FF0876FF0876FF0876FF30
:100F60000876FF0876090876FF087601788C760106
:100F70000876FF0876FF0876FF0876FF0876FF08F8
:100F800076030876FF0876FF0876FF087625087650
:100F9000D00876280876500876040876FF0876028E
:100FA0000876FF08767A0876FF0876070876010843
:100FB00076FF0876FF087600087600227888E6C378
:100FC0009403D23A5002C23AC238E630E102D23833
:100FD000A23892397886E6149000C09378A6F67805
:100FE00086E6F539C394025003753902789CE6759C
:100FF00038FFB402037538A0B4030375388278A0B3
:10100000E6F8600674282409D8FCF565120F402222
:1010100078A5E6F95403C2857002D285E9540CC262
:10102000867002D286E95430C2877002D287E954B2
:10103000C070002275683C75662075671E303703E6
:1010400075671B756B6C756C14756DFF756EEC7543
:101050006FDD2275680075664075673C3037037533
:101060006736756B9D756C87756DFF756ED1756F85
:10107000B022741E208415C0D0C0E0740AD5E0FDF3
:10108000D0E0D0D02084EBD5E0EDC322C0D0C0E0CA
:10109000740AD5E0FDD0E0D0D03084D6D5E0EDD3D1
:1010A000227563007564007597DE7597AD7581AF25
:1010B00043FF8075EF0675A900120F407580FF751C
:1010C000F1F075A4E07580FF75D4FF75900075F29E
:1010D0003F75A53F75900075D53F75A60175E34036
:1010E00075E202120F40E47800F6D8FD120F50F1BD
:1010F0005078988660753001C2AF12077A120EDD03
:10110000120772120EE3120772120EE91207721121
:1011100010C2AF75A91375A71075C10075A700752A
:10112000620075630075640078FA79FA308407D933
:10113000FBD8F7021C0075A71075C13075A70075A4
:10114000A903756201120FBC78988660120F407572
:10115000C80475910475D84075D90875F782759ED5
:1011600003755508755A0175960275DA4275DB42AA
:10117000759B80759D0075D10C75BCB975BB1075DC
:10118000E88075B201120766753600C23012077A20
:10119000D23411729237C23B752B00752C0075E466
:1011A000C430370375E44C758851758E0C7589AA67
:1011B000758C00758D00758E0C75E68075B803759D
:1011C000A828D2AF1153752232120776754C0075DC
:1011D0004D00C3E52294024002211112076A20301B
:1011E000022111E54E60022111C2AF120EDD120E76
:1011F000DD120EDDD2AF12077A756300756400123E
:101200000776E54E60022111C2AF120EEF120EEF0B
:10121000120EEFD2AF12077A753000752B00752CC5
:1012200000E4F531F5320531E531F4703F053278EF
:101230009AE67819146012783214600D787D146083
:101240000878FA146003753200C3E53298401D1225
:101250000F40120766153275310078998660C2AF6B
:10126000120EEFD2AF7898866012077612076EE5FD
:101270002370022111C3E54E9401500AC3E54C943A
:10128000015016021226120776E52370030211118F
:10129000754C00754D0002143BC3E54C940170176A
:1012A000C2AF120F4078998660120EDD7898866082
:1012B000D2AF120776812DC3E54C94027017C2AFEE
:1012C000120F4078998660120EE378988660D2AF4C
:1012D000120776812DC3E54C94037017C2AF120F2D
:1012E0004078998660120EE978988660D2AF12072E
:1012F00076812DC3E54C94047017C2AF120F40786D
:10130000998660120EEF78988660D2AF12077681C8
:101310002DC3E54C94057017C2AF120F4078998623
:1013200060120EEF78988660D2AF120776812DC3D7
:10133000E54C94077019C3E54D940650024175744D
:1013400001303A0274037888F6C238C239812DC35D
:10135000E54C94087019C3E54D940650024175742C
:1013600002303A0274047888F6D238D239812DC31B
:10137000E54C94097017C3E54D9406500241753051
:101380003A0BC37888E69402F6C23A812DC3E54C45
:10139000940A7016C3E54D940650024175203A0A2E
:1013A0007888E62402F6D23A812DC3E54C94147075
:1013B00025C3E54D940650024175C2AF901A0B74D7
:1013C0000093D2AF7888F613C238C2394002D238BF
:1013D0004002D2398057C3E54C94157038C3E54DAF
:1013E0009406404FC2AF901A0B740093D2AFF8B876
:1013F00001027402B802027401B803027404B80452
:101400000274037888F613C238C2394002D23840D9
:1014100002D2398018C3E54C940C70117563A57520
:1014200064F1C3E54D9406400AF197D2AF754C00C4
:10143000754D007563007564004175120F40755E4F
:1014400000752400752500753700755E0812076663
:101450001207CF30EDFDA8BDA9BEE97001F8885F85
:101460001207D3755E08C2AF12083A855D5B855DD1
:101470005CD2AF303A07C238303502D238D2287544
:101480003300120E1D120E7D120849120850120967
:10149000BA1209D51208491208501209BA1209D510
:1014A000120849120ADA120BD7120C9D12085012B8
:1014B00009BA1209D5120ACA202C03120789302C46
:1014C000031207B9120BD7120CFD1208501209BAF9
:1014D0001209D5120ADA120BD7120D5D120850123A
:1014E00009BA1209D5120ACA120BD7120DBD120879
:1014F000501209BA1209D5120ADA120BD7120E1DB0
:101500001208501209BA1209D51207CF120ACA12CC
:101510000BD7120E7D1207D31208501209BA120906
:10152000D5302827855D5B79187A0CC3E53399405F
:101530000EC228D2298A35855D5B855D5C800CC32F
:10154000E54E940140030214A3A1D130291F202BA2
:101550001CE535147006C229D22A81A3F535203A3C
:1015600007C3E54E940140030214A380647536005E
:10157000203A0F78FA79A4E760027803C3E54F9820
:10158000504FE523604B303A17203805203507804F
:101590000F303502800A202B07D22B855D5B81E559
:1015A00078F0302B05855D5B7820C3E542985003C9
:1015B0000214A3302B1BC22BC238303502D238D2D2
:1015C00029753512855D5B81A30536E54E6002A164
:1015D000D4753600C2AF120F40752500D2AF120786
:1015E00076120F4075240078A4E66006D293D29458
:1015F000D295C3E536940440022111411B83220198
:101600000203040D090508040D090C08040D8322CA
:1016100001020304050607083931292119110910AF
:1016200008393129211911181008393129211920B7
:10163000181008393129212820181008393129308B
:10164000282018100839313830282018100839831C
:10165000220102030405060708090A0B0C0D0E0FF0
:1016600010F1E1D1C1B1A1918171615141312111DB
:101670002010F1E1D1C1B1A19181716151413121BC
:10168000302010F1E1D1C1B1A1918171615141319D
:1016900040302010F1E1D1C1B1A19181716151417E
:1016A0005040302010F1E1D1C1B1A191817161515F
:1016B000605040302010F1E1D1C1B1A19181716140
:1016C00070605040302010F1E1D1C1B1A191817121
:1016D0008070605040302010F1E1D1C1B1A1918102
:1016E000908070605040302010F1E1D1C1B1A191E3
:1016F000A0908070605040302010F1E1D1C1B1A1C4
:10170000B0A0908070605040302010F1E1D1C1B1A4
:10171000C0B0A0908070605040302010F1E1D1C185
:10172000D0C0B0A0908070605040302010F1E1D166
:10173000E0D0C0B0A0908070605040302010F1E147
:10174000F0E0D0C0B0A0908070605040302010F128
:10175000901A0D7820F1D3E520B4550AA3F1D3E512
:1017600020B4AA0280137563A57564F1120F50F1BD
:1017700097756300756400801D901A0378807B0A5A
:10178000F1D3A308DBFA901A0F788C7B1AF1D3A35C
:1017900008DBFA901A2922C2AF121818F1F3901A36
:1017A000007410F1D8A3744EF1D8A37421F1D8902D
:1017B0001A0378807B0AF1D7A308DBFA901A0F7816
:1017C0008C7B1AF1D7A308DBFA12182C1218079099
:1017D0001A2922E493F622E6438F01538FFDFFC3BB
:1017E000E583941C400122EF8563B78564B7F0530D
:1017F0008FFE22438F02438F018563B78564B790C4
:101800001A0DF0538FFC22901A0D74551217D890B0
:101810001A0E74AA1217D8227A3079D07820901A2A
:10182000401217D3E520F709A3DAF6227A3079D0EF
:10183000901A40E71217D809A3DAF8227C0512079C
:101840007ADCFB22C2AF120EDD120EE3120EE91299
:101850000EEF12076E120EDD120EE3120EE9120EDB
:10186000EF12076E120EDD120EE3120EE9120EEFEA
:10187000D2AF22C2AF120EEF120EE9120EE3120E19
:10188000DD12076E120EEF120EE9120EE3120EDDDC
:1018900012076E120EEF120EE9120EE3120EDDD2D7
:0218A000AF2275
:1019FD000210A1104E21FFFFFFFFFFFF09FF01FFA6
:101A0D0055AA01FFFFFFFFFF03FFFFFF25D0285061
:0D1A1D0004FF02FF7AFF0701FFFF0000FF3A
:101A4000234A5F485F31302320202020202020209F
:101A500023424C48454C492445464D3842323123B7
:101A60002020202020202020202020202020202076
:101C0000C2AFC2D37597DE7597AD7581C075A90057
:101C100043FF80752438752503B1EA7529A5752A17
:101C2000F143F11053A4EFD28475D4FF75E3407DE6
:101C3000FA780379E67C10752200752300901DF771
:101C40007B06752498752501E4308410C0E0E430EB
:101C5000840AD5E0FAD0E0D5E0EF806D208408D882
:101C6000FBD9F9DCF781C9308408D8FBD9F9DCF756
:101C700081C9B1AAE493A3C39A6004DDB481C9DB2E
:101C8000DBB19C600281317B08E493FAA3B17DDB78
:101C9000F87A30B17D752200752300B19CEAFCEB27
:101CA000FDC3ED94FE400EB19C8A278B28ED30E0F9
:101CB000048A828B83B19C7AC270D8C3ED94FE6093
:101CC0001950CEBD0029EC600F7520007521FF75FD
:101CD0002900752A000200008100A827A928080908
:101CE000D804D90281ECB1A0EAF281E00D81B5C33C
:101CF000ED94035051EDA2E092007AC5C3E58294C1
:101D000000E583941C508C200010438F02438F0108
:101D10008529B7852AB7F0300027A827A928080900
:101D2000438F01538FFDD804D902A141C3E58394A9
:101D30001C4003A3A126E28529B7852AB7F0A3A1F9
:101D400026538FFC81917AC1BD030CE493A3FAB1B1
:101D500061DCF8B15981918193AA22AB23B17DEB6B
:101D6000FAEA6222752608C3E52313F523E5221358
:101D7000F52250066323A0632201D526EAB1EAB119
:101D8000EA75260AEAF4200102D284300102C284F4
:101D9000B1EAC3134002C201D526EB22B1A0EAFB8F
:101DA000208402A1A0308402A1A5752608AE24AF2C
:101DB00025C3EF13FFEE13FEB1EEB1EAC3EA133011
:101DC00084024480FA30E703632201C3E52313F55C
:101DD00023E52213F52250066323A0632201D526B2
:101DE000D9E52265236523F52222AE24AF250E0F07
:101DF000DEFEDFFCD20122424C48656C693437318B
:051E000064E8B20601D8
:00000001FF
