:020000040000FA
:060000000219FD02072CAD
:03000B0002029658
:0300130002074899
:03001B0002058E4D
:03002B0002032E9F
:03005B0002075A3F
:0300730002036322
:1000C0000406080C10182030406080A0C09000D1B9
:1000D0007301F101FE210E211E212B213B2148211C
:1000E0005B216B217E2188219821A521BB21C8217C
:1000F000DBA6F008A66F08A66D08856DF022A6F0B5
:1001000008A66D08A66E08A66D08856DF022E56E3E
:10011000B5F002E56FF608A66F08856DF022A6F02F
:1001200008A66D08A66F08856DF022A6F008A66ED9
:1001300008A66D08A66D08856DF022A6F008A66ECB
:1001400008A66E08856DF022E56EB5F002E56FF643
:1001500008A66D08A66E08856DF022A6F008A66DAB
:1001600008A66D08A66E08856DF022E56EB5F00252
:10017000E56FF608A66E08A66D08856DF022A6F05C
:1001800008A66F08856EF022E56EB5F002E56FF601
:1001900008A66E08856EF022A6F008A66D08A66E69
:1001A00008856EF022E56EB5F002E56FF608A66DE3
:1001B00008A66D08A66D08856DF022A6F008A66E4B
:1001C00008A66D08856EF022E56EB5F002E56FF6C3
:1001D00008A66D08A66D08856EF022A6F008A66D2B
:1001E00008A66D08A66D08856EF022E529A24733A2
:1001F000F52875290F8075E529A24733A24633F506
:100200002875290D8066E529A24733A24633A24509
:1002100033F52875290B8054E52854F0C24C452944
:10022000C4F5287529098044E528A24813A249137A
:10023000A24A13F5287529078032E528A24813A29F
:100240004913F5287529058023E528A24813F528C8
:100250007529038017204F93204E9C204DA8204CD9
:10026000B7204BC4204AD32049DFE528C465286560
:1002700029F478D0856DF023541E11CDE528235440
:100280001E11CDE528C423541E11CDE52923541E8B
:1002900011CDA6F00822203B0132C0D0C0E075D0BD
:1002A0001018B8CF3320850BD285856D8A08D0E031
:1002B000D0D03275A400D285C23B758E0C7589AA48
:1002C000C2A9C289C28B758A00758C00758200D262
:1002D000A8D2AAD0E0D0D032B285868AD0E0D0D0E1
:1002E00032203B0122C28DC0D0C0E075D01018B8BA
:1002F000CF3320850BD285856D8A08D0E0D0D022FF
:1003000075A400D285C23B758E0C7589AAC2A9C29C
:1003100089C28B758A00758C00758200D2A8D2AA1A
:10032000D0E0D0D022B285868AD0E0D0D022C0D012
:10033000C0E0C2CF053BE5626009E561600575611B
:1003400000801B756101E52360021523C3E54E6043
:1003500005754F008008054FE54F7002154FD0E03E
:10036000D0D032C2AF53E67F7592FA7593FFC220A8
:1003700053917FD2AF32C0D075D010E52C7004E518
:100380002B601EE52BA26013F528A261132528F52A
:1003900028E52C03C2E7F52903C2E73529F52980B2
:1003A000067528FF7529FF5155C28D758AAB758E6C
:1003B000097589A2D23BD2A9D28575A420D0D032AA
:1003C000758200752800752900752A00780075F07F
:1003D00000E0C0E0C395F0D0F028C39566780040F7
:1003E00006D24B956740000582E0C0E0C395F0D08F
:1003F000F028C3956678004006D24A95674000050C
:1004000082E0C0E0C395F0D0F028C3956678004044
:1004100006D249956740000582E0C0E0C395F0D060
:10042000F028C3956678004006D2489567400005DD
:1004300082E0C0E0C395F0D0F028C3956678004014
:1004400006D247956740000582E0C0E0C395F0D032
:10045000F028C3956678004006D2469567400005AF
:1004600082E0C0E0C395F0D0F028C39566780040E4
:1004700006D245956740000582E0C0E0C395F0D004
:10048000F028C3956678004006D244956740000581
:1004900082E0C0E0C395F0D0F028C39566780040B4
:1004A00006D243956740000582E0C0E0C395F0D0D6
:1004B000F028C3956678004006D242956740000553
:1004C00082E0C0E0C395F0D0F028C3956678004084
:1004D00006D241956740000582E0C0E0C395F0D0A8
:1004E000F028C3956678004006D240956740000525
:1004F00082E0C0E0C395F0D0F028C3956678004054
:1005000006D253956740000582E0C0E0C395F0D065
:10051000F028C3956678004006D2529567400005E2
:1005200082E0C0E0C395F0D0F028C3956678004023
:1005300006D251956740000582E0C0E0C395F0D037
:10054000F028C3956678004006D2509567400005B4
:1005500082E528C465286529303701F4652A540FDF
:1005600022900000D2A8D2AA0522E522700215220C
:100570000522E52270021522C3E52294324005755A
:100580004E00A18775230AD0F0D0E0D0D032C2AFA0
:10059000C2A8C28EC0D0C0E0C0F075D008C2CAA840
:1005A000CCA9CDD2CAD2AF758A00C3E89569F8E963
:1005B000956AF9E970ABE8956B40A6956C50A2E599
:1005C00082B4109D71C07099A928E528C39460FA7F
:1005D000E5299400FB50177B007A00E96010C313F3
:1005E000500CB54C04054D8005F54C754D00303769
:1005F000027176303A27C3EA94D0F8EB9407F940B9
:100600000BE8FAE9FB203509D235C111303502C2B9
:1006100035203902B235C3EA33FAEB33FBEB2B3B1F
:100620003BF9C3EB13FBEA13FAEA29FAEB3400FBBC
:1006300030E3047AFF7BFFE5255403601C202A1970
:10064000E55D33F9EB7007C3E99A4002E9FAE53654
:10065000C433332AFAEB3400FBC3EA33C4540FF833
:10066000EB33C454F048F87005EA60027801E522E3
:1006700060021522D230884EE54E6003754F00AC03
:100680005BC3E55B955C4002AC5CC3EC954E5008E7
:10069000EC75F008A4FAABF08A54535407EB13132B
:1006A00092D5A2E7F45401F9EA13A2D513F4F8C3E2
:1006B000E89428FAE99400FB50047A007B00C3E830
:1006C0009550F5F0E99551E5F0501428F556740170
:1006D00039F55754FE701A75560075570080122868
:1006E000F556740039F55754FE60067556FF755778
:1006F00001C3E5569428F558E5579400F55950067E
:10070000755800755900885089518A528B53E55AA3
:10071000755A017003755A0075230A203707900037
:1007200000D2A8D2AAD0F0D0E0D0D032C0E0E58A82
:10073000F0058285688BD0E032C289C0E0E58AF09E
:10074000058285688BD0E022C2AA85688BD28EC2D2
:10075000CA85CC6985CD6AD2CA3253E6EF327901B7
:10076000801479038010790A800C791E80087964DE
:10077000800479C880007817E4D5E0FDD8FAD9F66E
:100780002278FF20282879A1E76023E542601F74C2
:10079000FF8542F0848539F030290375F005A4F80F
:1007A000C5F0600278FFC3E8955D5002A85D885CE3
:1007B00022C3E54194A0E5429400E55C5003148017
:1007C00001046002F55C2275E89022055EC3E55ED7
:1007D0009408405330EDF4A8BDA9BE755E00E9FA57
:1007E00079A0E76041EA7006E55F6018800CC3E815
:1007F000955F600EE55F5005600A1480070460FA9B
:100800008002E55FF55FC39565401B755BC0C394CF
:10081000044013755B80C39404400B755B40C39424
:10082000044003755B0022E55B2410500274FFF561
:100830005B22743279A687F0A4C5F0A2F733F55D88
:10084000227541007542F022C2AFC2CAA8CCA9CD20
:10085000AA3B30CF010AD2CAD2AFC3EA13FAE913D6
:10086000F9E813F8AB3CAC3D883C893DC3E89BF804
:10087000E99C20280A547FF9302C0221658040AD84
:100880003E8A3EF9EA9D547FFA600678FF79FF8040
:1008900013AE3FAF408B3F8C40A83CA93DC3E89EC0
:1008A000F8E99FF9C3E54213FBE54113FAE82AF59D
:1008B00041E93BF54250087541FF7542FF804DAA62
:1008C00041AB42AC41AD427E047F02C3EB94044095
:1008D0000D1E1FC3EB940840052029021E1FC3ED07
:1008E00013FDEC13FCDEF7C3EA9CFAEB9DFBEF6013
:1008F00009C3E913F9E813F8DFF7EA28FAEB39FB43
:100900008A418B4250067BFF8B418B42C3EB9402A2
:100910005002D22C3028047F03801C7892E6FFC35B
:10092000E537948240110FC3E53794A040010FC30F
:10093000EF940640027F057E02E542C4540FF9E5BC
:1009400042C454F0F8E541C4540F28F8C3E89EFAB5
:10095000E99400FB400AC3EA9401EB9400400122B1
:100960007A01E4FB22AA41AB42EBC4FEEAC4540F75
:100970004EFCC3EA9CFAEB9400FBC3E813C313F8E4
:10098000EA28FAEB3400FB8A418B42C3EB94024025
:1009900002C22C7802EBC4FE7B00EAC4540F4EFA6C
:1009A000C3EA98FA4005C3940150027A017892E6AE
:1009B000FF22C2AF85412B85422CD2AF30200221CD
:1009C000BC854892854993D22043E68022C3E49AAD
:1009D000F8E49BF9C3E833F8E933F9202C6FE8FA1F
:1009E000E9FBD3E913FDE813FC88488949C3EF9478
:1009F000036037EF20E00CE82CF8E93DF9ECFAED64
:100A0000FB8013E828F8E939F9C3E82401F8E93450
:100A100000F97AFF7BFFC3EF9403400E8A4A8B4BA9
:100A2000884489458C468D478057884A894B8A443B
:100A30008B458C468D47302812754AF0754BFF75F3
:100A400046F07547FF7548F07549FF8034E8FAD3E2
:100A5000E813FC8848C3EF94036020EF20E007E828
:100A60002CF8ECFA416DE8282401F87AFFC3EF94E2
:100A70000340088A4A88448C468006884A8A448C07
:100A8000463020024181753402D22043E680E525BC
:100A90005403602DA841A942C3E913F9E813F830C3
:100AA0002804E92440F9C2AF53E67F759100C3E4FE
:100AB00098F594E499F595759104D22043E680D297
:100AC000AF22D221754300752000302B03752040E2
:100AD00041E0D221754300752040302B0375200082
:100AE00078017901202C28E52554036002C2217980
:100AF00014E542C313700104F8C39414400278143F
:100B0000302804781B791BC3E833F8C3E933F92094
:100B10002010E543600C302803D53404D2226193C1
:100B200051890543E59B5440B52002617D30280979
:100B300008C3E899400118610F20210A08C3E89909
:100B4000400241E0610FC22153E67F759100302CD5
:100B5000117594007595F0759104D22043E68002DA
:100B60000AE0E5427EFFC3334009C3334005C33387
:100B70004001FEC3E49E759400F5956157C3E533CB
:100B80009401500241E030210241E0D802619161BC
:100B90000FC222C2AF53E67F759100854A94854B00
:100BA00095759104854492854593D22043E680D281
:100BB000AFE5255403600720290205338010302259
:100BC0000D202B0A202107158115810215B52278E9
:100BD000003021027801E53775F007A4F9E5F02827
:100BE000F5F0E9A2F013A2F113A2F213F537C394C2
:100BF000785003753778C3E53795384009C291C2FC
:100C000093C29575D53F302002810685469285476F
:100C100093D22043E68022A224E55092E08552F947
:100C20008553FA53F77FF5E98551EA8552FB8553E1
:100C3000FC308D031202E130890312073943F7803B
:100C4000F5E98551EA8552FB8553FC22A224E5563D
:100C500092E08558F98559FA53F77FF5E98557EA07
:100C60008558FB8559FC308D031202E1308903124F
:100C7000073943F780F5E98557EA8558FB8559FC24
:100C800022E55545541215FAF555D22430E00553A6
:100C900055FEC22422D223D55A04055AC22391817B
:100CA000203829C2AFC292C29420230D75D800917A
:100CB0001775D50F75D840800B75D800914C75D538
:100CC0000F75D840D290D2AF759F0322C2AFC290A9
:100CD000C29220230D75D800911775D53C75D84068
:100CE000800B75D800914C75D53C75D840D294D204
:100CF000AF759F0322D223D55A04055AC22391818E
:100D0000203829C2AFC292C29420230D75D8009119
:100D10001775D53375D840800B75D800914C75D5B3
:100D20003375D840D290D2AF759F1322C2AFC29014
:100D3000C29220230D75D800911775D53375D84010
:100D4000800B75D800914C75D53375D840D294D2AC
:100D5000AF759F2322D223D55A04055AC22391810D
:100D6000203829C2AFC290C29220230D75D80091BD
:100D70001775D53375D840800B75D800914C75D553
:100D80003375D840D294D2AF759F2322C2AFC2929E
:100D9000C29420230D75D800911775D53375D840AE
:100DA000800B75D800914C75D53375D840D290D250
:100DB000AF759F1322D223D55A04055AC2239181BD
:100DC000203829C2AFC290C29220230D75D800915D
:100DD0001775D53C75D840800B75D800914C75D5EA
:100DE0003C75D840D294D2AF759F0322C2AFC29255
:100DF000C29420230D75D800911775D50F75D84072
:100E0000800B75D800914C75D50F75D840D290D213
:100E1000AF759F0322D223D55A04055AC22391816C
:100E2000203829C2AFC290C29420230D75D80091FA
:100E30001775D53C75D840800B75D800914C75D589
:100E40003C75D840D292D2AF759F1322C2AFC290E8
:100E5000C29420230D75D800911775D50F75D84011
:100E6000800B75D800914C75D50F75D840D292D2B1
:100E7000AF759F2322D223D55A04055AC2239181EC
:100E8000203829C2AFC290C29420230D75D800919A
:100E90001775D50F75D840800B75D800914C75D556
:100EA0000F75D840D292D2AF759F2322C2AFC290A5
:100EB000C29420230D75D800911775D53C75D84084
:100EC000800B75D800914C75D53C75D840D292D224
:100ED000AF759F13227A147B7880127A107B8C80F6
:100EE0000C7A0D7BB480067A0B7BC88000E560D558
:100EF000E001227902E4C292D5E0FDD293D5E0FD73
:100F0000C293D5E0FDD292D5E0FDE920E002D29176
:100F100030E002D295E560D5E0FDE920E002C29123
:100F200030E002C2957496D5E0FDD9C9EAF8D5E063
:100F3000FDD8FBDBB8C29222C291C293C295C29087
:100F4000C292C29475D53F22788076FF0876FF085A
:100F500076FF0876FF0876FF0876FF0876090876A0
:100F6000FF087601788C76010876FF0876FF087610
:100F7000FF0876FF0876FF0876030876FF0876FFFD
:100F80000876FF0876250876D00876280876500877
:100F900076040876FF0876020876FF08767A0876E7
:100FA000FF0876070876010876FF0876FF087600C6
:100FB000087600227888E6C39403D23A5002C23AF7
:100FC000C238E630E102D238A23892397886E61487
:100FD0009000C09378A6F67886E6F539C39402505F
:100FE00003753902789CE67538FFB402037538A0A2
:100FF000B4030375388278A0E6F8600674282409E3
:10100000D8FCF565120F382278A5E6F95403700074
:10101000E9540C7000E954307000E954C0700022AB
:1010200075683C75662075671E30370375671B75DC
:101030006B6C756C14756DFF756EEC756FDD2275DC
:10104000680075664075673C303703756732756BAD
:10105000D9756C28756DFF756ED1756FB122741ED0
:10106000208515C0D0C0E0740AD5E0FDD0E0D0D016
:101070002085EBD5E0EDC322C0D0C0E0740AD5E0F6
:10108000FDD0E0D0D03085D6D5E0EDD32275630019
:101090007564007597DE7597AD7581AF43FF8075F8
:1010A000EF0675A900120F387580FF75F1F075A471
:1010B000007580FF75D4FF75900075F23F75A53FF0
:1010C00075900075D53F75A60175E34075E2021273
:1010D0000F38E47800F6D8FD120F48F13C78988676
:1010E00060753001C2AF120772120ED512076A1274
:1010F0000EDB12076A120EE112076A1108C2AF7501
:10110000A91375A71075C10075A7007562007563F6
:101110000075640078FA79FA308507D9FBD8F702B0
:101120001C0075A71075C13075A70075A9037562FD
:1011300001120FB478988660120F3875C804759143
:101140000475D84075D90875F781759E03755520CB
:10115000755A0175960175DB4275DA42759B80758B
:101160009D0075D10C75BCB975BB1075E88075B262
:101170000112075E753600C230120772D234115E5A
:101180009237C23B752B00752C0075E4D5303703C0
:1011900075E45D758851758E0C7589AA758C00751E
:1011A0008D00758E0C75E68075B80375A828D2AFD2
:1011B000113F75223212076E754C00754D00C3E564
:1011C000229402400201FD12076220300201FDE577
:1011D0004E600201FDC2AF120ED5120ED5120ED511
:1011E000D2AF12077275630075640012076EE54E88
:1011F000600201FDC2AF120EE7120EE7120EE7D237
:10120000AF120772753000752B00752C00E4F531B4
:10121000F5320531E531F4703F0532789AE67819F8
:10122000146012783214600D787D14600878FA1416
:101230006003753200C3E53298401D120F38120763
:101240005E153275310078998660C2AF120EE7D212
:10125000AF7898866012076E120766E52370020168
:10126000FDC3E54E9401500AC3E54C9401501602AB
:10127000121212076EE52370030210FD754C007503
:101280004D00021427C3E54C94017017C2AF120F32
:101290003878998660120ED578988660D2AF12079A
:1012A0006E8119C3E54C94027017C2AF120F3878E3
:1012B000998660120EDB78988660D2AF12076E8135
:1012C00019C3E54C94037017C2AF120F3878998692
:1012D00060120EE178988660D2AF12076E8119C352
:1012E000E54C94047017C2AF120F387899866012DB
:1012F0000EE778988660D2AF12076E8119C3E54C6D
:1013000094057017C2AF120F3878998660120EE7F5
:1013100078988660D2AF12076E8119C3E54C9407A6
:101320007019C3E54D9406500241617401303A02D0
:1013300074037888F6C238C2398119C3E54C940821
:101340007019C3E54D9406500241617402303A02AF
:1013500074047888F6D238D2398119C3E54C9409DF
:101360007017C3E54D940650024161303A0BC378C3
:1013700088E69402F6C23A8119C3E54C940A7016C5
:10138000C3E54D940650024161203A0A7888E6246C
:1013900002F6D23A8119C3E54C94147025C3E54D89
:1013A000940650024161C2AF901A0B740093D2AF01
:1013B0007888F613C238C2394002D2384002D23996
:1013C0008057C3E54C94157038C3E54D9406404FE3
:1013D000C2AF901A0B740093D2AFF8B80102740236
:1013E000B802027401B803027404B80402740378EA
:1013F00088F613C238C2394002D2384002D239804E
:1014000018C3E54C940C70117563A57564F1C3E5C0
:101410004D9406400AF183D2AF754C00754D0075AE
:1014200063007564004161120F38755E0075240019
:10143000752500753700755E0812075E1207C73004
:10144000EDFDA8BDA9BEE97001F8885F1207CB7554
:101450005E08C2AF120832855D5B855D5CD2AF303D
:101460003A07C238303502D238D228753300120E0E
:1014700015120E751208411208481209B21209CD50
:101480001208411208481209B21209CD120841127D
:101490000AD2120BCF120C951208481209B2120987
:1014A000CD120AC2202C03120781302C031207B17F
:1014B000120BCF120CF51208481209B21209CD1204
:1014C0000AD2120BCF120D551208481209B2120996
:1014D000CD120AC2120BCF120DB51208481209B272
:1014E0001209CD120AD2120BCF120E151208481291
:1014F00009B21209CD1207C7120AC2120BCF120E7F
:10150000751207CB1208481209B21209CD302827EC
:10151000855D5B79187A0CC3E53399400EC228D2F9
:10152000298A35855D5B855D5C800CC3E54E940141
:10153000400302148FA1BD30291F202B1CE5351458
:101540007006C229D22A818FF535203A07C3E54EAD
:101550009401400302148F8064753600203A0F789E
:10156000FA79A4E760027803C3E54F98504FE5236A
:10157000604B303A17203805203507800F30350290
:10158000800A202B07D22B855D5B81D178F0302B30
:1015900005855D5B7820C3E54298500302148F30C7
:1015A0002B1BC22BC238303502D238D229753512E6
:1015B000855D5B818F0536E54E6002A1C075360002
:1015C000C2AF120F38752500D2AF12076E120F3856
:1015D00075240078A4E66006D290D292D294C3E536
:1015E000369404400201FD41078322010203040DE9
:1015F000090508040D090C08040D832201020304E7
:10160000050607083931292119110910083931292E
:1016100021191118100839312921192018100839F9
:101620003129212820181008393129302820181094
:101630000839313830282018100839832201020374
:101640000405060708090A0B0C0D0E0F10F1E1D175
:10165000C1B1A19181716151413121112010F1E19C
:10166000D1C1B1A19181716151413121302010F17D
:10167000E1D1C1B1A191817161514131403020105E
:10168000F1E1D1C1B1A1918171615141504030204E
:1016900010F1E1D1C1B1A19181716151605040302F
:1016A0002010F1E1D1C1B1A1918171617060504010
:1016B000302010F1E1D1C1B1A191817180706050F1
:1016C00040302010F1E1D1C1B1A1918190807060D2
:1016D0005040302010F1E1D1C1B1A191A0908070B3
:1016E000605040302010F1E1D1C1B1A1B0A0908094
:1016F00070605040302010F1E1D1C1B1C0B0A09075
:101700008070605040302010F1E1D1C1D0C0B0A055
:10171000908070605040302010F1E1D1E0D0C0B036
:10172000A0908070605040302010F1E1F0E0D0C017
:10173000B0A0908070605040302010F1901A0D7869
:1017400020F1BEE520B4550AA3F1BEE520B4AA02FB
:1017500080137563A57564F1120F48F183756300FA
:10176000756400801D901A0378807B0AF1BEA3087F
:10177000DBFA901A0F788C7B1AF1BEA308DBFA9083
:101780001A2922C2AF121802F1DE901A007410F169
:10179000C3A3744EF1C3A37421F1C3901A037880DC
:1017A0007B0AF1C2A308DBFA901A0F788C7B1AF13E
:1017B000C2A308DBFA121816F1F2901A2922E49358
:1017C000F622E6438F01538FFDFFC3E583941C404F
:1017D0000122EF8563B78564B7F0538FFE22438FF4
:1017E00002438F018563B78564B7901A0DF0538F5C
:1017F000FC22901A0D7455F1C3901A0E74AA121798
:10180000C3227A3079D07820901A401217BEE52092
:10181000F709A3DAF6227A3079D0901A40E7121746
:10182000C309A3DAF8227C05120772DCFB22C2AFDF
:10183000120ED5120EDB120EE1120EE7120766121F
:101840000ED5120EDB120EE1120EE7120766120E13
:10185000D5120EDB120EE1120EE7D2AF22C2AF128A
:101860000EE7120EE1120EDB120ED5120766120EF3
:10187000E7120EE1120EDB120ED5120766120EE70A
:0C188000120EE1120EDB120ED5D2AF22C8
:1019FD0002108D104E21FFFFFFFFFFFF09FF01FFBA
:101A0D0055AA01FFFFFFFFFF03FFFFFF25D0285061
:0D1A1D0004FF02FF7AFF0701FFFF0000FF3A
:101A400023535F485F343023202020202020202093
:101A500023424C48454C492445464D3842323123B7
:101A60002020202020202020202020202020202076
:101C0000C2AFC2D37597DE7597AD7581C075A90057
:101C100043FF80752438752503B1EA7529A5752A17
:101C2000F143F12053A4DFD28575D4FF75E3407DE5
:101C3000FA780379E67C10752200752300901DF771
:101C40007B06752498752501E4308510C0E0E430EA
:101C5000850AD5E0FAD0E0D5E0EF806D208508D880
:101C6000FBD9F9DCF781C9308508D8FBD9F9DCF755
:101C700081C9B1AAE493A3C39A6004DDB481C9DB2E
:101C8000DBB19C600281317B08E493FAA3B17DDB78
:101C9000F87A30B17D752200752300B19CEAFCEB27
:101CA000FDC3ED94FE400EB19C8A278B28ED30E0F9
:101CB000048A828B83B19C7AC270D8C3ED94FE6093
:101CC0001950CEBD0029EC600F7520007521FF75FD
:101CD0002900752A000200008100A827A928080908
:101CE000D804D90281ECB1A0EAF281E00D81B5C33C
:101CF000ED94035051EDA2E092007AC5C3E58294C1
:101D000000E583941C508C200010438F02438F0108
:101D10008529B7852AB7F0300027A827A928080900
:101D2000438F01538FFDD804D902A141C3E58394A9
:101D30001C4003A3A126E28529B7852AB7F0A3A1F9
:101D400026538FFC81917AC1BD030CE493A3FAB1B1
:101D500061DCF8B15981918193AA22AB23B17DEB6B
:101D6000FAEA6222752608C3E52313F523E5221358
:101D7000F52250066323A0632201D526EAB1EAB119
:101D8000EA75260AEAF4200102D285300102C285F2
:101D9000B1EAC3134002C201D526EB22B1A0EAFB8F
:101DA000208502A1A0308502A1A5752608AE24AF2A
:101DB00025C3EF13FFEE13FEB1EEB1EAC3EA133011
:101DC00085024480FA30E703632201C3E52313F55B
:101DD00023E52213F52250066323A0632201D526B2
:101DE000D9E52265236523F52222AE24AF250E0F07
:101DF000DEFEDFFCD20122424C48656C693437318B
:051E000064E8B20601D8
:00000001FF
