:020000040000FA
:060000000219FD02073D9C
:03000B0002029658
:0300130002075988
:03001B0002059E3D
:03002B0002032E9F
:03005B0002076B2E
:0300730002036322
:1000C0000406080C10182030406080A0C09000D1B9
:1000D0007301F101FE210E211E212B213B2148211C
:1000E0005B216B217E2188219821A521BB21C8217C
:1000F000DBA6F008A66F08A66D08856DF022A6F0B5
:1001000008A66D08A66E08A66D08856DF022E56E3E
:10011000B5F002E56FF608A66F08856DF022A6F02F
:1001200008A66D08A66F08856DF022A6F008A66ED9
:1001300008A66D08A66D08856DF022A6F008A66ECB
:1001400008A66E08856DF022E56EB5F002E56FF643
:1001500008A66D08A66E08856DF022A6F008A66DAB
:1001600008A66D08A66E08856DF022E56EB5F00252
:10017000E56FF608A66E08A66D08856DF022A6F05C
:1001800008A66F08856EF022E56EB5F002E56FF601
:1001900008A66E08856EF022A6F008A66D08A66E69
:1001A00008856EF022E56EB5F002E56FF608A66DE3
:1001B00008A66D08A66D08856DF022A6F008A66E4B
:1001C00008A66D08856EF022E56EB5F002E56FF6C3
:1001D00008A66D08A66D08856EF022A6F008A66D2B
:1001E00008A66D08A66D08856EF022E529A24733A2
:1001F000F52875290F8075E529A24733A24633F506
:100200002875290D8066E529A24733A24633A24509
:1002100033F52875290B8054E52854F0C24C452944
:10022000C4F5287529098044E528A24813A249137A
:10023000A24A13F5287529078032E528A24813A29F
:100240004913F5287529058023E528A24813F528C8
:100250007529038017204F93204E9C204DA8204CD9
:10026000B7204BC4204AD32049DFE528C465286560
:1002700029F478D0856DF023541E11CDE528235440
:100280001E11CDE528C423541E11CDE52923541E8B
:1002900011CDA6F00822203B0132C0D0C0E075D0BD
:1002A0001018B8CF3320830BD283856D8A08D0E035
:1002B000D0D03275A404D283C23B758E0C7589AA46
:1002C000C2A9C289C28B758A00758C00758200D262
:1002D000A8D2AAD0E0D0D032B283868AD0E0D0D0E3
:1002E00032203B0122C28DC0D0C0E075D01018B8BA
:1002F000CF3320830BD283856D8A08D0E0D0D02203
:1003000075A404D283C23B758E0C7589AAC2A9C29A
:1003100089C28B758A00758C00758200D2A8D2AA1A
:10032000D0E0D0D022B283868AD0E0D0D022C0D014
:10033000C0E0C2CF053BE5626009E561600575611B
:1003400000801B756101E52360021523C3E54E6043
:1003500005754F008008054FE54F7002154FD0E03E
:10036000D0D032C2AF53E67F7592FA7593FFC220A8
:1003700053917FD2AF32C0D075D010E52C7004E518
:100380002B601EE52BA26013F528A261132528F52A
:1003900028E52C03C2E7F52903C2E73529F52980B2
:1003A000067528FF7529FF5155C28D758A9E758E79
:1003B000097589A2D23BD2A9D28375A40CD0D032C0
:1003C000758200752800752900752A00780075F07F
:1003D00000E0C0E0C395F0D0F028C39566780040F7
:1003E00007D24B95674001F80582E0C0E0C395F065
:1003F000D0F028C3956678004007D24A956740013F
:10040000F80582E0C0E0C395F0D0F028C395667887
:10041000004007D24995674001F80582E0C0E0C37B
:1004200095F0D0F028C3956678004007D2489567CC
:100430004001F80582E0C0E0C395F0D0F028C395F4
:100440006678004007D24795674001F80582E0C012
:10045000E0C395F0D0F028C3956678004007D246F7
:1004600095674001F80582E0C0E0C395F0D0F02820
:10047000C3956678004007D24595674001F805822C
:10048000E0C0E0C395F0D0F028C39566780040073F
:10049000D24495674001F80582E0C0E0C395F0D0F2
:1004A000F028C3956678004007D24395674001F86D
:1004B0000582E0C0E0C395F0D0F028C395667800CF
:1004C0004007D24295674001F80582E0C0E0C3953D
:1004D000F0D0F028C3956678004007D24195674078
:1004E00001F80582E0C0E0C395F0D0F028C395661E
:1004F00078004007D24095674001F80582E0C0E0EF
:10050000C395F0D0F028C3956678004007D2539584
:10051000674001F80582E0C0E0C395F0D0F028C341
:10052000956678004007D25295674001F80582E051
:10053000C0E0C395F0D0F028C3956678004007D29C
:100540005195674001F80582E0C0E0C395F0D0F016
:1005500028C3956678004007D25095674001F8059A
:1005600082E528C465286529303701F4652A540FCF
:1005700022900000D2A8D2AA0522E52270021522FC
:100580000522E52270021522C3E52294324005754A
:100590004E00A19775230AD0F0D0E0D0D032C2AF80
:1005A000C2A8C28EC0D0C0E0C0F075D008C2CAA830
:1005B000CCA9CDD2CAD2AF758A00C3E89569F8E953
:1005C000956AF9E970ABE8956B40A6956C50A2E589
:1005D00082B4109D71C07099A928E528C39460FA6F
:1005E000E5299400FB50177B007A00E96010C313E3
:1005F000500CB54C04054D8005F54C754D00303759
:10060000027176303A27C3EA94D0F8EB9407F940A8
:100610000BE8FAE9FB203509D235C121303502C299
:1006200035203902B235C3EA33FAEB33FBEB2B3B0F
:100630003BF9C3EB13FBEA13FAEA29FAEB3400FBAC
:1006400030E3047AFF7BFFE5255403601C202A1960
:10065000E55D33F9EB7007C3E99A4002E9FAE53644
:10066000C433332AFAEB3400FBC3EA33C4540FF823
:10067000EB33C454F048F87005EA60027801E522D3
:1006800060021522D230884EE54E6003754F00ACF3
:100690005BC3E55B955C4002AC5CC3EC954E5008D7
:1006A000EC75F008A4FAABF08A54535407EB13131B
:1006B00092D5A2E7F45401F9EA13A2D513F4F8C3D2
:1006C000E89446FAE99400FB50047A007B00C3E802
:1006D0009550F5F0E99551E5F023501428F556743E
:1006E0000139F55754FE701A75560075570080127F
:1006F00028F556740039F55754FE60067556FF7597
:100700005701C3E5569446F558E5579400F55950FE
:1007100006755800755900885089518A528B53E5E7
:100720005A755A027003755A0175230A20370790CB
:100730000000D2A8D2AAD0F0D0E0D0D032C0E0E5FC
:100740008AF0058285688BD0E032C289C0E0E58AF4
:10075000F0058285688BD0E022C2AA85688BD28E94
:10076000C2CA85CC6985CD6AD2CA3253E6EF3279E6
:1007700001801479038010790A800C791E80087931
:1007800064800479C880007817E4D5E0FDD8FAD9F0
:10079000F62278FF20282879A1E76023E542601F30
:1007A00074FF8542F0848539F030290375F005A483
:1007B000F8C5F0600278FFC3E8955D5002A85D8837
:1007C0005C22C3E54194A0E5429400E55C5003142B
:1007D0008001046002F55C2275E89022055EC3E5A5
:1007E0005E9408405330EDF4A8BDA9BE755E00E9E3
:1007F000FA79A0E76041EA7006E55F6018800CC3F3
:10080000E8955F600EE55F5005600A14800704609C
:10081000FA8002E55FF55FC39565401B755BC0C359
:1008200094044013755B80C39404400B755B40C314
:1008300094044003755B0022E55B2410500274FFB2
:10084000F55B22743279A687F0A4C5F0A2F733F5E0
:100850005D227541007542F022C2AFC2CAA8CCA980
:10086000CDAA3B30CF010AD2CAD2AFC3EA13FAE90C
:1008700013F9E813F8AB3CAC3D883C893DC3E89BD9
:10088000F8E99C20280A547FF9302C022176804018
:10089000AD3E8A3EF9EA9D547FFA600678FF79FF03
:1008A0008013AE3FAF408B3F8C40A83CA93DC3E8CE
:1008B0009EF8E99FF9C3E54213FBE54113FAE82AE4
:1008C000F541E93BF54250087541FF7542FF804D07
:1008D000AA41AB42AC41AD427E047F02C3EB94041B
:1008E000400D1E1FC3EB940840052029021E1FC3A4
:1008F000ED13FDEC13FCDEF7C3EA9CFAEB9DFBEF76
:100900006009C3E913F9E813F8DFF7EA28FAEB39CD
:10091000FB8A418B4250067BFF8B418B42C3EB9499
:10092000025002D22C3028047F03801C7892E6FF0C
:10093000C3E537948240110FC3E53794A040010FFF
:10094000C3EF940640027F057E02E542C4540FF9CE
:10095000E542C454F0F8E541C4540F28F8C3E89EBA
:10096000FAE99400FB400AC3EA9401EB94004001C9
:10097000227A01E4FB22AA41AB42EBC4FEEAC45452
:100980000F4EFCC3EA9CFAEB9400FBC3E813C313BD
:10099000F8EA28FAEB3400FB8A418B42C3EB94025D
:1009A0004002C22C7802EBC4FE7B00EAC4540F4E16
:1009B000FAC3EA98FA4005C3940150027A0178928A
:1009C000E6FF22C2AF85412B85422CD2AF302002F8
:1009D00021CD854892854993D22043E68022C3E405
:1009E0009AF8E49BF9C3E833F8E933F9202C6FE86F
:1009F000FAE9FBD3E913FDE813FC88488949C3EF02
:100A000094036037EF20E00CE82CF8E93DF9ECFAAC
:100A1000EDFB8013E828F8E939F9C3E82401F8E987
:100A20003400F97AFF7BFFC3EF9403400E8A4A8BB0
:100A30004B884489458C468D478057884A894B8A24
:100A4000448B458C468D47302812754AF0754BFF14
:100A50007546F07547FF7548F07549FF8034E8FA30
:100A6000D3E813FC8848C3EF94036020EF20E0072D
:100A7000E82CF8ECFA417EE8282401F87AFFC3EF6D
:100A8000940340088A4A88448C468006884A8A44EF
:100A90008C463020024192753402D22043E680E534
:100AA000255403602DA841A942C3E913F9E813F8BE
:100AB000302804E92440F9C2AF53E67F759100C3A2
:100AC000E498F594E499F595759104D22043E68075
:100AD000D2AF22D221754300752000302B03752040
:100AE0004041F1D221754300752040302B03752021
:100AF0000078017901202C28E52554036002C221E9
:100B00007914E542C313700104F8C39414400278C9
:100B100014302804781B791BC3E833F8C3E933F990
:100B2000202010E543600C302803D53404D2226124
:100B3000A4519A0543E59B5440B52002618E3028AC
:100B40000908C3E899400118612020210A08C3E878
:100B500099400241F16120C22153E67F7591003036
:100B60002C117594007595F0759104D22043E680A0
:100B7000020AF1E5427EFFC3334009C3334005C397
:100B8000334001FEC3E49E759400F5956168C3E5AA
:100B9000339401500241F130210241F1D80261A2A7
:100BA0006120C222C2AF53E67F759100854A9485C9
:100BB0004B95759104854492854593D22043E680F8
:100BC000D2AFE52554036007202902053380103099
:100BD000220D202B0A202107158115810215CA221A
:100BE00078003021027801E53775F007A4F9E5F0C7
:100BF00028F5F0E9A2F013A2F113A2F213F537C31E
:100C000094785003753778C3E53795384009C29119
:100C1000C292C29375D57F30200281178546928596
:100C20004793D22043E68022A224E55092E08552E9
:100C3000F98553FA53F77FF5FB8551FC8552E98519
:100C400053EA308D031202E130890312074A43F759
:100C500080F5FB8551FC8552E98553EA22A224E503
:100C60005692E08558F98559FA53F77FF5FB855779
:100C7000FC8558E98559EA308D031202E130890379
:100C800012074A43F780F5FB8557FC8558E98559DB
:100C9000EA22E555455412160FF555D22430E005E9
:100CA0005355FEC22422D223D55A04055AC2239199
:100CB00092203829C2AFC295C29620230D75D80064
:100CC000912875D53775D840800B75D800915D7522
:100CD000D53775D840D294D2AF759F4522C2AFC2E6
:100CE00094C29520230D75D800912875D56D75D8BF
:100CF00040800B75D800915D75D56D75D840D29642
:100D0000D2AF759F4522D223D55A04055AC22391EA
:100D100092203829C2AFC295C29620230D75D80003
:100D2000912875D55B75D840800B75D800915D759D
:100D3000D55B75D840D294D2AF759F6522C2AFC241
:100D400094C29520230D75D800912875D55B75D870
:100D500040800B75D800915D75D55B75D840D296F3
:100D6000D2AF759F7522D223D55A04055AC223915A
:100D700092203829C2AFC294C29520230D75D800A5
:100D8000912875D55B75D840800B75D800915D753D
:100D9000D55B75D840D296D2AF759F7522C2AFC2CF
:100DA00095C29620230D75D800912875D55B75D80E
:100DB00040800B75D800915D75D55B75D840D29495
:100DC000D2AF759F6522D223D55A04055AC223910A
:100DD00092203829C2AFC294C29520230D75D80045
:100DE000912875D56D75D840800B75D800915D75CB
:100DF000D56D75D840D296D2AF759F4522C2AFC28D
:100E000095C29620230D75D800912875D53775D8D1
:100E100040800B75D800915D75D53775D840D29458
:100E2000D2AF759F4522D223D55A04055AC22391C9
:100E300092203829C2AFC294C29620230D75D800E3
:100E4000912875D56D75D840800B75D800915D756A
:100E5000D56D75D840D295D2AF759F6522C2AFC20D
:100E600094C29620230D75D800912875D53775D872
:100E700040800B75D800915D75D53775D840D295F7
:100E8000D2AF759F7522D223D55A04055AC2239139
:100E900092203829C2AFC294C29620230D75D80083
:100EA000912875D53775D840800B75D800915D7540
:100EB000D53775D840D295D2AF759F7522C2AFC2D3
:100EC00094C29620230D75D800912875D56D75D8DC
:100ED00040800B75D800915D75D56D75D840D29561
:100EE000D2AF759F65227A147B7880127A107B8C42
:100EF000800C7A0D7BB480067A0B7BC88000E5609D
:100F0000D5E001227902E4C295D5E0FDD292D5E088
:100F1000FDC292D5E0FDD295D5E0FDE920E002D2F8
:100F20009130E002D293E560D5E0FDE920E002C215
:100F30009130E002C2937496D5E0FDD9C9EAF8D5A4
:100F4000E0FDD8FBDBB8C29522C291C292C293C227
:100F500094C295C29675D57F22788076FF0876FF79
:100F60000876FF0876FF0876FF0876FF08760908FE
:100F700076FF087601788C76010876FF0876FF0800
:100F800076FF0876FF0876FF0876030876FF087676
:100F9000FF0876FF0876250876D008762808765070
:100FA0000876040876FF0876020876FF08767A0845
:100FB00076FF0876070876010876FF0876FF087640
:100FC00000087600227888E6C39403D23A5002C221
:100FD0003AC238E630E102D238A23892397886E651
:100FE000149000C09378A6F67886E6F539C394028B
:100FF0005003753902789CE67538FFB402037538E2
:10100000A0B4030375388278A0E6F860067428243B
:1010100009D8FCF565120F492278A5E6F95403D2E8
:10102000827002C282E9540C7000E954307000E909
:1010300054C070002275683C75662075671E303795
:101040000375671B756B6C756C14756DFF756EECB5
:10105000756FDD2275680075664075673C30370333
:10106000756736756B9D756C87756DFF756ED1757F
:101070006FB022741E208315C0D0C0E0740AD5E082
:10108000FDD0E0D0D02083EBD5E0EDC322C0D0C0AE
:10109000E0740AD5E0FDD0E0D0D03083D6D5E0EDC5
:1010A000D3227563007564007597DE7597AD758101
:1010B000AF43FF8075EF0675A900120F497580FBDD
:1010C00075F10F75A4047580FB75D4FF75900075DC
:1010D000F27E75A57E75900075D57F75A60175E3C6
:1010E0004075E202120F49E47800F6D8FD120F595C
:1010F000F15178988660753001C2AF120783120EE5
:10110000E612077B120EEC12077B120EF212077B1F
:101110001119C2AF75A91375A71075C10075A70085
:1011200075620075630075640078FA79FA30830798
:10113000D9FBD8F7021C0075A71075C13075A70040
:1011400075A903756201120FC578988660120F4960
:1011500075C80475910475D84075D90875F78175FF
:101160009E03755520755A0175960275DA4275DB36
:1011700042759B80759D0075D10C75BCB975BB100F
:1011800075E88075B20112076F753600C23012071C
:1011900083D23411739237C23B752B00752C0075C6
:1011A000E4B330370375E43B758851758E0C75894F
:1011B000AA758C00758D00758E0C75E68075B80368
:1011C00075A828D2AF115475223212077F754C00D2
:1011D000754D00C3E52294024002211212077320CC
:1011E00030022112E54E60022112C2AF120EE61249
:1011F0000EE6120EE6D2AF12078375630075640027
:1012000012077FE54E60022112C2AF120EF8120ED5
:10121000F8120EF8D2AF120783753000752B0075E7
:101220002C00E4F531F5320531E531F4703F05323B
:10123000789AE67819146012783214600D787D146B
:10124000600878FA146003753200C3E53298401DD7
:10125000120F4912076F153275310078998660C2F6
:10126000AF120EF8D2AF7898866012077F12077718
:10127000E52370022112C3E54E9401500AC3E54CE8
:101280009401501602122712077FE5237003021102
:1012900012754C00754D0002143CC3E54C9401706E
:1012A00017C2AF120F4978998660120EE6789886B9
:1012B00060D2AF12077F812EC3E54C94027017C233
:1012C000AF120F4978998660120EEC78988660D23A
:1012D000AF12077F812EC3E54C94037017C2AF1283
:1012E0000F4978998660120EF278988660D2AF1214
:1012F000077F812EC3E54C94047017C2AF120F49CB
:1013000078998660120EF878988660D2AF12077FBF
:10131000812EC3E54C94057017C2AF120F4978991E
:101320008660120EF878988660D2AF12077F812E01
:10133000C3E54C94077019C3E54D940650024176FD
:101340007401303A0274037888F6C238C239812EAB
:10135000C3E54C94087019C3E54D940650024176DC
:101360007402303A0274047888F6D238D239812E69
:10137000C3E54C94097017C3E54D940650024176BD
:10138000303A0BC37888E69402F6C23A812EC3E560
:101390004C940A7016C3E54D940650024176203AEB
:1013A0000A7888E62402F6D23A812EC3E54C9414DA
:1013B0007025C3E54D940650024176C2AF901A0BDA
:1013C000740093D2AF7888F613C238C2394002D283
:1013D000384002D2398057C3E54C94157038C3E5C4
:1013E0004D9406404FC2AF901A0B740093D2AFF8E1
:1013F000B801027402B802027401B803027404B89E
:10140000040274037888F613C238C2394002D23815
:101410004002D2398018C3E54C940C70117563A555
:101420007564F1C3E54D9406400AF198D2AF754C4E
:1014300000754D007563007564004176120F4975A3
:101440005E00752400752500753700755E0812076B
:101450006F1207D830EDFDA8BDA9BEE97001F8886C
:101460005F1207DC755E08C2AF120843855D5B85BD
:101470005D5CD2AF303A07C238303502D238D2285C
:10148000753300120E26120E8612085212085912D7
:1014900009C31209DE1208521208591209C31209AF
:1014A000DE120852120AE3120BE0120CA6120859BF
:1014B0001209C31209DE120AD3202C03120792303C
:1014C0002C031207C2120BE0120D06120859120962
:1014D000C31209DE120AE3120BE0120D661208595C
:1014E0001209C31209DE120AD3120BE0120DC61242
:1014F00008591209C31209DE120AE3120BE0120E98
:10150000261208591209C31209DE1207D8120AD38B
:10151000120BE0120E861207DC1208591209C312D0
:1015200009DE302827855D5B79187A0CC3E533998D
:10153000400EC228D2298A35855D5B855D5C800CB2
:10154000C3E54E940140030214A4A1D230291F2008
:101550002B1CE535147006C229D22A81A4F535204A
:101560003A07C3E54E940140030214A48064753623
:1015700000203A0F78FA79A4E760027803C3E54FB8
:1015800098504FE523604B303A1720380520350737
:10159000800F303502800A202B07D22B855D5B81BE
:1015A000E678F0302B05855D5B7820C3E5429850E6
:1015B000030214A4302B1BC22BC238303502D238A0
:1015C000D229753512855D5B81A40536E54E600232
:1015D000A1D5753600C2AF120F49752500D2AF12E2
:1015E000077F120F4975240078A4E66006D294D2D2
:1015F00095D296C3E536940440022112411C832201
:10160000010203040D090508040D090C08040D83EB
:10161000220102030405060708393129211911099D
:1016200010083931292119111810083931292119C7
:10163000201810083931292128201810083931299B
:10164000302820181008393138302820181008396F
:1016500083220102030405060708090A0B0C0D0E7C
:101660000F10F1E1D1C1B1A19181716151413121DD
:10167000112010F1E1D1C1B1A191817161514131CC
:1016800021302010F1E1D1C1B1A1918171615141AD
:101690003140302010F1E1D1C1B1A191817161518E
:1016A000415040302010F1E1D1C1B1A1918171616F
:1016B00051605040302010F1E1D1C1B1A191817150
:1016C0006170605040302010F1E1D1C1B1A1918131
:1016D000718070605040302010F1E1D1C1B1A19112
:1016E00081908070605040302010F1E1D1C1B1A1F3
:1016F00091A0908070605040302010F1E1D1C1B1D4
:10170000A1B0A0908070605040302010F1E1D1C1B4
:10171000B1C0B0A0908070605040302010F1E1D195
:10172000C1D0C0B0A0908070605040302010F1E176
:10173000D1E0D0C0B0A0908070605040302010F157
:10174000E1F0E0D0C0B0A090807060504030201038
:10175000F1901A0D7820F1D4E520B4550AA3F1D404
:10176000E520B4AA0280137563A57564F1120F59C0
:10177000F198756300756400801D901A0378807B72
:101780000AF1D4A308DBFA901A0F788C7B1AF1D4F3
:10179000A308DBFA901A2922C2AF121819F1F490AB
:1017A0001A007410F1D9A3744EF1D9A37421F1D9A0
:1017B000901A0378807B0AF1D8A308DBFA901A0FFD
:1017C000788C7B1AF1D8A308DBFA12182D121808AE
:1017D000901A2922E493F622E6438F01538FFDFFEE
:1017E000C3E583941C400122EF8563B78564B7F09D
:1017F000538FFE22438F02438F018563B78564B701
:10180000901A0DF0538FFC22901A0D74551217D9AF
:10181000901A0E74AA1217D9227A3079D0782090B3
:101820001A401217D4E520F709A3DAF6227A3079A4
:10183000D0901A40E71217D909A3DAF8227C0512D2
:101840000783DCFB22C2AF120EE6120EEC120EF280
:10185000120EF8120777120EE6120EEC120EF212AA
:101860000EF8120777120EE6120EEC120EF2120E9E
:10187000F8D2AF22C2AF120EF8120EF2120EEC1214
:101880000EE6120777120EF8120EF2120EEC120E7E
:10189000E6120777120EF8120EF2120EEC120EE696
:0318A000D2AF22A2
:1019FD000210A2104E21FFFFFFFFFFFF09FF01FFA5
:101A0D0055AA01FFFFFFFFFF03FFFFFF25D0285061
:0D1A1D0004FF02FF7AFF0701FFFF0000FF3A
:101A4000234D5F485F373023202020202020202096
:101A500023424C48454C492445464D3842323123B7
:101A60002020202020202020202020202020202076
:101C0000C2AFC2D37597DE7597AD7581C075A90057
:101C100043FF80752438752503B1EA7529A5752A17
:101C2000F143F10853A4F7D28375D4FF75E3407DE7
:101C3000FA780379E67C10752200752300901DF771
:101C40007B06752498752501E4308310C0E0E430EC
:101C5000830AD5E0FAD0E0D5E0EF806D208308D884
:101C6000FBD9F9DCF781C9308308D8FBD9F9DCF757
:101C700081C9B1AAE493A3C39A6004DDB481C9DB2E
:101C8000DBB19C600281317B08E493FAA3B17DDB78
:101C9000F87A30B17D752200752300B19CEAFCEB27
:101CA000FDC3ED94FE400EB19C8A278B28ED30E0F9
:101CB000048A828B83B19C7AC270D8C3ED94FE6093
:101CC0001950CEBD0029EC600F7520007521FF75FD
:101CD0002900752A000200008100A827A928080908
:101CE000D804D90281ECB1A0EAF281E00D81B5C33C
:101CF000ED94035051EDA2E092007AC5C3E58294C1
:101D000000E583941C508C200010438F02438F0108
:101D10008529B7852AB7F0300027A827A928080900
:101D2000438F01538FFDD804D902A141C3E58394A9
:101D30001C4003A3A126E28529B7852AB7F0A3A1F9
:101D400026538FFC81917AC1BD030CE493A3FAB1B1
:101D500061DCF8B15981918193AA22AB23B17DEB6B
:101D6000FAEA6222752608C3E52313F523E5221358
:101D7000F52250066323A0632201D526EAB1EAB119
:101D8000EA75260AEAF4200102D283300102C283F6
:101D9000B1EAC3134002C201D526EB22B1A0EAFB8F
:101DA000208302A1A0308302A1A5752608AE24AF2E
:101DB00025C3EF13FFEE13FEB1EEB1EAC3EA133011
:101DC00083024480FA30E703632201C3E52313F55D
:101DD00023E52213F52250066323A0632201D526B2
:101DE000D9E52265236523F52222AE24AF250E0F07
:101DF000DEFEDFFCD20122424C48656C693437318B
:051E000064E8B20601D8
:00000001FF
