:020000040000FA
:060000000219FD02073D9C
:03000B0002029658
:0300130002075988
:03001B0002059E3D
:03002B0002032E9F
:03005B0002076B2E
:0300730002036322
:1000C0000406080C10182030406080A0C09000D1B9
:1000D0007301F101FE210E211E212B213B2148211C
:1000E0005B216B217E2188219821A521BB21C8217C
:1000F000DBA6F008A66F08A66D08856DF022A6F0B5
:1001000008A66D08A66E08A66D08856DF022E56E3E
:10011000B5F002E56FF608A66F08856DF022A6F02F
:1001200008A66D08A66F08856DF022A6F008A66ED9
:1001300008A66D08A66D08856DF022A6F008A66ECB
:1001400008A66E08856DF022E56EB5F002E56FF643
:1001500008A66D08A66E08856DF022A6F008A66DAB
:1001600008A66D08A66E08856DF022E56EB5F00252
:10017000E56FF608A66E08A66D08856DF022A6F05C
:1001800008A66F08856EF022E56EB5F002E56FF601
:1001900008A66E08856EF022A6F008A66D08A66E69
:1001A00008856EF022E56EB5F002E56FF608A66DE3
:1001B00008A66D08A66D08856DF022A6F008A66E4B
:1001C00008A66D08856EF022E56EB5F002E56FF6C3
:1001D00008A66D08A66D08856EF022A6F008A66D2B
:1001E00008A66D08A66D08856EF022E529A24733A2
:1001F000F52875290F8075E529A24733A24633F506
:100200002875290D8066E529A24733A24633A24509
:1002100033F52875290B8054E52854F0C24C452944
:10022000C4F5287529098044E528A24813A249137A
:10023000A24A13F5287529078032E528A24813A29F
:100240004913F5287529058023E528A24813F528C8
:100250007529038017204F93204E9C204DA8204CD9
:10026000B7204BC4204AD32049DFE528C465286560
:1002700029F478D0856DF023541E11CDE528235440
:100280001E11CDE528C423541E11CDE52923541E8B
:1002900011CDA6F00822203B0132C0D0C0E075D0BD
:1002A0001018B8CF3320850BD285856D8A08D0E031
:1002B000D0D03275A480D285C23B758E0C7589AAC8
:1002C000C2A9C289C28B758A00758C00758200D262
:1002D000A8D2AAD0E0D0D032B285868AD0E0D0D0E1
:1002E00032203B0122C28DC0D0C0E075D01018B8BA
:1002F000CF3320850BD285856D8A08D0E0D0D022FF
:1003000075A480D285C23B758E0C7589AAC2A9C21C
:1003100089C28B758A00758C00758200D2A8D2AA1A
:10032000D0E0D0D022B285868AD0E0D0D022C0D012
:10033000C0E0C2CF053BE5626009E561600575611B
:1003400000801B756101E52360021523C3E54E6043
:1003500005754F008008054FE54F7002154FD0E03E
:10036000D0D032C2AF53E67F7592FA7593FFC220A8
:1003700053917FD2AF32C0D075D010E52C7004E518
:100380002B601EE52BA26013F528A261132528F52A
:1003900028E52C03C2E7F52903C2E73529F52980B2
:1003A000067528FF7529FF5155C28D758A9E758E79
:1003B000097589A2D23BD2A9D28575A4A0D0D0322A
:1003C000758200752800752900752A00780075F07F
:1003D00000E0C0E0C395F0D0F028C39566780040F7
:1003E00007D24B95674001F80582E0C0E0C395F065
:1003F000D0F028C3956678004007D24A956740013F
:10040000F80582E0C0E0C395F0D0F028C395667887
:10041000004007D24995674001F80582E0C0E0C37B
:1004200095F0D0F028C3956678004007D2489567CC
:100430004001F80582E0C0E0C395F0D0F028C395F4
:100440006678004007D24795674001F80582E0C012
:10045000E0C395F0D0F028C3956678004007D246F7
:1004600095674001F80582E0C0E0C395F0D0F02820
:10047000C3956678004007D24595674001F805822C
:10048000E0C0E0C395F0D0F028C39566780040073F
:10049000D24495674001F80582E0C0E0C395F0D0F2
:1004A000F028C3956678004007D24395674001F86D
:1004B0000582E0C0E0C395F0D0F028C395667800CF
:1004C0004007D24295674001F80582E0C0E0C3953D
:1004D000F0D0F028C3956678004007D24195674078
:1004E00001F80582E0C0E0C395F0D0F028C395661E
:1004F00078004007D24095674001F80582E0C0E0EF
:10050000C395F0D0F028C3956678004007D2539584
:10051000674001F80582E0C0E0C395F0D0F028C341
:10052000956678004007D25295674001F80582E051
:10053000C0E0C395F0D0F028C3956678004007D29C
:100540005195674001F80582E0C0E0C395F0D0F016
:1005500028C3956678004007D25095674001F8059A
:1005600082E528C465286529303701F4652A540FCF
:1005700022900000D2A8D2AA0522E52270021522FC
:100580000522E52270021522C3E52294324005754A
:100590004E00A19775230AD0F0D0E0D0D032C2AF80
:1005A000C2A8C28EC0D0C0E0C0F075D008C2CAA830
:1005B000CCA9CDD2CAD2AF758A00C3E89569F8E953
:1005C000956AF9E970ABE8956B40A6956C50A2E589
:1005D00082B4109D71C07099A928E528C39460FA6F
:1005E000E5299400FB50177B007A00E96010C313E3
:1005F000500CB54C04054D8005F54C754D00303759
:10060000027176303A27C3EA94D0F8EB9407F940A8
:100610000BE8FAE9FB203509D235C121303502C299
:1006200035203902B235C3EA33FAEB33FBEB2B3B0F
:100630003BF9C3EB13FBEA13FAEA29FAEB3400FBAC
:1006400030E3047AFF7BFFE5255403601C202A1960
:10065000E55D33F9EB7007C3E99A4002E9FAE53644
:10066000C433332AFAEB3400FBC3EA33C4540FF823
:10067000EB33C454F048F87005EA60027801E522D3
:1006800060021522D230884EE54E6003754F00ACF3
:100690005BC3E55B955C4002AC5CC3EC954E5008D7
:1006A000EC75F008A4FAABF08A54535407EB13131B
:1006B00092D5A2E7F45401F9EA13A2D513F4F8C3D2
:1006C000E89414FAE99400FB50047A007B00C3E834
:1006D0009550F5F0E99551E5F023501428F556743E
:1006E0000139F55754FE701A75560075570080127F
:1006F00028F556740039F55754FE60067556FF7597
:100700005701C3E5569414F558E5579400F5595030
:1007100006755800755900885089518A528B53E5E7
:100720005A755A027003755A0175230A20370790CB
:100730000000D2A8D2AAD0F0D0E0D0D032C0E0E5FC
:100740008AF0058285688BD0E032C289C0E0E58AF4
:10075000F0058285688BD0E022C2AA85688BD28E94
:10076000C2CA85CC6985CD6AD2CA3253E6EF3279E6
:1007700001801479038010790A800C791E80087931
:1007800064800479C880007817E4D5E0FDD8FAD9F0
:10079000F62278FF20282879A1E76023E542601F30
:1007A00074FF8542F0848539F030290375F005A483
:1007B000F8C5F0600278FFC3E8955D5002A85D8837
:1007C0005C22C3E54194A0E5429400E55C5003142B
:1007D0008001046002F55C2275E89022055EC3E5A5
:1007E0005E9408405330EDF4A8BDA9BE755E00E9E3
:1007F000FA79A0E76041EA7006E55F6018800CC3F3
:10080000E8955F600EE55F5005600A14800704609C
:10081000FA8002E55FF55FC39565401B755BC0C359
:1008200094044013755B80C39404400B755B40C314
:1008300094044003755B0022E55B2410500274FFB2
:10084000F55B22743279A687F0A4C5F0A2F733F5E0
:100850005D227541007542F022C2AFC2CAA8CCA980
:10086000CDAA3B30CF010AD2CAD2AFC3EA13FAE90C
:1008700013F9E813F8AB3CAC3D883C893DC3E89BD9
:10088000F8E99C20280A547FF9302C022176804018
:10089000AD3E8A3EF9EA9D547FFA600678FF79FF03
:1008A0008013AE3FAF408B3F8C40A83CA93DC3E8CE
:1008B0009EF8E99FF9C3E54213FBE54113FAE82AE4
:1008C000F541E93BF54250087541FF7542FF804D07
:1008D000AA41AB42AC41AD427E047F02C3EB94041B
:1008E000400D1E1FC3EB940840052029021E1FC3A4
:1008F000ED13FDEC13FCDEF7C3EA9CFAEB9DFBEF76
:100900006009C3E913F9E813F8DFF7EA28FAEB39CD
:10091000FB8A418B4250067BFF8B418B42C3EB9499
:10092000025002D22C3028047F03801C7892E6FF0C
:10093000C3E537948240110FC3E53794A040010FFF
:10094000C3EF940640027F057E02E542C4540FF9CE
:10095000E542C454F0F8E541C4540F28F8C3E89EBA
:10096000FAE99400FB400AC3EA9401EB94004001C9
:10097000227A01E4FB22AA41AB42EBC4FEEAC45452
:100980000F4EFCC3EA9CFAEB9400FBC3E813C313BD
:10099000F8EA28FAEB3400FB8A418B42C3EB94025D
:1009A0004002C22C7802EBC4FE7B00EAC4540F4E16
:1009B000FAC3EA98FA4005C3940150027A0178928A
:1009C000E6FF22C2AF85412B85422CD2AF302002F8
:1009D00021CD854892854993D22043E68022C3E405
:1009E0009AF8E49BF9C3E833F8E933F9202C6FE86F
:1009F000FAE9FBD3E913FDE813FC88488949C3EF02
:100A000094036037EF20E00CE82CF8E93DF9ECFAAC
:100A1000EDFB8013E828F8E939F9C3E82401F8E987
:100A20003400F97AFF7BFFC3EF9403400E8A4A8BB0
:100A30004B884489458C468D478057884A894B8A24
:100A4000448B458C468D47302812754AF0754BFF14
:100A50007546F07547FF7548F07549FF8034E8FA30
:100A6000D3E813FC8848C3EF94036020EF20E0072D
:100A7000E82CF8ECFA417EE8282401F87AFFC3EF6D
:100A8000940340088A4A88448C468006884A8A44EF
:100A90008C463020024192753402D22043E680E534
:100AA000255403602DA841A942C3E913F9E813F8BE
:100AB000302804E92440F9C2AF53E67F759100C3A2
:100AC000E498F594E499F595759104D22043E68075
:100AD000D2AF22D221754300752000302B03752040
:100AE0004041F1D221754300752040302B03752021
:100AF0000078017901202C28E52554036002C221E9
:100B00007914E542C313700104F8C39414400278C9
:100B100014302804781B791BC3E833F8C3E933F990
:100B2000202010E543600C302803D53404D2226124
:100B3000A4519A0543E59B5440B52002618E3028AC
:100B40000908C3E899400118612020210A08C3E878
:100B500099400241F16120C22153E67F7591003036
:100B60002C117594007595F0759104D22043E680A0
:100B7000020AF1E5427EFFC3334009C3334005C397
:100B8000334001FEC3E49E759400F5956168C3E5AA
:100B9000339401500241F130210241F1D80261A2A7
:100BA0006120C222C2AF53E67F759100854A9485C9
:100BB0004B95759104854492854593D22043E680F8
:100BC000D2AFE52554036007202902053380103099
:100BD000220D202B0A2021071581158102161322D0
:100BE00078003021027801E53775F007A4F9E5F0C7
:100BF00028F5F0E9A2F013A2F113A2F213F537C31E
:100C000094785003753778C3E5379538400CC29611
:100C1000C294C29075D4FF75D57F302002811A85A9
:100C20004692854793D22043E68022A224E5509243
:100C3000E08552F98553FA53F77FF5E98551EA8546
:100C400052FB8553FC308D031202E13089031207F9
:100C50004A43F780F5E98551EA8552FB8553FC222A
:100C6000A224E55692E08558F98559FA53F77FF5A5
:100C7000E98557EA8558FB8559FC308D031202E15E
:100C800030890312074A43F780F5E98557EA85580A
:100C9000FB8559FC22E5554554121658F555D224CA
:100CA00030E0055355FEC22422D223D55A04055AFA
:100CB000C223919520382FC2AFC291C28720231042
:100CC00075D800912B75D47F75D57E75D840800E70
:100CD00075D800916075D47F75D57E75D840D29552
:100CE000D2AF759F1222C2AFC295C2912023107558
:100CF000D800912B75D4FF75D51F75D840800E751F
:100D0000D800916075D4FF75D51F75D840D287D2B1
:100D1000AF759F1222D223D55A04055AC22391954A
:100D200020382FC2AFC291C28720231075D80091FE
:100D30002B75D4FF75D56D75D840800E75D8009190
:100D40006075D4FF75D56D75D840D295D2AF759FBB
:100D50003222C2AFC295C29120231075D800912BC8
:100D600075D4FF75D56D75D840800E75D80091602B
:100D700075D4FF75D56D75D840D287D2AF759F02F7
:100D800022D223D55A04055AC223919520382FC266
:100D9000AFC295C29120231075D800912B75D4FF56
:100DA00075D56D75D840800E75D800916075D4FFEB
:100DB00075D56D75D840D287D2AF759F0222C2AF6C
:100DC000C291C28720231075D800912B75D4FF756E
:100DD000D56D75D840800E75D800916075D4FF75BB
:100DE000D56D75D840D295D2AF759F3222D223D51A
:100DF0005A04055AC223919520382FC2AFC295C21A
:100E00009120231075D800912B75D4FF75D51F75CF
:100E1000D840800E75D800916075D4FF75D51F75C8
:100E2000D840D287D2AF759F1222C2AFC291C2877B
:100E300020231075D800912B75D47F75D57E75D879
:100E400040800E75D800916075D47F75D57E75D8B9
:100E500040D295D2AF759F1222D223D55A04055A9B
:100E6000C223919520382FC2AFC295C2872023108C
:100E700075D800912B75D4FF75D51F75D840800E9D
:100E800075D800916075D4FF75D51F75D840D29183
:100E9000D2AF759F3222C2AFC295C2872023107590
:100EA000D800912B75D47F75D57E75D840800E758E
:100EB000D800916075D47F75D57E75D840D291D217
:100EC000AF759F0222D223D55A04055AC2239195A9
:100ED00020382FC2AFC295C28720231075D8009149
:100EE0002B75D47F75D57E75D840800E75D800914E
:100EF0006075D47F75D57E75D840D291D2AF759F7D
:100F00000222C2AFC295C28720231075D800912B50
:100F100075D4FF75D51F75D840800E75D8009160C7
:100F200075D4FF75D51F75D840D291D2AF759F3259
:100F3000227A147B7880127A107B8C800C7A0D7B5D
:100F4000B480067A0B7BC88000E560D5E001227989
:100F500002E4C291D5E0FDD294D5E0FDC294D5E083
:100F6000FDD291D5E0FDE920E002D29630E002D238
:100F700090E560D5E0FDE920E002C29630E002C2D3
:100F8000907496D5E0FDD9C9EAF8D5E0FDD8FBDB31
:100F9000B8C29122C296C294C290C295C291C28731
:100FA00075D4FF75D57F22788076FF0876FF0876A6
:100FB000FF0876FF0876FF0876FF0876090876FFB7
:100FC000087601788C76010876FF0876FF0876FFB0
:100FD0000876FF0876FF0876030876FF0876FF0894
:100FE00076FF0876250876D00876280876500876A9
:100FF000040876FF0876020876FF08767A0876FFFE
:101000000876070876010876FF0876FF087600085C
:101010007600227888E6C39403D23A5002C23AC2DC
:1010200038E630E102D238A23892397886E6149058
:1010300000C09378A6F67886E6F539C3940250038B
:10104000753902789CE67538FFB402037538A0B490
:10105000030375388278A0E6F8600674282409D85E
:10106000FCF565120F942278A5E6F954037000E9A7
:10107000540C7000E954307000E954C070002275BF
:10108000683C75662075671E30370375671B756B86
:101090006C756C14756DFF756EEC756FDD2275687F
:1010A0000075664075673C303703756736756B9D14
:1010B000756C87756DFF756ED1756FB022741E20CB
:1010C0008515C0D0C0E0740AD5E0FDD0E0D0D020B6
:1010D00085EBD5E0EDC322C0D0C0E0740AD5E0FDB9
:1010E000D0E0D0D03085D6D5E0EDD3227563007541
:1010F00064007597DE7597AD7581AF43FF8075EF1E
:101100000675A900120F9475807F75F1F075A480A3
:1011100075807F75D4FF75900075F27375A5737532
:10112000900075D57F75A60175E34075E202120F38
:1011300094E47800F6D8FD120FA7F19A78988660AB
:10114000753001C2AF120783120F3112077B120FE5
:101150003712077B120F3D12077B1167C2AF75A9CB
:101160001375A71075C10075A7007562007563003F
:1011700075640078FA79FA308507D9FBD8F7021C34
:101180000075A71075C13075A70075A903756201B8
:10119000111378988660120F9475C80475910475C0
:1011A000D84075D90875F781759E03755520755A15
:1011B0000175960175DB4275DA42759B80759D005D
:1011C00075D10C75BCB975BB1075E88075B201128C
:1011D000076F753600C230120783D23411BD9237C3
:1011E000C23B752B00752C0075E4D530370375E4D0
:1011F0005D758851758E0C7589AA758C00758D008A
:10120000758E0C75E68075B80375A828D2AF119E4F
:1012100075223212077F754C00754D00C3E522948C
:10122000024002215C120773203002215CE54E600F
:1012300002215CC2AF120F31120F31120F31D2AF47
:1012400012078375630075640012077FE54E600224
:10125000215CC2AF120F43120F43120F43D2AF12E1
:101260000783753000752B00752C00E4F531F532DD
:101270000531E531F4703F0532789AE6781914604B
:1012800012783214600D787D14600878FA146003C7
:10129000753200C3E53298401D120F9412076F1586
:1012A0003275310078998660C2AF120F43D2AF78A1
:1012B00098866012077F120777E5237002215CC3CE
:1012C000E54E9401500AC3E54C9401501602127089
:1012D00012077FE523700302115C754C00754D0009
:1012E000021485C3E54C94017017C2AF120F9478B5
:1012F000998660120F3178988660D2AF12077F818D
:1013000077C3E54C94027017C2AF120F9478998698
:1013100060120F3778988660D2AF12077F8177C34B
:10132000E54C94037017C2AF120F9478998660123F
:101330000F3D78988660D2AF12077F8177C3E54C66
:1013400094047017C2AF120F9478998660120F43FD
:1013500078988660D2AF12077F8177C3E54C9405F9
:101360007017C2AF120F9478998660120F43789865
:101370008660D2AF12077F8177C3E54C940770195E
:10138000C3E54D9406500241BF7401303A02740324
:101390007888F6C238C2398177C3E54C9408701951
:1013A000C3E54D9406500241BF7402303A02740402
:1013B0007888F6D238D2398177C3E54C9409701712
:1013C000C3E54D9406500241BF303A0BC37888E61E
:1013D0009402F6C23A8177C3E54C940A7016C3E5CD
:1013E0004D9406500241BF203A0A7888E62402F65E
:1013F000D23A8177C3E54C94147025C3E54D940629
:10140000500241BFC2AF901A0B740093D2AF7888DC
:10141000F613C238C2394002D2384002D23980575E
:10142000C3E54C94157038C3E54D9406404FC2AFE8
:10143000901A0B740093D2AFF8B801027402B8028C
:10144000027401B803027404B8040274037888F6C5
:1014500013C238C2394002D2384002D2398018C390
:10146000E54C940C70117563A57564F1C3E54D945A
:1014700006400AF1E5D2AF754C00754D007563006A
:1014800075640041BF120F94755E007524007525C8
:1014900000753700755E0812076F1207D830EDFD32
:1014A000A8BDA9BEE97001F8885F1207DC755E0867
:1014B000C2AF120843855D5B855D5CD2AF303A07F1
:1014C000C238303502D238D228753300120E591284
:1014D0000EC51208521208591209C31209DE120869
:1014E000521208591209C31209DE120852120AE3F5
:1014F000120BE0120CA91208591209C31209DE12CC
:101500000AD3202C03120792302C031207C2120BAD
:10151000E0120D151208591209C31209DE120AE36E
:10152000120BE0120D811208591209C31209DE12C2
:101530000AD3120BE0120DED1208591209C3120959
:10154000DE120AE3120BE0120E591208591209C3F7
:101550001209DE1207D8120AD3120BE0120EC512BE
:1015600007DC1208591209C31209DE302827855DED
:101570005B79187A0CC3E53399400EC228D2298AC8
:1015800035855D5B855D5C800CC3E54E9401400351
:101590000214EDC11B30291F202B1CE535147006E9
:1015A000C229D22A81EDF535203A07C3E54E9401D0
:1015B00040030214ED8064753600203A0F78FA7902
:1015C000A4E760027803C3E54F98504FE523604BD2
:1015D000303A17203805203507800F303502800A51
:1015E000202B07D22B855D5BA12F78F0302B058552
:1015F0005D5B7820C3E5429850030214ED302B1B4D
:10160000C22BC238303502D238D229753512855DE9
:101610005B81ED0536E54E6002C11E753600C2AF36
:10162000120F94752500D2AF12077F120F94752404
:101630000078A4E66006D295D291D287C3E53694AD
:10164000044002215C41658322010203040D090567
:1016500008040D090C08040D832201020304050689
:10166000070839312921191109100839312921199F
:101670001118100839312921192018100839312979
:10168000212820181008393129302820181008394D
:10169000313830282018100839832201020304054C
:1016A000060708090A0B0C0D0E0F10F1E1D1C1B1AC
:1016B000A19181716151413121112010F1E1D1C11C
:1016C000B1A19181716151413121302010F1E1D1FD
:1016D000C1B1A19181716151413140302010F1E1DE
:1016E000D1C1B1A19181716151415040302010F1BF
:1016F000E1D1C1B1A19181716151605040302010A0
:10170000F1E1D1C1B1A1918171617060504030208F
:1017100010F1E1D1C1B1A191817180706050403070
:101720002010F1E1D1C1B1A1918190807060504051
:10173000302010F1E1D1C1B1A191A0908070605032
:1017400040302010F1E1D1C1B1A1B0A09080706013
:101750005040302010F1E1D1C1B1C0B0A0908070F4
:10176000605040302010F1E1D1C1D0C0B0A09080D5
:1017700070605040302010F1E1D1E0D0C0B0A090B6
:101780008070605040302010F1E1F0E0D0C0B0A097
:10179000908070605040302010F1901A0D78201227
:1017A0001822E520B4550BA3121822E520B4AA0292
:1017B00080137563A57564F1120FA7F1E5756300D9
:1017C000756400801F901A0378807B0A121822A388
:1017D00008DBF9901A0F788C7B1A121822A308DB09
:1017E000F9901A2922C2AF121865121842901A00F5
:1017F0007410121827A3744E121827A374211127EE
:10180000901A0378807B0A1126A308DBFA901A0F3E
:10181000788C7B1A1126A308DBFA11781156901ADE
:101820002922E493F622E6438F01538FFDFFC3E59F
:1018300083941C400122EF8563B78564B7F0538F12
:10184000FE22438F02438F018563B78564B7901AE8
:101850000DF0538FFC22901A0D74551127901A0E1B
:1018600074AA1127227A3079D07820901A40112258
:10187000E520F709A3DAF7227A3079D0901A40E709
:10188000112709A3DAF9227C05120783DCFB22C2A7
:10189000AF120F31120F37120F3D120F431207779D
:1018A000120F31120F37120F3D120F43120777122A
:1018B0000F31120F37120F3D120F43D2AF22C2AFBA
:1018C000120F43120F3D120F37120F31120777120A
:1018D0000F43120F3D120F37120F31120777120FFD
:0D18E00043120F3D120F37120F31D2AF220D
:1019FD000210EC104E21FFFFFFFFFFFF09FF01FF5B
:101A0D0055AA01FFFFFFFFFF03FFFFFF25D0285061
:0D1A1D0004FF02FF7AFF0701FFFF0000FF3A
:101A400023565F485F323023202020202020202092
:101A500023424C48454C492445464D3842323123B7
:101A60002020202020202020202020202020202076
:101C0000C2AFC2D37597DE7597AD7581C075A90057
:101C100043FF80752438752503B1EA7529A5752A17
:101C2000F143F12053A4DFD28575D4FF75E3407DE5
:101C3000FA780379E67C10752200752300901DF771
:101C40007B06752498752501E4308510C0E0E430EA
:101C5000850AD5E0FAD0E0D5E0EF806D208508D880
:101C6000FBD9F9DCF781C9308508D8FBD9F9DCF755
:101C700081C9B1AAE493A3C39A6004DDB481C9DB2E
:101C8000DBB19C600281317B08E493FAA3B17DDB78
:101C9000F87A30B17D752200752300B19CEAFCEB27
:101CA000FDC3ED94FE400EB19C8A278B28ED30E0F9
:101CB000048A828B83B19C7AC270D8C3ED94FE6093
:101CC0001950CEBD0029EC600F7520007521FF75FD
:101CD0002900752A000200008100A827A928080908
:101CE000D804D90281ECB1A0EAF281E00D81B5C33C
:101CF000ED94035051EDA2E092007AC5C3E58294C1
:101D000000E583941C508C200010438F02438F0108
:101D10008529B7852AB7F0300027A827A928080900
:101D2000438F01538FFDD804D902A141C3E58394A9
:101D30001C4003A3A126E28529B7852AB7F0A3A1F9
:101D400026538FFC81917AC1BD030CE493A3FAB1B1
:101D500061DCF8B15981918193AA22AB23B17DEB6B
:101D6000FAEA6222752608C3E52313F523E5221358
:101D7000F52250066323A0632201D526EAB1EAB119
:101D8000EA75260AEAF4200102D285300102C285F2
:101D9000B1EAC3134002C201D526EB22B1A0EAFB8F
:101DA000208502A1A0308502A1A5752608AE24AF2A
:101DB00025C3EF13FFEE13FEB1EEB1EAC3EA133011
:101DC00085024480FA30E703632201C3E52313F55B
:101DD00023E52213F52250066323A0632201D526B2
:101DE000D9E52265236523F52222AE24AF250E0F07
:101DF000DEFEDFFCD20122424C48656C693437318B
:051E000064E8B20601D8
:00000001FF
