:020000040000FA
:060000000219FD020725B4
:03000B0002029658
:03001300020741A0
:03001B0002058E4D
:03002B0002032E9F
:03005B0002075346
:0300730002036322
:1000C0000406080C10182030406080A0C09000D1B9
:1000D0007301F101FE210E211E212B213B2148211C
:1000E0005B216B217E2188219821A521BB21C8217C
:1000F000DBA6F008A66F08A66D08856DF022A6F0B5
:1001000008A66D08A66E08A66D08856DF022E56E3E
:10011000B5F002E56FF608A66F08856DF022A6F02F
:1001200008A66D08A66F08856DF022A6F008A66ED9
:1001300008A66D08A66D08856DF022A6F008A66ECB
:1001400008A66E08856DF022E56EB5F002E56FF643
:1001500008A66D08A66E08856DF022A6F008A66DAB
:1001600008A66D08A66E08856DF022E56EB5F00252
:10017000E56FF608A66E08A66D08856DF022A6F05C
:1001800008A66F08856EF022E56EB5F002E56FF601
:1001900008A66E08856EF022A6F008A66D08A66E69
:1001A00008856EF022E56EB5F002E56FF608A66DE3
:1001B00008A66D08A66D08856DF022A6F008A66E4B
:1001C00008A66D08856EF022E56EB5F002E56FF6C3
:1001D00008A66D08A66D08856EF022A6F008A66D2B
:1001E00008A66D08A66D08856EF022E529A24733A2
:1001F000F52875290F8075E529A24733A24633F506
:100200002875290D8066E529A24733A24633A24509
:1002100033F52875290B8054E52854F0C24C452944
:10022000C4F5287529098044E528A24813A249137A
:10023000A24A13F5287529078032E528A24813A29F
:100240004913F5287529058023E528A24813F528C8
:100250007529038017204F93204E9C204DA8204CD9
:10026000B7204BC4204AD32049DFE528C465286560
:1002700029F478D0856DF023541E11CDE528235440
:100280001E11CDE528C423541E11CDE52923541E8B
:1002900011CDA6F00822203B0132C0D0C0E075D0BD
:1002A0001018B8CF3320850BD285856D8A08D0E031
:1002B000D0D03275A480D285C23B758E0C7589AAC8
:1002C000C2A9C289C28B758A00758C00758200D262
:1002D000A8D2AAD0E0D0D032B285868AD0E0D0D0E1
:1002E00032203B0122C28DC0D0C0E075D01018B8BA
:1002F000CF3320850BD285856D8A08D0E0D0D022FF
:1003000075A480D285C23B758E0C7589AAC2A9C21C
:1003100089C28B758A00758C00758200D2A8D2AA1A
:10032000D0E0D0D022B285868AD0E0D0D022C0D012
:10033000C0E0C2CF053BE5626009E561600575611B
:1003400000801B756101E52360021523C3E54E6043
:1003500005754F008008054FE54F7002154FD0E03E
:10036000D0D032C2AF53E67F7592FA7593FFC220A8
:1003700053917FD2AF32C0D075D010E52C7004E518
:100380002B601EE52BA26013F528A261132528F52A
:1003900028E52C03C2E7F52903C2E73529F52980B2
:1003A000067528FF7529FF5155C28D758AAB758E6C
:1003B000097589A2D23BD2A9D28575A4A0D0D0322A
:1003C000758200752800752900752A00780075F07F
:1003D00000E0C0E0C395F0D0F028C39566780040F7
:1003E00006D24B956740000582E0C0E0C395F0D08F
:1003F000F028C3956678004006D24A95674000050C
:1004000082E0C0E0C395F0D0F028C3956678004044
:1004100006D249956740000582E0C0E0C395F0D060
:10042000F028C3956678004006D2489567400005DD
:1004300082E0C0E0C395F0D0F028C3956678004014
:1004400006D247956740000582E0C0E0C395F0D032
:10045000F028C3956678004006D2469567400005AF
:1004600082E0C0E0C395F0D0F028C39566780040E4
:1004700006D245956740000582E0C0E0C395F0D004
:10048000F028C3956678004006D244956740000581
:1004900082E0C0E0C395F0D0F028C39566780040B4
:1004A00006D243956740000582E0C0E0C395F0D0D6
:1004B000F028C3956678004006D242956740000553
:1004C00082E0C0E0C395F0D0F028C3956678004084
:1004D00006D241956740000582E0C0E0C395F0D0A8
:1004E000F028C3956678004006D240956740000525
:1004F00082E0C0E0C395F0D0F028C3956678004054
:1005000006D253956740000582E0C0E0C395F0D065
:10051000F028C3956678004006D2529567400005E2
:1005200082E0C0E0C395F0D0F028C3956678004023
:1005300006D251956740000582E0C0E0C395F0D037
:10054000F028C3956678004006D2509567400005B4
:1005500082E528C465286529303701F4652A540FDF
:1005600022900000D2A8D2AA0522E522700215220C
:100570000522E52270021522C3E52294324005755A
:100580004E00A18775230AD0F0D0E0D0D032C2AFA0
:10059000C2A8C28EC0D0C0E0C0F075D008C2CAA840
:1005A000CCA9CDD2CAD2AF758A00C3E89569F8E963
:1005B000956AF9E970ABE8956B40A6956C50A2E599
:1005C00082B4109D71C07099A928E528C39460FA7F
:1005D000E5299400FB50177B007A00E96010C313F3
:1005E000500CB54C04054D8005F54C754D00303769
:1005F000027176303A27C3EA94D0F8EB9407F940B9
:100600000BE8FAE9FB203509D235C111303502C2B9
:1006100035203902B235C3EA33FAEB33FBEB2B3B1F
:100620003BF9C3EB13FBEA13FAEA29FAEB3400FBBC
:1006300030E3047AFF7BFFE5255403601C202A1970
:10064000E55D33F9EB7007C3E99A4002E9FAE53654
:10065000C433332AFAEB3400FBC3EA33C4540FF833
:10066000EB33C454F048F87005EA60027801E522E3
:1006700060021522D230884EE54E6003754F00AC03
:100680005BC3E55B955C4002AC5CC3EC954E5008E7
:10069000EC75F008A4FAABF08A54535403EB13F44E
:1006A0005403F9EA13F4F8C3E89446FAE99400FB1A
:1006B00050047A007B00C3E89550F5F0E99551E5C8
:1006C000F023501428F556740339F55754FC701A6A
:1006D000755600755700801228F556740039F55785
:1006E00054FC60067556FF755703C3E5569446F5EE
:1006F00058E5579400F5595006755800755900880B
:100700005089518A528B53E55A755A027003755AB3
:100710000175230A203707900000D2A8D2AAD0F092
:10072000D0E0D0D032C0E0E58AF0058285688BD079
:10073000E032C289C0E0E58AF0058285688BD0E0AE
:1007400022C2AA85688BD28EC2CA85CC6985CD6A41
:10075000D2CA3253E6EF32790180147903801079DE
:100760000A800C791E80087964800479C88000783A
:1007700017E4D5E0FDD8FAD9F62278FF20282879A9
:10078000A1E76023E542601F74FF8542F08485394C
:10079000F030290375F005A4F8C5F0600278FFC3B6
:1007A000E8955D5002A85D885C22C3E54194A0E510
:1007B000429400E55C5003148001046002F55C2261
:1007C00075E89022055EC3E55E9408405330EDF471
:1007D000A8BDA9BE755E00E9FA79A0E76041EA709C
:1007E00006E55F6018800CC3E8955F600EE55F501A
:1007F00005600A1480070460FA8002E55FF55FC3B4
:100800009565401B755BC0C394044013755B80C342
:100810009404400B755B40C394044003755B002255
:10082000E55B2410500274FFF55B22743279A687D1
:10083000F0A4C5F0A2F733F55D227541007542F0D2
:1008400022C2AFC2CAA8CCA9CDAA3B30CF010AD2DE
:10085000CAD2AFC3EA13FAE913F9E813F8AB3CAC18
:100860003D883C893DC3E89BF8E99C20280A547FD9
:10087000F9302C02215E8040AD3E8A3EF9EA9D545B
:100880007FFA600678FF79FF8013AE3FAF408B3F61
:100890008C40A83CA93DC3E89EF8E99FF9C3E54216
:1008A00013FBE54113FAE82AF541E93BF54250080C
:1008B0007541FF7542FF804DAA41AB42AC41AD424C
:1008C0007E047F02C3EB9404400D1E1FC3EB94080B
:1008D00040052029021E1FC3ED13FDEC13FCDEF7BB
:1008E000C3EA9CFAEB9DFBEF6009C3E913F9E81337
:1008F000F8DFF7EA28FAEB39FB8A418B4250067B96
:10090000FF8B418B42C3EB94025002D22C3028045F
:100910007F03801C7892E6FFC3E537948240110F75
:10092000C3E53794A040010FC3EF940640027F0552
:100930007E02E542C4540FF9E542C454F0F8E541A3
:10094000C4540F28F8C3E89EFAE99400FB400AC398
:10095000EA9401EB94004001227A01E4FB22AA41CF
:10096000AB42EBC4FEEAC4540F4EFCC3EA9CFAEB64
:100970009400FBC3E813C313F8EA28FAEB3400FB36
:100980008A418B42C3EB94024002C22C7802EBC432
:10099000FE7B00EAC4540F4EFAC3EA98FA4005C33E
:1009A000940150027A017892E6FF22C2AF85412B72
:1009B00085422CD2AF30200221B5854892854993DB
:1009C000D22043E68022C3E49AF8E49BF9C3E833DB
:1009D000F8E933F9202C6FE8FAE9FBD3E913FDE8D5
:1009E00013FC88488949C3EF94036037EF20E00C7B
:1009F000E82CF8E93DF9ECFAEDFB8013E828F8E97A
:100A000039F9C3E82401F8E93400F97AFF7BFFC320
:100A1000EF9403400E8A4A8B4B884489458C468D5F
:100A2000478057884A894B8A448B458C468D47308E
:100A30002812754AF0754BFF7546F07547FF7548EB
:100A4000F07549FF8034E8FAD3E813FC8848C3EF17
:100A500094036020EF20E007E82CF8ECFA4166E808
:100A6000282401F87AFFC3EF940340088A4A884497
:100A70008C468006884A8A448C46302002417A752A
:100A80003402D22043E680E5255403602DA841A915
:100A900042C3E913F9E813F8302804E92440F9C205
:100AA000AF53E67F759100C3E498F594E499F5950A
:100AB000759104D22043E680D2AF22D22175430043
:100AC000752000302B0375204041D9D22175430099
:100AD000752040302B0375200078017901202C28E7
:100AE000E52554036002C2217914E542C313700165
:100AF00004F8C3941440027814302804781B791B3E
:100B0000C3E833F8C3E933F9202010E543600C3023
:100B10002803D53404D222618C51820543E59B54CD
:100B200040B52002617630280908C3E899400118D1
:100B3000610820210A08C3E899400241D96108C22E
:100B40002153E67F759100302C117594007595F056
:100B5000759104D22043E680020AD9E5427EFFC3A4
:100B6000334009C3334005C3334001FEC3E49E75DF
:100B70009400F5956150C3E5339401500241D9309A
:100B8000210241D9D802618A6108C222C2AF53E66C
:100B90007F759100854A94854B95759104854492A3
:100BA000854593D22043E680D2AFE5255403600704
:100BB0002029020533801030220D202B0A20210726
:100BC000158115810215FC2278003021027801E59B
:100BD0003775F007A4F9E5F028F5F0E9A2F013A2C3
:100BE000F113A2F213F537C394785003753778C325
:100BF000E5379538400CC296C294C29075D4FF7503
:100C0000D57F3020028102854692854793D22043CA
:100C1000E68022A224E55092E08552F98553FA53EA
:100C2000F77FF5E98551EA8552FB8553FC308D034A
:100C30001202E130890312073243F780F5E985514A
:100C4000EA8552FB8553FC22A224E55692E08558A2
:100C5000F98559FA53F77FF5E98557EA8558FB85F9
:100C600059FC308D031202E130890312073243F739
:100C700080F5E98557EA8558FB8559FC22E55545FD
:100C800054121630F555D22430E0055355FEC224D7
:100C900022D223D55A04055AC223917D20382FC26F
:100CA000AFC291C28720231075D800911375D47FED
:100CB00075D57E75D840800E75D800914875D47F63
:100CC00075D57E75D840D295D2AF759F1222C2AF2E
:100CD000C295C29120231075D800911375D4FF7569
:100CE000D51F75D840800E75D800914875D4FF7512
:100CF000D51F75D840D287D2AF759F1222D223D587
:100D00005A04055AC223917D20382FC2AFC291C226
:100D10008720231075D800911375D4FF75D56D7594
:100D2000D840800E75D800914875D4FF75D56D7583
:100D3000D840D295D2AF759F3222C2AFC295C29130
:100D400020231075D800911375D4FF75D56D75D813
:100D500040800E75D800914875D4FF75D56D75D853
:100D600040D287D2AF759F0222D223D55A04055AAA
:100D7000C223917D20382FC2AFC295C2912023108B
:100D800075D800911375D4FF75D56D75D840800E58
:100D900075D800914875D4FF75D56D75D840D28748
:100DA000D2AF759F0222C2AFC291C28720231075B5
:100DB000D800911375D4FF75D56D75D840800E7528
:100DC000D800914875D4FF75D56D75D840D295D2AD
:100DD000AF759F3222D223D55A04055AC223917D82
:100DE00020382FC2AFC295C29120231075D8009130
:100DF0001375D4FF75D51F75D840800E75D8009136
:100E00004875D4FF75D51F75D840D287D2AF759F6E
:100E10001222C2AFC291C28720231075D80091134D
:100E200075D47F75D57E75D840800E75D8009148F1
:100E300075D47F75D57E75D840D295D2AF759F1287
:100E400022D223D55A04055AC223917D20382FC2BD
:100E5000AFC295C28720231075D800911375D4FFB7
:100E600075D51F75D840800E75D800914875D4FF90
:100E700075D51F75D840D291D2AF759F3222C2AFBF
:100E8000C295C28720231075D800911375D47F7541
:100E9000D57E75D840800E75D800914875D47F7581
:100EA000D57E75D840D291D2AF759F0222D223D57C
:100EB0005A04055AC223917D20382FC2AFC295C271
:100EC0008720231075D800911375D47F75D57E7552
:100ED000D840800E75D800914875D47F75D57E7541
:100EE000D840D291D2AF759F0222C2AFC295C287BD
:100EF00020231075D800911375D4FF75D51F75D8B0
:100F000040800E75D800914875D4FF75D51F75D8EF
:100F100040D291D2AF759F32227A147B7880127AB8
:100F2000107B8C800C7A0D7BB480067A0B7BC8809A
:100F300000E560D5E001227902E4C291D5E0FDD25E
:100F400094D5E0FDC294D5E0FDD291D5E0FDE92035
:100F5000E002D29630E002D290E560D5E0FDE920D3
:100F6000E002C29630E002C2907496D5E0FDD9C985
:100F7000EAF8D5E0FDD8FBDBB8C29122C296C29454
:100F8000C290C295C291C28775D4FF75D57F227871
:100F90008076FF0876FF0876FF0876FF0876FF0860
:100FA00076FF0876090876FF087601788C760108C6
:100FB00076FF0876FF0876FF0876FF0876FF08764A
:100FC000030876FF0876FF0876FF0876250876D0B6
:100FD0000876280876500876040876FF0876020816
:100FE00076FF08767A0876FF087607087601087695
:100FF000FF0876FF087600087600227888E6C3941A
:1010000003D23A5002C23AC238E630E102D238A2E4
:101010003892397886E6149000C09378A6F67886E0
:10102000E6F539C394025003753902789CE67538A9
:10103000FFB402037538A0B4030375388278A0E6C4
:10104000F8600674282409D8FCF565120F7C227814
:10105000A5E6F954037000E9540C7000E9543070AF
:1010600000E954C070002275683C75662075671EE3
:1010700030370375671B756B6C756C14756DFF7578
:101080006EEC756FDD2275680075664075673C30E3
:101090003703756732756BD9756C28756DFF756E82
:1010A000D1756FB122741E208515C0D0C0E0740ABE
:1010B000D5E0FDD0E0D0D02085EBD5E0EDC322C057
:1010C000D0C0E0740AD5E0FDD0E0D0D03085D6D5D0
:1010D000E0EDD3227563007564007597DE7597ADFA
:1010E0007581AF43FF8075EF0675A900120F7C75FF
:1010F000807F75F1F075A48075807F75D4FF759041
:101100000075F27375A57375900075D57F75A6018E
:1011100075E34075E202120F7CE47800F6D8FD1208
:101120000F8FF18378988660753001C2AF12076B1C
:10113000120F19120763120F1F120763120F2512E5
:101140000763114FC2AF75A91375A71075C100755C
:10115000A70075620075630075640078FA79FA304B
:101160008507D9FBD8F7021C0075A71075C130752B
:10117000A70075A903756201120FFB7898866012AB
:101180000F7C75C80475910475D84075D90875F73A
:1011900082759E03755508755A0175960175DB4277
:1011A00075DA42759B80759D0075D10C75BCB9755B
:1011B000BB1075E88075B201120757753600C23052
:1011C00012076BD23411A59237C23B752B00752CD8
:1011D0000075E4D530370375E45D758851758E0C64
:1011E0007589AA758C00758D00758E0C75E68075F5
:1011F000B80375A828D2AF11867522321207677519
:101200004C00754D00C3E5229402400221441207B0
:101210005B2030022144E54E60022144C2AF120F30
:1012200019120F19120F19D2AF12076B75630075DF
:101230006400120767E54E60022144C2AF120F2B13
:10124000120F2B120F2BD2AF12076B753000752BBC
:1012500000752C00E4F531F5320531E531F4703FCD
:101260000532789AE67819146012783214600D7895
:101270007D14600878FA146003753200C3E5329873
:10128000401D120F7C120757153275310078998670
:1012900060C2AF120F2BD2AF789886601207671228
:1012A000075FE52370022144C3E54E9401500AC351
:1012B000E54C94015016021259120767E52370039A
:1012C000021144754C00754D0002146EC3E54C9438
:1012D000017017C2AF120F7C78998660120F1978CF
:1012E000988660D2AF1207678160C3E54C940270A4
:1012F00017C2AF120F7C78998660120F1F789886FC
:1013000060D2AF1207678160C3E54C94037017C2C7
:10131000AF120F7C78998660120F2578988660D27C
:10132000AF1207678160C3E54C94047017C2AF1217
:101330000F7C78998660120F2B78988660D2AF1256
:1013400007678160C3E54C94057017C2AF120F7C2C
:1013500078998660120F2B78988660D2AF12076753
:101360008160C3E54C94077019C3E54D94065002A3
:1013700041A87401303A0274037888F6C238C23941
:101380008160C3E54C94087019C3E54D9406500282
:1013900041A87402303A0274047888F6D238D239FF
:1013A0008160C3E54C94097017C3E54D9406500263
:1013B00041A8303A0BC37888E69402F6C23A8160BD
:1013C000C3E54C940A7016C3E54D9406500241A83B
:1013D000203A0A7888E62402F6D23A8160C3E54CC6
:1013E00094147025C3E54D9406500241A8C2AF90F5
:1013F0001A0B740093D2AF7888F613C238C2394002
:1014000002D2384002D2398057C3E54C9415703867
:10141000C3E54D9406404FC2AF901A0B740093D2AF
:10142000AFF8B801027402B802027401B803027482
:1014300004B8040274037888F613C238C239400233
:10144000D2384002D2398018C3E54C940C70117523
:1014500063A57564F1C3E54D9406400AF1CED2AFA1
:10146000754C00754D0075630075640041A8120F3E
:101470007C755E00752400752500753700755E0863
:101480001207571207C030EDFDA8BDA9BEE97001D3
:10149000F8885F1207C4755E08C2AF12082B855D1D
:1014A0005B855D5CD2AF303A07C238303502D23846
:1014B000D228753300120E41120EAD12083A1208EE
:1014C000411209AB1209C612083A1208411209ABBF
:1014D0001209C612083A120ACB120BC8120C91124A
:1014E00008411209AB1209C6120ABB202C031207CD
:1014F0007A302C031207AA120BC8120CFD120841F5
:101500001209AB1209C6120ACB120BC8120D6912CE
:1015100008411209AB1209C6120ABB120BC8120D00
:10152000D51208411209AB1209C6120ACB120BC818
:10153000120E411208411209AB1209C61207C0125D
:101540000ABB120BC8120EAD1207C41208411209D1
:10155000AB1209C6302827855D5B79187A0CC3E584
:101560003399400EC228D2298A35855D5B855D5C42
:10157000800CC3E54E940140030214D6C104302907
:101580001F202B1CE535147006C229D22A81D6F5FE
:1015900035203A07C3E54E940140030214D6806417
:1015A000753600203A0F78FA79A4E760027803C311
:1015B000E54F98504FE523604B303A17203805200F
:1015C0003507800F303502800A202B07D22B855D2E
:1015D0005BA11878F0302B05855D5B7820C3E54270
:1015E0009850030214D6302B1BC22BC23830350260
:1015F000D238D229753512855D5B81D60536E54E28
:101600006002C107753600C2AF120F7C752500D28B
:10161000AF120767120F7C75240078A4E66006D22B
:1016200095D291D287C3E536940440022144414EBD
:101630008322010203040D090508040D090C0804A6
:101640000D832201020304050607083931292119F7
:1016500011091008393129211911181008393129B7
:10166000211920181008393129212820181008398B
:101670003129302820181008393138302820181026
:10168000083983220102030405060708090A0B0C26
:101690000D0E0F10F1E1D1C1B1A1918171615141E4
:1016A0003121112010F1E1D1C1B1A19181716151BC
:1016B000413121302010F1E1D1C1B1A1918171619D
:1016C00051413140302010F1E1D1C1B1A19181717E
:1016D0006151415040302010F1E1D1C1B1A191815F
:1016E000716151605040302010F1E1D1C1B1A19140
:1016F00081716170605040302010F1E1D1C1B1A121
:101700009181718070605040302010F1E1D1C1B101
:10171000A19181908070605040302010F1E1D1C1E2
:10172000B1A191A0908070605040302010F1E1D1C3
:10173000C1B1A1B0A0908070605040302010F1E1A4
:10174000D1C1B1C0B0A0908070605040302010F185
:10175000E1D1C1D0C0B0A090807060504030201066
:10176000F1E1D1E0D0C0B0A0908070605040302056
:1017700010F1E1F0E0D0C0B0A09080706050403037
:101780002010F1901A0D782012180DE520B4550B99
:10179000A312180DE520B4AA0280137563A5756421
:1017A000F1120F8FF1CE756300756400801F901ADF
:1017B0000378807B0A12180DA308DBF9901A0F78C2
:1017C0008C7B1A12180DA308DBF9901A2922C2AFDC
:1017D00012185012182D901A007410121812A374B7
:1017E0004E121812A37421121812901A0378807BDB
:1017F0000A121811A308DBF9901A0F788C7B1A11C2
:1018000011A308DBFA11631141901A2922E493F61F
:1018100022E6438F01538FFDFFC3E583941C4001F3
:1018200022EF8563B78564B7F0538FFE22438F02A2
:10183000438F018563B78564B7901A0DF0538FFC11
:1018400022901A0D74551112901A0E74AA111222B8
:101850007A3079D07820901A40110DE520F709A34D
:10186000DAF7227A3079D0901A40E7111209A3DA18
:10187000F9227C0512076BDCFB22C2AF120F191292
:101880000F1F120F25120F2B12075F120F19120FC5
:101890001F120F25120F2B12075F120F19120F1FA5
:1018A000120F25120F2BD2AF22C2AF120F2B120F25
:1018B00025120F1F120F1912075F120F2B120F257F
:1018C000120F1F120F1912075F120F2B120F251282
:0818D0000F1F120F19D2AF2205
:1019FD000210D4104E21FFFFFFFFFFFF09FF01FF73
:101A0D0055AA01FFFFFFFFFF03FFFFFF25D0285061
:0D1A1D0004FF02FF7AFF0701FFFF0000FF3A
:101A400023565F485F37302320202020202020208D
:101A500023424C48454C492445464D3842323123B7
:101A60002020202020202020202020202020202076
:101C0000C2AFC2D37597DE7597AD7581C075A90057
:101C100043FF80752438752503B1EA7529A5752A17
:101C2000F143F12053A4DFD28575D4FF75E3407DE5
:101C3000FA780379E67C10752200752300901DF771
:101C40007B06752498752501E4308510C0E0E430EA
:101C5000850AD5E0FAD0E0D5E0EF806D208508D880
:101C6000FBD9F9DCF781C9308508D8FBD9F9DCF755
:101C700081C9B1AAE493A3C39A6004DDB481C9DB2E
:101C8000DBB19C600281317B08E493FAA3B17DDB78
:101C9000F87A30B17D752200752300B19CEAFCEB27
:101CA000FDC3ED94FE400EB19C8A278B28ED30E0F9
:101CB000048A828B83B19C7AC270D8C3ED94FE6093
:101CC0001950CEBD0029EC600F7520007521FF75FD
:101CD0002900752A000200008100A827A928080908
:101CE000D804D90281ECB1A0EAF281E00D81B5C33C
:101CF000ED94035051EDA2E092007AC5C3E58294C1
:101D000000E583941C508C200010438F02438F0108
:101D10008529B7852AB7F0300027A827A928080900
:101D2000438F01538FFDD804D902A141C3E58394A9
:101D30001C4003A3A126E28529B7852AB7F0A3A1F9
:101D400026538FFC81917AC1BD030CE493A3FAB1B1
:101D500061DCF8B15981918193AA22AB23B17DEB6B
:101D6000FAEA6222752608C3E52313F523E5221358
:101D7000F52250066323A0632201D526EAB1EAB119
:101D8000EA75260AEAF4200102D285300102C285F2
:101D9000B1EAC3134002C201D526EB22B1A0EAFB8F
:101DA000208502A1A0308502A1A5752608AE24AF2A
:101DB00025C3EF13FFEE13FEB1EEB1EAC3EA133011
:101DC00085024480FA30E703632201C3E52313F55B
:101DD00023E52213F52250066323A0632201D526B2
:101DE000D9E52265236523F52222AE24AF250E0F07
:101DF000DEFEDFFCD20122424C48656C693437318B
:051E000064E8B20601D8
:00000001FF
