:020000040000FA
:060000000219FD02069C3E
:03000B0002029658
:030013000206E5FD
:03001B0002055388
:03002B000202E3EB
:03005B000206F7A3
:030073000203186D
:1000C0000406080C10182030406080A0C09000D1B9
:1000D0007301F101FE210E211E212B213B2148211C
:1000E0005B216B217E2188219821A521BB21C8217C
:1000F000DBA6F008A67408A672088572F022A6F0A6
:1001000008A67208A67308A672088572F022E57325
:10011000B5F002E574F608A674088572F022A6F020
:1001200008A67208A674088572F022A6F008A673C5
:1001300008A67208A672088572F022A6F008A673B7
:1001400008A673088572F022E573B5F002E574F62F
:1001500008A67208A673088572F022A6F008A67297
:1001600008A67208A673088572F022E573B5F0023E
:10017000E574F608A67308A672088572F022A6F048
:1001800008A674088573F022E573B5F002E574F6ED
:1001900008A673088573F022A6F008A67208A67355
:1001A000088573F022E573B5F002E574F608A672CF
:1001B00008A67208A672088572F022A6F008A67337
:1001C00008A672088573F022E573B5F002E574F6AF
:1001D00008A67208A672088573F022A6F008A67217
:1001E00008A67208A672088573F022E529A2473393
:1001F000F52875290F8075E529A24733A24633F506
:100200002875290D8066E529A24733A24633A24509
:1002100033F52875290B8054E52854F0C24C452944
:10022000C4F5287529098044E528A24813A249137A
:10023000A24A13F5287529078032E528A24813A29F
:100240004913F5287529058023E528A24813F528C8
:100250007529038017204F93204E9C204DA8204CD9
:10026000B7204BC4204AD32049DFE528C465286560
:1002700029F478D08572F023541E11CDE52823543B
:100280001E11CDE528C423541E11CDE52923541E8B
:1002900011CDA6F008220540203B0132C0D0C0E0BD
:1002A00075D01018B8CF3320830BD28385728A089B
:1002B000D0E0D0D03275A404D283C23B758E0C75C9
:1002C00089AAC2A9C289C28B758A00758C00758201
:1002D00000D2A8D2AAD0E0D0D032B283868AD0E0B1
:1002E000D0D032C0D0C0E0C2CF0541E5676009E59B
:1002F000666005756600801B756601E52360021562
:1003000023C3E554600575550080080555E5557013
:10031000021555D0E0D0D032C2AF53E67F7592FAC5
:100320007593FFC22053917FD2AF32C0D075D010E9
:10033000E52C7004E52B601EE52BA26013F528A2C6
:1003400061132528F528E52C03C2E7F52903C2E748
:100350003529F52980067528FF7529FF5155C28D6D
:10036000758A86758E097589A2D23BD2A9D283750A
:10037000A40CD0D032758200752800752900752A2A
:1003800000780075F000E0C0E0C395F0D0F028C31D
:10039000956B78004007D24B956C4001F80582E0E0
:1003A000C0E0C395F0D0F028C3956B78004007D229
:1003B0004A956C4001F80582E0C0E0C395F0D0F0AA
:1003C00028C3956B78004007D249956C4001F80529
:1003D00082E0C0E0C395F0D0F028C3956B78004070
:1003E00007D248956C4001F80582E0C0E0C395F063
:1003F000D0F028C3956B78004007D247956C400138
:10040000F80582E0C0E0C395F0D0F028C3956B7882
:10041000004007D246956C4001F80582E0C0E0C379
:1004200095F0D0F028C3956B78004007D245956CC5
:100430004001F80582E0C0E0C395F0D0F028C395F4
:100440006B78004007D244956C4001F80582E0C00B
:10045000E0C395F0D0F028C3956B78004007D243F5
:10046000956C4001F80582E0C0E0C395F0D0F0281B
:10047000C3956B78004007D242956C4001F8058225
:10048000E0C0E0C395F0D0F028C3956B780040073A
:10049000D241956C4001F80582E0C0E0C395F0D0F0
:1004A000F028C3956B78004007D240956C4001F866
:1004B0000582E0C0E0C395F0D0F028C3956B7800CA
:1004C0004007D253956C4001F80582E0C0E0C39527
:1004D000F0D0F028C3956B78004007D252956C405D
:1004E00001F80582E0C0E0C395F0D0F028C3956B19
:1004F00078004007D251956C4001F80582E0C0E0D9
:10050000C395F0D0F028C3956B78004007D2509582
:100510006C4001F80582E528C4652865293037015B
:10052000F4652A540F22900000D2A8D2AA0522E531
:1005300022700215220522E52270021522C3E5224F
:1005400094324005755400A14C75230AD0F0D0E0D8
:10055000D0D032C2AFC2A8C28EC0D0C0E0C0F07549
:10056000D008C2CAA8CCA9CDD2CAD2AF758A00C35E
:10057000E8956EF8E9956FF9E970ABE8957040A6DB
:10058000957150A2E582B4109D71757099A928E506
:1005900028C39460FAE5299400FB50177B007A0089
:1005A000E96010C313500CB5520405538005F55291
:1005B000755300303702712B303A27C3EA94D0F8D4
:1005C000EB9407F9400BE8FAE9FB203509D235A195
:1005D000D6303502C235203902B235C3EA33FAEBE0
:1005E00033FBEB2B3B3BF9C3EB13FBEA13FAEA2992
:1005F000FAEB3400FB30E3047AFF7BFFE52554037C
:10060000601B202A18E55E33F9EB7007C3E99A40B6
:1006100002E9FAE53CC4332AFAEB3400FBC3EA33BF
:10062000C4540FF8EB33C454F048F87005EA600284
:100630007801E52260021522D2308854E554600327
:10064000755500AC5CC3E55C955D4002AC5DC3ECE8
:1006500095545008EC75F008A4FAABF08A5A535A36
:100660000F8BF07900EAA2F013A2F113A2F213F4B7
:10067000F8C3E89419FAE99400FB50047A007B006F
:10068000885689578A588B5975230A203707900056
:1006900000D2A8D2AAD0F0D0E0D0D032C0D0C0E0F2
:1006A000E58AF00582856D8BD0E0D0D03230832092
:1006B000F00582856D8BD0E0D0D032F005822083AA
:1006C000FDE58AF00582856D8BD0E0D0D0C28932FD
:1006D000F005823083FDE58AF00582856D8BD0E0E0
:1006E000D0D0C28932C2AA856D8BD28EC2CA85CCC7
:1006F0006E85CD6FD2CA3253E6EF3279018014791C
:10070000038010790A800C791E800879648004794E
:10071000C880007817E4D5E0FDD8FAD9F62278FF32
:1007200020282879A1E76023E548601F74FF8548E9
:10073000F084853FF030290375F005A4F8C5F0601A
:100740000278FFC3E8955E5002A85E885D22C3E58B
:100750004794A0E5489400E55D50031480010460CF
:1007600002F55D2275E89022055FC3E55F940840BD
:100770005330EDF4A8BDA9BE755F00E9FA79A0E792
:100780006041EA7006E5606018800CC3E89560601F
:100790000EE5605005600A1480070460FA8002E5E7
:1007A00060F560C3956A401B755CC0C39404401338
:1007B000755C80C39404400B755C40C39404400393
:1007C000755C0022E55C2410500274FFF55C227415
:1007D0003279A687F0A4C5F0A2F733F55E227547FB
:1007E000007548F022C2AFC2CAA8CCA9CDAA413038
:1007F000CF010AD2CAD2AFC3EA13FAE913F9E81358
:10080000F8AB42AC4388428943C3E89BF8E99C209B
:10081000280A547FF9302C0221028040AD448A44DA
:10082000F9EA9D547FFA600678FF79FF8013AE45A0
:10083000AF468B458C46A842A943C3E89EF8E99F82
:10084000F9C3E54813FBE54713FAE82AF547E93B06
:10085000F54850087547FF7548FF804DAA47AB48DB
:10086000AC47AD487E047F02C3EB9404400D1E1FCD
:10087000C3EB940840052029021E1FC3ED13FDECB5
:1008800013FCDEF7C3EA9CFAEB9DFBEF6009C3E9BA
:1008900013F9E813F8DFF7EA28FAEB39FB8A478BFC
:1008A0004850067BFF8B478B48C3EB94025002D223
:1008B0002C3028047F03801C7892E6FFC3E53D942A
:1008C0008240110FC3E53D94A040010FC3EF940691
:1008D00040027F057E02E548C4540FF9E548C45440
:1008E000F0F8E547C4540F28F8C3E89EFAE99400ED
:1008F000FB400AC3EA9401EB94004001227A01E430
:10090000FB22AA47AB48EBC4FEEAC4540F4EFCC31B
:10091000EA9CFAEB9400FBC3E813C313F8EA28FA45
:10092000EB3400FB8A478B48C3EB94024002C22C95
:100930007802EBC4FE7B00EAC4540F4EFAC3EA9877
:10094000FA4005C3940150027A017892E6FF22C270
:10095000AF85472B85482CD2AF3020022159854ED8
:1009600092854F93D22043E68022C3E49AF8E49B19
:10097000F9C3E833F8E933F9302C030209EFE8FA58
:10098000E9FBD3E913FDE813FC884E894FC3EF94CC
:10099000036038EF20E00CE82CF8E93DF9ECFAEDC3
:1009A000FB8013E828F8E939F9C3E82401F8E934B1
:1009B00000F97AFF7BFFC3EF9403400F8A508B51FD
:1009C000884A894B8C4C8D4D020A24885089518A63
:1009D0004A8B4B8C4C8D4D3028127550F07551FF61
:1009E000754CF0754DFF754EF0754FFF020A24E807
:1009F000FAD3E813FC884EC3EF94036021EF20E0A4
:100A000007E82CF8ECFA410FE8282401F87AFFC334
:100A1000EF940340098A50884A8C4C020A2488507B
:100A20008A4A8C4C3020024124753A02D22043E697
:100A300080E5255403602DA847A948C3E913F9E8C8
:100A400013F8302804E92440F9C2AF53E67F7591CA
:100A500000C3E498F594E499F595759104D2204388
:100A6000E680D2AF22D221754900752000302B03D9
:100A70007520404183D221754900752040302B03F9
:100A800075200078017901202C20E52554036002AF
:100A9000C2217914E548C313700104F8C3941440CB
:100AA000027814302804781B791BC3E833F8C3E9B3
:100AB00033F9202010E549600C302803D53A04D2E0
:100AC000226136512C0549E59B5440B52002612036
:100AD00030280908C3E89940011841B220210A08CA
:100AE000C3E8994002418341B2C22153E67F759128
:100AF00000302C117594007595F0759104D2204347
:100B0000E680020A83E5487EFFC3334009C33340D1
:100B100005C3334001FEC3E49E759400F59541FA88
:100B2000C3E5399401500241833021024183D80248
:100B3000613441B2C222C2AF53E67F759100855045
:100B400094855195759104854A92854B93D22043A3
:100B5000E680D2AFE52554036007202902053980DD
:100B60001030220D202B0A20210715811581021635
:100B70007D2278003021027801E53D75F007A4F967
:100B8000E5F028F5F0E9A2F013A2F113A2F213F5B3
:100B90003DC394785003753D78C3E53D953E4000D4
:100BA00030200261A0854C92854D93D22043E6808F
:100BB00022E55B455A1216B1F55B43560130E0065B
:100BC000535BFE5356FE228322010203040D0905E6
:100BD00008040D090C08040D832201020304050614
:100BE000070839312921191109100839312921192A
:100BF0001118100839312921192018100839312904
:100C000021282018100839312930282018100839D7
:100C100031383028201810083971B1203829C2AF76
:100C2000C295C29675D8008558F975FA008556FBAD
:100C30008556FC8558E98558EA75D53775D840D270
:100C400094D2AF759F4522C2AFC294C29575D800A9
:100C50008558F975FA008556FB8556FC8558E98557
:100C600058EA75D56D75D840D296D2AF759F45229A
:100C700071B1203829C2AFC295C29675D800855887
:100C8000F975FA008556FB8556FC8558E98558EAC2
:100C900075D55B75D840D294D2AF759F6522C2AF2F
:100CA000C294C29575D8008558F975FA008556FB2F
:100CB0008556FC8558E98558EA75D55B75D840D2CC
:100CC00096D2AF759F752271B1203829C2AFC294F8
:100CD000C29575D8008558F975FA008556FB85567A
:100CE000FC8558E98558EA75D55B75D840D296D20F
:100CF000AF759F7522C2AFC295C29675D800855850
:100D0000F975FA008556FB8556FC8558E98558EA41
:100D100075D55B75D840D294D2AF759F652271B1FD
:100D2000203829C2AFC294C29575D8008558F9758C
:100D3000FA008556FB8556FC8558E98558EA75D535
:100D40006D75D840D296D2AF759F4522C2AFC2957D
:100D5000C29675D8008558F975FA008556FB8556F8
:100D6000FC8558E98558EA75D53775D840D294D2B4
:100D7000AF759F452271B1203829C2AFC294C29687
:100D800075D8008558F975FA008556FB8556FC859F
:100D900058E98558EA75D56D75D840D295D2AF75AA
:100DA0009F6522C2AFC294C29675D8008558F97566
:100DB000FA008556FB8556FC8558E98558EA75D5B5
:100DC0003775D840D295D2AF759F752271B1203852
:100DD00029C2AFC294C29675D8008558F975FA0039
:100DE0008556FB8556FC8558E98558EA75D53775D3
:100DF000D840D295D2AF759F7522C2AFC294C29629
:100E000075D8008558F975FA008556FB8556FC851E
:100E100058E98558EA75D56D75D840D295D2AF7529
:100E20009F65227A147B7880127A107B8C800C7AF2
:100E30000D7BB480067A0B7BC88000E565D5E001A8
:100E4000227902E4C295D5E0FDD292D5E0FDC292AE
:100E5000D5E0FDD295D5E0FDE920E002D29130E069
:100E600002D293E565D5E0FDE920E002C29130E0D1
:100E700002C2937496D5E0FDD9C9EAF8D5E0FDD851
:100E8000FBDBB8C29522C291C292C293C294C295B2
:100E9000C29675D57F22788076FF0876FF0876FFA8
:100EA0000876FF0876FF0876FF0876090876FF08BF
:100EB0007601788C76010876FF0876FF0876FF08C1
:100EC00076FF0876FF0876030876FF0876FF087637
:100ED000FF0876250876D00876280876500876042C
:100EE0000876FF0876020876FF08767A0876FF080B
:100EF00076070876010876FF0876FF087600087600
:100F00000022FA75F00CA4ABF0EAC333F874013395
:100F1000F9E8C333F8E933F9E8C32BF8E93400F909
:100F2000E8C333F8E933F9227888E6C39403D23A68
:100F30005002C23AC238E630E102D238A2389239C1
:100F40007886E6149000C09378A6F67886E6F53F9A
:100F5000C394025003753F02789CE6753EFFB402CD
:100F600003753EA0B40303753E8278A0E6F86006E0
:100F700074282409D8FCF56A7896E6F1028831894C
:100F800032789EE6F102883389347897E6F1028858
:100F9000358936D186223036117A007B007CFF7D80
:100FA000007E00F1FC8B628A6122303A227896E65C
:100FB000FA7B00789EE6FC7D00C3EA33FAEB33FB54
:100FC000C3EC33FCED33FD7E0AF1FC8B648A63785D
:100FD00096303A02789EE6FA7B007897E6FC7D0030
:100FE0007E00303A10C3EA33FAEB33FBC3EC33FC38
:100FF000ED33FD7E0AF1FC8B628A6122C3EC9EFC1C
:10100000ED9400FDC3EC9AFCED9BFDC3EC9423ED45
:10101000940050047C237D00C3EC94FFED940140C8
:10102000047CFF7D017BFF0B7A000AEA7009C3ECA8
:1010300033FCED33FD80F0EC8AF0A4AEF0ED8AF0E5
:10104000A42E947C40E4EAF460DD22D236120F969E
:101050001207071207077A007B007C101206FFE5D3
:10106000542AFA74003BFBDCF37C04C3EB13FBEA69
:1010700013FADCF7FFEB60027FFFC236120F9622F5
:1010800078A5E6F95403D2827002C282E9540C704A
:1010900000E954307000E954C07000227588517521
:1010A0008E0C7589AA758C00758D00758E0C756D0A
:1010B0003C756B20756C1E303703756C1B75704E5C
:1010C0007571437572FF7573EC7574DD2275885107
:1010D000758E0C7589AA758C00758D00758E0C75D2
:1010E0006D00756B40756C3C303703756C367570F0
:1010F0009D7571877572EC7573CB7574AB22741E18
:10110000208315C0D0C0E0740AD5E0FDD0E0D0D077
:101110002083EBD5E0EDC322C0D0C0E0740AD5E057
:10112000FDD0E0D0D03083D6D5E0EDD32275680075
:101130007569007597DE7597AD7581AF43FF807552
:10114000EF0675A900120E867580FB75F10F75A468
:10115000047580FB75D4FF75900075F27E75A57ED1
:1011600075900075D57F75A60175E34075E2021292
:101170000E86E4F8F6D8FD120E96F1B278988665E0
:10118000753001C2AF12070F120E23120707120E9D
:1011900029120707120E2F1207071180C2AF7568B8
:1011A0000075690078FA79FA308316D9FBD8F7759B
:1011B000A91375A71075C10075A700756700021CFB
:1011C00000120F28120F9678988665120E8675A762
:1011D0001075C13075A70075A90375670175C8043E
:1011E00075910475D84075D90875F780759E03759B
:1011F0005B8075960275DA4275DB4275A82375E649
:101200008075B803759B80759D0075D10C75BCB950
:1012100075BB1075E88075B2011206FB753C00C203
:101220003012070FC231C232C233C2347552007558
:101230005300D23411FE9237C23B752B00752C003F
:1012400075E4B330370375E43B119CC2A9D2ABD22D
:10125000AAD2AF75223212070B755200755300C324
:10126000E5229402401711CD75223212070B7552F8
:1012700000755300C3E52294024002219C1206FF30
:10128000203002219CE5546002219CC2AF120E2343
:10129000120E23120E23D2AF12070F756800756964
:1012A0000012070BE5546002219CC2AF120E3512EA
:1012B0000E35120E35D2AF12070F753000752B00A8
:1012C000752C00E4F537F5380537E537F4703F0540
:1012D00038789AE67819146012783214600D787DA7
:1012E00014600878FA146003753800C3E538984034
:1012F0001D120E861206FB15387537007899866523
:10130000C2AF120E35D2AF7898866512070B12075E
:1013100003E5237002219CC3E5549401500AC3E500
:1013200052940150160212C812070BE523700302F3
:10133000119C7552007553000214DEC3E5529401EE
:101340007017C2AF120E8678998665120E237898B0
:101350008665D2AF12070B81D0C3E5529402701795
:10136000C2AF120E8678998665120E297898866526
:10137000D2AF12070B81D0C3E55294037017C2AFEE
:10138000120E8678998665120E2F78988665D2AFF0
:1013900012070B81D0C3E55294047017C2AF120E2E
:1013A0008678998665120E3578988665D2AF1207D1
:1013B0000B81D0C3E55294057017C2AF120E867828
:1013C000998665120E3578988665D2AF12070B8123
:1013D000D0C3E55294077019C3E5539406500261D7
:1013E000177401303A0274037888F6C238C2398122
:1013F000D0C3E55294087019C3E5539406500261B6
:10140000177402303A0274047888F6D238D23981DF
:10141000D0C3E55294097017C3E553940650026196
:1014200017303A0BC37888E69402F6C23A81D0C3EB
:10143000E552940A7016C3E55394065002611720D2
:101440003A0A7888E62402F6D23A81D0C3E552946B
:10145000147025C3E553940650026117C2AF901A69
:101460000B740093D2AF7888F613C238C2394002A9
:10147000D2384002D2398058C3E55294157038C32F
:10148000E55394064050C2AF901A0B740093D2AF4C
:10149000F8B801027402B802027401B803027404BD
:1014A000B8040274037888F613C238C2394002D2F5
:1014B000384002D2398019C3E552940C7012756815
:1014C000A57569F1C3E5539406400B1217FDD2AF21
:1014D0007552007553007568007569006117C2AFD9
:1014E000120E86E4D2AFE4F55FF524F525F53D75DF
:1014F0005F081206FB12076430EDFDA8BDA9BEE926
:101500007001F88860120768755F08C2AF1207CFD4
:10151000855E5C855E5DD2AF75A71075C13075A71D
:101520000075A903756701303A07C238303502D219
:1015300038D228753900120D75120DCC1207DE1243
:1015400007E512094F12096A1207DE1207E51209B0
:101550004F12096A1207DE120A75120B72120C1969
:101560001207E512094F12096A120A65202C0312AC
:10157000071E302C0312074E120B72120C7012074A
:10158000E512094F12096A120A75120B72120CC782
:101590001207E512094F12096A120A65120B72123C
:1015A0000D1E1207E512094F12096A120A75120B75
:1015B00072120D751207E512094F12096A120764BB
:1015C000120A65120B72120DCC1207681207E5128F
:1015D000094F12096A302827855E5C79187A0CC396
:1015E000E53999400EC228D2298A3B855E5C855E2A
:1015F0005D800CC3E55494014003021557C185304A
:10160000291F202B1CE53B147006C229D22AA157A2
:10161000F53B203A07C3E554940140030215578077
:1016200064753C00203A0F78FA79A4E760027803E9
:10163000C3E55598504FE523604B303A17203805E5
:10164000203507800F303502800A202B07D22B85EA
:101650005E5CA19978F0302B05855E5C7820C3E54F
:1016600048985003021557302B1BC22BC238303517
:1016700002D238D229753B12855E5CA157053CE544
:10168000546002C188753C00C2AF120E86752500F9
:10169000D2AF12070B120E8675240078A4E66006FE
:1016A000D294D295D296C3E53C94044002219C4149
:1016B000BD83220102030405060708090A0B0C0D6D
:1016C0000E0F10F1E1D1C1B1A19181716151413190
:1016D00021112010F1E1D1C1B1A19181716151417C
:1016E0003121302010F1E1D1C1B1A191817161515D
:1016F000413140302010F1E1D1C1B1A1918171613E
:1017000051415040302010F1E1D1C1B1A19181711E
:101710006151605040302010F1E1D1C1B1A19181FF
:10172000716170605040302010F1E1D1C1B1A191E0
:1017300081718070605040302010F1E1D1C1B1A1C1
:101740009181908070605040302010F1E1D1C1B1A2
:10175000A191A0908070605040302010F1E1D1C183
:10176000B1A1B0A0908070605040302010F1E1D164
:10177000C1B1C0B0A0908070605040302010F1E145
:10178000D1C1D0C0B0A0908070605040302010F126
:10179000E1D1E0D0C0B0A090807060504030201007
:1017A000F1E1F0E0D0C0B0A09080706050403020F7
:1017B00010F1901A0D7820121836E520B4550BA3BD
:1017C000121836E520B4AA0280137568A57569F170
:1017D000120E96F1FD756800756900801F901A035E
:1017E00078807B0A121836A308DBF9901A0F788CE0
:1017F0007B1A121836A308DBF9901A2922C2AF11FE
:10180000791156901A007410113BA3744E113BA32A
:101810007421113B901A0378807B0A113AA308DBEC
:10182000FA901A0F788C7B1A113AA308DBFA118C04
:10183000116A901A2922E493F622E6438F01538F0E
:10184000FDFFC3E583941C400122EF8568B78569DD
:10185000B7F0538FFE22438F02438F018568B7850F
:1018600069B7901A0DF0538FFC22901A0D74551120
:101870003B901A0E74AA113B227A3079D0782090CE
:101880001A401136E520F709A3DAF7227A3079D029
:10189000901A40E7113B09A3DAF9227C0512070FE1
:1018A000DCFB22C2AF120E23120E29120E2F120ED3
:1018B00035120703120E23120E29120E2F120E35A7
:1018C000120703120E23120E29120E2F120E35D2FA
:1018D000AF22C2AF120E35120E2F120E29120E2396
:1018E000120703120E35120E2F120E29120E23129A
:1018F0000703120E35120E2F120E29120E23D2AF2D
:0119000022C4
:1019FD0002112D104E21FFFFFFFFFFFF09FF01FF19
:101A0D0055AA01FFFFFFFFFF03FFFFFF25D0285061
:0D1A1D0004FF02FF7AFF0701FFFF0000FF3A
:101A4000234D5F485F323523202020202020202096
:101A500023424C48454C492445464D3842323123B7
:101A60002020202020202020202020202020202076
:101C0000C2AFC2D37597DE7597AD7581C075A90057
:101C100043FF80752438752503B1EA7529A5752A17
:101C2000F143F10853A4F7D28375D4FF75E3407DE7
:101C3000FA780379E67C10752200752300901DF771
:101C40007B06752498752501E4308310C0E0E430EC
:101C5000830AD5E0FAD0E0D5E0EF806D208308D884
:101C6000FBD9F9DCF781C9308308D8FBD9F9DCF757
:101C700081C9B1AAE493A3C39A6004DDB481C9DB2E
:101C8000DBB19C600281317B08E493FAA3B17DDB78
:101C9000F87A30B17D752200752300B19CEAFCEB27
:101CA000FDC3ED94FE400EB19C8A278B28ED30E0F9
:101CB000048A828B83B19C7AC270D8C3ED94FE6093
:101CC0001950CEBD0029EC600F7520007521FF75FD
:101CD0002900752A000200008100A827A928080908
:101CE000D804D90281ECB1A0EAF281E00D81B5C33C
:101CF000ED94035051EDA2E092007AC5C3E58294C1
:101D000000E583941C508C200010438F02438F0108
:101D10008529B7852AB7F0300027A827A928080900
:101D2000438F01538FFDD804D902A141C3E58394A9
:101D30001C4003A3A126E28529B7852AB7F0A3A1F9
:101D400026538FFC81917AC1BD030CE493A3FAB1B1
:101D500061DCF8B15981918193AA22AB23B17DEB6B
:101D6000FAEA6222752608C3E52313F523E5221358
:101D7000F52250066323A0632201D526EAB1EAB119
:101D8000EA75260AEAF4200102D283300102C283F6
:101D9000B1EAC3134002C201D526EB22B1A0EAFB8F
:101DA000208302A1A0308302A1A5752608AE24AF2E
:101DB00025C3EF13FFEE13FEB1EEB1EAC3EA133011
:101DC00083024480FA30E703632201C3E52313F55D
:101DD00023E52213F52250066323A0632201D526B2
:101DE000D9E52265236523F52222AE24AF250E0F07
:101DF000DEFEDFFCD20122424C48656C693437318B
:051E000064E8B20601D8
:00000001FF
