:020000040000FA
:060000000219FD02069644
:03000B0002029658
:030013000206DF03
:03001B0002055388
:03002B000202E3EB
:03005B000206F1A9
:030073000203186D
:1000C0000406080C10182030406080A0C09000D1B9
:1000D0007301F101FE210E211E212B213B2148211C
:1000E0005B216B217E2188219821A521BB21C8217C
:1000F000DBA6F008A67408A672088572F022A6F0A6
:1001000008A67208A67308A672088572F022E57325
:10011000B5F002E574F608A674088572F022A6F020
:1001200008A67208A674088572F022A6F008A673C5
:1001300008A67208A672088572F022A6F008A673B7
:1001400008A673088572F022E573B5F002E574F62F
:1001500008A67208A673088572F022A6F008A67297
:1001600008A67208A673088572F022E573B5F0023E
:10017000E574F608A67308A672088572F022A6F048
:1001800008A674088573F022E573B5F002E574F6ED
:1001900008A673088573F022A6F008A67208A67355
:1001A000088573F022E573B5F002E574F608A672CF
:1001B00008A67208A672088572F022A6F008A67337
:1001C00008A672088573F022E573B5F002E574F6AF
:1001D00008A67208A672088573F022A6F008A67217
:1001E00008A67208A672088573F022E529A2473393
:1001F000F52875290F8075E529A24733A24633F506
:100200002875290D8066E529A24733A24633A24509
:1002100033F52875290B8054E52854F0C24C452944
:10022000C4F5287529098044E528A24813A249137A
:10023000A24A13F5287529078032E528A24813A29F
:100240004913F5287529058023E528A24813F528C8
:100250007529038017204F93204E9C204DA8204CD9
:10026000B7204BC4204AD32049DFE528C465286560
:1002700029F478D08572F023541E11CDE52823543B
:100280001E11CDE528C423541E11CDE52923541E8B
:1002900011CDA6F008220540203B0132C0D0C0E0BD
:1002A00075D01018B8CF3320830BD28385728A089B
:1002B000D0E0D0D03275A404D283C23B758E0C75C9
:1002C00089AAC2A9C289C28B758A00758C00758201
:1002D00000D2A8D2AAD0E0D0D032B283868AD0E0B1
:1002E000D0D032C0D0C0E0C2CF0541E5676009E59B
:1002F000666005756600801B756601E52360021562
:1003000023C3E554600575550080080555E5557013
:10031000021555D0E0D0D032C2AF53E67F7592FAC5
:100320007593FFC22053917FD2AF32C0D075D010E9
:10033000E52C7004E52B601EE52BA26013F528A2C6
:1003400061132528F528E52C03C2E7F52903C2E748
:100350003529F52980067528FF7529FF5155C28D6D
:10036000758A86758E097589A2D23BD2A9D283750A
:10037000A40CD0D032758200752800752900752A2A
:1003800000780075F000E0C0E0C395F0D0F028C31D
:10039000956B78004007D24B956C4001F80582E0E0
:1003A000C0E0C395F0D0F028C3956B78004007D229
:1003B0004A956C4001F80582E0C0E0C395F0D0F0AA
:1003C00028C3956B78004007D249956C4001F80529
:1003D00082E0C0E0C395F0D0F028C3956B78004070
:1003E00007D248956C4001F80582E0C0E0C395F063
:1003F000D0F028C3956B78004007D247956C400138
:10040000F80582E0C0E0C395F0D0F028C3956B7882
:10041000004007D246956C4001F80582E0C0E0C379
:1004200095F0D0F028C3956B78004007D245956CC5
:100430004001F80582E0C0E0C395F0D0F028C395F4
:100440006B78004007D244956C4001F80582E0C00B
:10045000E0C395F0D0F028C3956B78004007D243F5
:10046000956C4001F80582E0C0E0C395F0D0F0281B
:10047000C3956B78004007D242956C4001F8058225
:10048000E0C0E0C395F0D0F028C3956B780040073A
:10049000D241956C4001F80582E0C0E0C395F0D0F0
:1004A000F028C3956B78004007D240956C4001F866
:1004B0000582E0C0E0C395F0D0F028C3956B7800CA
:1004C0004007D253956C4001F80582E0C0E0C39527
:1004D000F0D0F028C3956B78004007D252956C405D
:1004E00001F80582E0C0E0C395F0D0F028C3956B19
:1004F00078004007D251956C4001F80582E0C0E0D9
:10050000C395F0D0F028C3956B78004007D2509582
:100510006C4001F80582E528C4652865293037015B
:10052000F4652A540F22900000D2A8D2AA0522E531
:1005300022700215220522E52270021522C3E5224F
:1005400094324005755400A14C75230AD0F0D0E0D8
:10055000D0D032C2AFC2A8C28EC0D0C0E0C0F07549
:10056000D008C2CAA8CCA9CDD2CAD2AF758A00C35E
:10057000E8956EF8E9956FF9E970ABE8957040A6DB
:10058000957150A2E582B4109D71757099A928E506
:1005900028C39460FAE5299400FB50177B007A0089
:1005A000E96010C313500CB5520405538005F55291
:1005B000755300303702712B303A27C3EA94D0F8D4
:1005C000EB9407F9400BE8FAE9FB203509D235A195
:1005D000D6303502C235203902B235C3EA33FAEBE0
:1005E00033FBEB2B3B3BF9C3EB13FBEA13FAEA2992
:1005F000FAEB3400FB30E3047AFF7BFFE52554037C
:10060000601B202A18E55E33F9EB7007C3E99A40B6
:1006100002E9FAE53CC4332AFAEB3400FBC3EA33BF
:10062000C4540FF8EB33C454F048F87005EA600284
:100630007801E52260021522D2308854E554600327
:10064000755500AC5CC3E55C955D4002AC5DC3ECE8
:1006500095545008EC75F008A4FAABF08A5A535A36
:1006600003EB13F45403F9EA13F4F8C3E89446FADD
:10067000E99400FB50047A007B00885689578A5819
:100680008B5975230A203707900000D2A8D2AAD030
:10069000F0D0E0D0D032C0D0C0E0E58AF00582854D
:1006A0006D8BD0E0D0D032308320F00582856D8B09
:1006B000D0E0D0D032F005822083FDE58AF00582BB
:1006C000856D8BD0E0D0D0C28932F005823083FDB9
:1006D000E58AF00582856D8BD0E0D0D0C28932C228
:1006E000AA856D8BD28EC2CA85CC6E85CD6FD2CADB
:1006F0003253E6EF327901801479038010790A8051
:100700000C791E80087964800479C880007817E429
:10071000D5E0FDD8FAD9F62278FF20282879A1E77C
:100720006023E548601F74FF8548F084853FF03002
:10073000290375F005A4F8C5F0600278FFC3E895B9
:100740005E5002A85E885D22C3E54794A0E5489408
:1007500000E55D5003148001046002F55D2275E838
:100760009022055FC3E55F9408405330EDF4A8BDC7
:10077000A9BE755F00E9FA79A0E76041EA7006E575
:10078000606018800CC3E89560600EE560500560FD
:100790000A1480070460FA8002E560F560C3956A78
:1007A000401B755CC0C394044013755C80C3940403
:1007B000400B755C40C394044003755C0022E55C0B
:1007C0002410500274FFF55C22743279A687F0A4DD
:1007D000C5F0A2F733F55E227547007548F022C2D6
:1007E000AFC2CAA8CCA9CDAA4130CF010AD2CAD281
:1007F000AFC3EA13FAE913F9E813F8AB42AC438844
:10080000428943C3E89BF8E99C20280A547FF930C9
:100810002C0201FC8040AD448A44F9EA9D547FFAE1
:10082000600678FF79FF8013AE45AF468B458C4656
:10083000A842A943C3E89EF8E99FF9C3E54813FB22
:10084000E54713FAE82AF547E93BF54850087547AC
:10085000FF7548FF804DAA47AB48AC47AD487E04C2
:100860007F02C3EB9404400D1E1FC3EB94084005A8
:100870002029021E1FC3ED13FDEC13FCDEF7C3EAB3
:100880009CFAEB9DFBEF6009C3E913F9E813F8DF6D
:10089000F7EA28FAEB39FB8A478B4850067BFF8B37
:1008A000478B48C3EB94025002D22C3028047F03BC
:1008B000801C7892E6FFC3E53D948240110FC3E5AA
:1008C0003D94A040010FC3EF940640027F057E02D5
:1008D000E548C4540FF9E548C454F0F8E547C4545A
:1008E0000F28F8C3E89EFAE99400FB400AC3EA9493
:1008F00001EB94004001227A01E4FB22AA47AB48B5
:10090000EBC4FEEAC4540F4EFCC3EA9CFAEB94001D
:10091000FBC3E813C313F8EA28FAEB3400FB8A4759
:100920008B48C3EB94024002C22C7802EBC4FE7BDE
:1009300000EAC4540F4EFAC3EA98FA4005C3940182
:1009400050027A017892E6FF22C2AF85472B854894
:100950002CD2AF3020022153854E92854F93D22066
:1009600043E68022C3E49AF8E49BF9C3E833F8E94C
:1009700033F9302C030209E9E8FAE9FBD3E913FD66
:10098000E813FC884E894FC3EF94036038EF20E0F2
:100990000CE82CF8E93DF9ECFAEDFB8013E828F8B7
:1009A000E939F9C3E82401F8E93400F97AFF7BFF5B
:1009B000C3EF9403400F8A508B51884A894B8C4C6B
:1009C0008D4D020A1E885089518A4A8B4B8C4C8D62
:1009D0004D3028127550F07551FF754CF0754DFF74
:1009E000754EF0754FFF020A1EE8FAD3E813FC8833
:1009F0004EC3EF94036021EF20E007E82CF8ECFAF7
:100A00004109E8282401F87AFFC3EF940340098ADA
:100A100050884A8C4C020A1E88508A4A8C4C3020DE
:100A200002411E753A02D22043E680E52554036058
:100A30002DA847A948C3E913F9E813F8302804E9B9
:100A40002440F9C2AF53E67F759100C3E498F59452
:100A5000E499F595759104D22043E680D2AF22D275
:100A600021754900752000302B03752040417DD24F
:100A700021754900752040302B03752000780179DD
:100A800001202C20E52554036002C2217914E54899
:100A9000C313700104F8C39414400278143028047E
:100AA000781B791BC3E833F8C3E933F9202010E53C
:100AB00049600C302803D53A04D222613051260512
:100AC00049E59B5440B52002611A30280908C3E863
:100AD0009940011841AC20210A08C3E8994002411D
:100AE0007D41ACC22153E67F759100302C11759485
:100AF000007595F0759104D22043E680020A7DE5E9
:100B0000487EFFC3334009C3334005C3334001FE71
:100B1000C3E49E759400F59541F4C3E53994015002
:100B200002417D302102417DD802612E41ACC222BA
:100B3000C2AF53E67F7591008550948551957591AC
:100B400004854A92854B93D22043E680D2AFE525B7
:100B5000540360072029020539801030220D202B14
:100B60000A2021071581158102174E2278003021B5
:100B7000027801E53D75F007A4F9E5F028F5F0E904
:100B8000A2F013A2F113A2F213F53DC3947850031F
:100B9000753D78C3E53D953E4000302002619A8561
:100BA0004C92854D93D22043E68022E55B455A71F5
:100BB000C0F55B43560130E006535BFE5356FE2200
:100BC0008322010203040D090508040D090C080421
:100BD0000D83220102030405060708393129211972
:100BE0001109100839312921191118100839312932
:100BF0002119201810083931292128201810083906
:100C000031293028201810083931383028201810A0
:100C1000083971AB20383BC2AFC295C29675D80077
:100C20008558F98559FA53F77F8556FB8557FC851A
:100C300058E98559EA43F7808556FB8557FC855866
:100C4000E98559EA75D53775D840D294D2AF759FEA
:100C50004522C2AFC294C29575D8008558F985590E
:100C6000FA53F77F8556FB8557FC8558E98559EA85
:100C700043F7808556FB8557FC8558E98559EA7509
:100C8000D56D75D840D296D2AF759F452271AB20F5
:100C9000383BC2AFC295C29675D8008558F98559C0
:100CA000FA53F77F8556FB8557FC8558E98559EA45
:100CB00043F7808556FB8557FC8558E98559EA75C9
:100CC000D55B75D840D294D2AF759F6522C2AFC2B2
:100CD00094C29575D8008558F98559FA53F77F85E0
:100CE00056FB8557FC8558E98559EA43F7808556B8
:100CF000FB8557FC8558E98559EA75D55B75D84061
:100D0000D296D2AF759F752271AB20383BC2AFC26D
:100D100094C29575D8008558F98559FA53F77F859F
:100D200056FB8557FC8558E98559EA43F780855677
:100D3000FB8557FC8558E98559EA75D55B75D84020
:100D4000D296D2AF759F7522C2AFC295C29675D8A2
:100D5000008558F98559FA53F77F8556FB8557FC6E
:100D60008558E98559EA43F7808556FB8557FC8508
:100D700058E98559EA75D55B75D840D294D2AF75DC
:100D80009F652271AB20383BC2AFC294C29575D823
:100D9000008558F98559FA53F77F8556FB8557FC2E
:100DA0008558E98559EA43F7808556FB8557FC85C8
:100DB00058E98559EA75D56D75D840D296D2AF7588
:100DC0009F4522C2AFC295C29675D8008558F98555
:100DD00059FA53F77F8556FB8557FC8558E98559A5
:100DE000EA43F7808556FB8557FC8558E98559EA23
:100DF00075D53775D840D294D2AF759F452271AB67
:100E000020383BC2AFC294C29675D8008558F98588
:100E100059FA53F77F8556FB8557FC8558E9855964
:100E2000EA43F7808556FB8557FC8558E98559EAE2
:100E300075D56D75D840D295D2AF759F6522C2AF7A
:100E4000C294C29675D8008558F98559FA53F77F30
:100E50008556FB8557FC8558E98559EA43F7808517
:100E600056FB8557FC8558E98559EA75D53775D8FD
:100E700040D295D2AF759F752271AB20383BC2AF7F
:100E8000C294C29675D8008558F98559FA53F77FF0
:100E90008556FB8557FC8558E98559EA43F78085D7
:100EA00056FB8557FC8558E98559EA75D53775D8BD
:100EB00040D295D2AF759F7522C2AFC294C29675CB
:100EC000D8008558F98559FA53F77F8556FB855721
:100ED000FC8558E98559EA43F7808556FB8557FC20
:100EE0008558E98559EA75D56D75D840D295D2AF48
:100EF000759F65227A147B7880127A107B8C800C27
:100F00007A0D7BB480067A0B7BC88000E565D5E05E
:100F100001227902E4C295D5E0FDD292D5E0FDC26E
:100F200092D5E0FDD295D5E0FDE920E002D29130E6
:100F3000E002D293E565D5E0FDE920E002C2913000
:100F4000E002C2937496D5E0FDD9C9EAF8D5E0FD78
:100F5000D8FBDBB8C29522C291C292C293C294C29E
:100F600095C29675D57F22788076FF0876FF087641
:100F7000FF0876FF0876FF0876FF0876090876FFF7
:100F8000087601788C76010876FF0876FF0876FFF0
:100F90000876FF0876FF0876030876FF0876FF08D4
:100FA00076FF0876250876D00876280876500876E9
:100FB000040876FF0876020876FF08767A0876FF3E
:100FC0000876070876010876FF0876FF087600089D
:100FD000760022FA75F00CA4ABF0EAC333F8740182
:100FE00033F9E8C333F8E933F9E8C32BF8E93400FF
:100FF000F9E8C333F8E933F9227888E6C39403D2D9
:101000003A5002C23AC238E630E102D238A23892EF
:10101000397886E6149000C09378A6F67886E6F5CF
:101020003FC394025003753F02789CE6753EFFB4BF
:101030000203753EA0B40303753E8278A0E6F86013
:101040000674282409D8FCF56A7896E6120FD3882E
:10105000318932789EE6120FD3883389347897E647
:10106000120FD388358936120F57223036117A0085
:101070007B007CFF7D007E0011D18B628A61223073
:101080003A227896E6FA7B00789EE6FC7D00C3EA79
:1010900033FAEB33FBC3EC33FCED33FD7E0A11D1A5
:1010A0008B648A637896303A02789EE6FA7B007801
:1010B00097E6FC7D007E00303A10C3EA33FAEB334A
:1010C000FBC3EC33FCED33FD7E0A11D18B628A61E8
:1010D00022C3EC9EFCED9400FDC3EC9AFCED9BFD5D
:1010E000C3EC9423ED940050047C237D00C3EC9466
:1010F000FFED940140047CFF7D017BFF0B7A000A29
:10110000EA7009C3EC33FCED33FD80F0EC8AF0A407
:10111000AEF0ED8AF0A42E947C40E4EAF460DD2287
:10112000D236116B1207011207017A007B007C1086
:101130001206F9E5542AFA74003BFBDCF37C04C385
:10114000EB13FBEA13FADCF7FFEB60027FFFC2361A
:10115000116B2278A5E6F95403D2827002C282E9AB
:10116000540C7000E954307000E954C070002275CE
:101170008851758E0C7589AA758C00758D00758ED9
:101180000C756D3C756B20756C1E303703756C1BD0
:1011900075704E7571437572FF7573EC7574DD2251
:1011A000758851758E0C7589AA758C00758D0075C2
:1011B0008E0C756D00756B40756C3C303703756C2B
:1011C0003675709D7571877572EC7573CB7574ABE0
:1011D00022741E208315C0D0C0E0740AD5E0FDD073
:1011E000E0D0D02083EBD5E0EDC322C0D0C0E074C6
:1011F0000AD5E0FDD0E0D0D03083D6D5E0EDD322C3
:101200007568007569007597DE7597AD7581AF4398
:10121000FF8075EF0675A900120F577580FB75F1F9
:101220000F75A4047580FB75D4FF75900075F27E70
:1012300075A57E75900075D57F75A60175E340751F
:10124000E202120F57E4F8F6D8FD120F67F1827828
:10125000988665753001C2AF120709120EF41207A5
:1012600001120EFA120701120F001207013153C2C8
:10127000AF75680075690078FA79FA308316D9FB82
:10128000D8F775A91375A71075C10075A700756704
:1012900000021C00120FF9116B78988665120F5727
:1012A00075A71075C13075A70075A903756701751D
:1012B000C80475910475D84075D90875F782759E74
:1012C00003755B0875960275DA4275DB4275A823D3
:1012D00075E68075B803759B80759D0075D10C759A
:1012E000BCB975BB1075E88075B2011206F5753C86
:1012F00000C230120709C231C232C233C234755241
:1013000000755300D23431D19237C23B752B007532
:101310002C0075E4B330370375E43B316FC2A9D2BA
:10132000ABD2AAD2AF75223212070575520075539F
:1013300000C3E5229402401731A07522321207053E
:10134000755200755300C3E52294024002416F12AA
:1013500006F9203002416FE5546002416FC2AF12BE
:101360000EF4120EF4120EF4D2AF120709756800D3
:10137000756900120705E5546002416FC2AF120F94
:1013800006120F06120F06D2AF120709753000754C
:101390002B00752C00E4F537F5380537E537F47088
:1013A0003F0538789AE67819146012783214600D87
:1013B000787D14600878FA146003753800C3E53846
:1013C00098401D120F571206F51538753700789999
:1013D0008665C2AF120F06D2AF78988665120705F0
:1013E0001206FDE5237002416FC3E5549401500AD3
:1013F000C3E5529401501602139A120705E52370B3
:101400000302126F7552007553000215AFC3E55207
:1014100094017017C2AF120F5778998665120EF4B7
:1014200078988665D2AF120705A1A1C3E552940250
:101430007017C2AF120F5778998665120EFA789816
:101440008665D2AF120705A1A1C3E55294037017B8
:10145000C2AF120F5778998665120F00789886658B
:10146000D2AF120705A1A1C3E55294047017C2AF11
:10147000120F5778998665120F0678988665D2AF55
:10148000120705A1A1C3E55294057017C2AF120F50
:101490005778998665120F0678988665D2AF12073D
:1014A00005A1A1C3E55294077019C3E553940650F2
:1014B0000261E97401303A0274037888F6C238C2D6
:1014C00039A1A1C3E55294087019C3E5539406509D
:1014D0000261E97402303A0274047888F6D238D294
:1014E00039A1A1C3E55294097017C3E5539406507E
:1014F0000261E9303A0BC37888E69402F6C23AA159
:10150000A1C3E552940A7016C3E5539406500261D4
:10151000E9203A0A7888E62402F6D23AA1A1C3E586
:101520005294147025C3E5539406500261E9C2AF8A
:10153000901A0B740093D2AF7888F613C238C23970
:101540004002D2384002D2398057C3E55294157018
:1015500038C3E5539406404FC2AF901A0B74009302
:10156000D2AFF8B801027402B802027401B80302E3
:101570007404B8040274037888F613C238C2394080
:1015800002D2384002D2398018C3E552940C70114F
:101590007568A57569F1C3E5539406400AF1CDD28B
:1015A000AF75520075530075680075690061E9C236
:1015B000AF120F57E4D2AFE4F55FF524F525F53D02
:1015C000755F081206F512075E30EDFDA8BDA9BED5
:1015D000E97001F88860120762755F08C2AF1207F0
:1015E000C9855E5C855E5DD2AF75A71075C130752B
:1015F000A70075A903756701303A07C23830350274
:10160000D238D228753900120DFE120E791207D881
:101610001207DF1209491209641207D81207DF12F4
:1016200009491209641207D8120A6F120B6C120CC6
:10163000121207DF120949120964120A5F202C03F3
:10164000120718302C03120748120B6C120C8D1263
:1016500007DF120949120964120A6F120B6C120D8E
:10166000081207DF120949120964120A5F120B6C93
:10167000120D831207DF120949120964120A6F1250
:101680000B6C120DFE1207DF1209491209641207D2
:101690005E120A5F120B6C120E791207621207DFDC
:1016A000120949120964302827855E5C79187A0C82
:1016B000C3E53999400EC228D2298A3B855E5C85F4
:1016C0005E5D800CC3E55494014003021628E15688
:1016D00030291F202B1CE53B147006C229D22AC1D9
:1016E00028F53B203A07C3E554940140030216282D
:1016F0008064753C00203A0F78FA79A4E76002789C
:1017000003C3E55598504FE523604B303A17203816
:1017100005203507800F303502800A202B07D22B99
:10172000855E5CC16A78F0302B05855E5C7820C3ED
:10173000E548985003021628302B1BC22BC23830C4
:101740003502D238D229753B12855E5CC128053C32
:10175000E5546002E159753C00C2AF120F57752580
:1017600000D2AF120705120F5775240078A4E66067
:1017700006D294D295D296C3E53C94044002416FC0
:10178000618F901A0D782012180CE520B4550BA328
:1017900012180CE520B4AA0280137568A57569F1CA
:1017A000120F67F1CD756800756900801F901A03EC
:1017B00078807B0A12180CA308DBF9901A0F788C3A
:1017C0007B1A12180CA308DBF9901A2922C2AF1257
:1017D000184F12182C901A007410121811A3744E7E
:1017E000121811A37421121811901A0378807B0A21
:1017F000121810A308DBF9901A0F788C7B1A1110BD
:10180000A308DBFA11621140901A2922E493F62210
:10181000E6438F01538FFDFFC3E583941C400122F3
:10182000EF8568B78569B7F0538FFE22438F024377
:101830008F018568B78569B7901A0DF0538FFC2228
:10184000901A0D74551111901A0E74AA1111227A62
:101850003079D07820901A40110CE520F709A3DAEE
:10186000F7227A3079D0901A40E7111109A3DAF9FA
:10187000227C05120709DCFB22C2AF120EF4120E05
:10188000FA120F00120F061206FD120EF4120EFAD3
:10189000120F00120F061206FD120EF4120EFA12AB
:1018A0000F00120F06D2AF22C2AF120F06120F00A6
:1018B000120EFA120EF41206FD120F06120F00128B
:1018C0000EFA120EF41206FD120F06120F00120E7F
:0718D000FA120EF4D2AF2260
:1019FD00021200104E21FFFFFFFFFFFF09FF01FF45
:101A0D0055AA01FFFFFFFFFF03FFFFFF25D0285061
:0D1A1D0004FF02FF7AFF0701FFFF0000FF3A
:101A4000234D5F485F373023202020202020202096
:101A500023424C48454C492445464D3842323123B7
:101A60002020202020202020202020202020202076
:101A800083220102030405060708090A0B0C0D0E48
:101A90000F10F1E1D1C1B1A19181716151413121A9
:101AA000112010F1E1D1C1B1A19181716151413198
:101AB00021302010F1E1D1C1B1A191817161514179
:101AC0003140302010F1E1D1C1B1A191817161515A
:101AD000415040302010F1E1D1C1B1A1918171613B
:101AE00051605040302010F1E1D1C1B1A19181711C
:101AF0006170605040302010F1E1D1C1B1A19181FD
:101B0000718070605040302010F1E1D1C1B1A191DD
:101B100081908070605040302010F1E1D1C1B1A1BE
:101B200091A0908070605040302010F1E1D1C1B19F
:101B3000A1B0A0908070605040302010F1E1D1C180
:101B4000B1C0B0A0908070605040302010F1E1D161
:101B5000C1D0C0B0A0908070605040302010F1E142
:101B6000D1E0D0C0B0A0908070605040302010F123
:101B7000E1F0E0D0C0B0A090807060504030201004
:011B8000F173
:101C0000C2AFC2D37597DE7597AD7581C075A90057
:101C100043FF80752438752503B1EA7529A5752A17
:101C2000F143F10853A4F7D28375D4FF75E3407DE7
:101C3000FA780379E67C10752200752300901DF771
:101C40007B06752498752501E4308310C0E0E430EC
:101C5000830AD5E0FAD0E0D5E0EF806D208308D884
:101C6000FBD9F9DCF781C9308308D8FBD9F9DCF757
:101C700081C9B1AAE493A3C39A6004DDB481C9DB2E
:101C8000DBB19C600281317B08E493FAA3B17DDB78
:101C9000F87A30B17D752200752300B19CEAFCEB27
:101CA000FDC3ED94FE400EB19C8A278B28ED30E0F9
:101CB000048A828B83B19C7AC270D8C3ED94FE6093
:101CC0001950CEBD0029EC600F7520007521FF75FD
:101CD0002900752A000200008100A827A928080908
:101CE000D804D90281ECB1A0EAF281E00D81B5C33C
:101CF000ED94035051EDA2E092007AC5C3E58294C1
:101D000000E583941C508C200010438F02438F0108
:101D10008529B7852AB7F0300027A827A928080900
:101D2000438F01538FFDD804D902A141C3E58394A9
:101D30001C4003A3A126E28529B7852AB7F0A3A1F9
:101D400026538FFC81917AC1BD030CE493A3FAB1B1
:101D500061DCF8B15981918193AA22AB23B17DEB6B
:101D6000FAEA6222752608C3E52313F523E5221358
:101D7000F52250066323A0632201D526EAB1EAB119
:101D8000EA75260AEAF4200102D283300102C283F6
:101D9000B1EAC3134002C201D526EB22B1A0EAFB8F
:101DA000208302A1A0308302A1A5752608AE24AF2E
:101DB00025C3EF13FFEE13FEB1EEB1EAC3EA133011
:101DC00083024480FA30E703632201C3E52313F55D
:101DD00023E52213F52250066323A0632201D526B2
:101DE000D9E52265236523F52222AE24AF250E0F07
:101DF000DEFEDFFCD20122424C48656C693437318B
:051E000064E8B20601D8
:00000001FF
