:020000040000FA
:060000000219FD02069644
:03000B0002029658
:030013000206DF03
:03001B0002055388
:03002B000202E3EB
:03005B000206F1A9
:030073000203186D
:1000C0000406080C10182030406080A0C09000D1B9
:1000D0007301F101FE210E211E212B213B2148211C
:1000E0005B216B217E2188219821A521BB21C8217C
:1000F000DBA6F008A67408A672088572F022A6F0A6
:1001000008A67208A67308A672088572F022E57325
:10011000B5F002E574F608A674088572F022A6F020
:1001200008A67208A674088572F022A6F008A673C5
:1001300008A67208A672088572F022A6F008A673B7
:1001400008A673088572F022E573B5F002E574F62F
:1001500008A67208A673088572F022A6F008A67297
:1001600008A67208A673088572F022E573B5F0023E
:10017000E574F608A67308A672088572F022A6F048
:1001800008A674088573F022E573B5F002E574F6ED
:1001900008A673088573F022A6F008A67208A67355
:1001A000088573F022E573B5F002E574F608A672CF
:1001B00008A67208A672088572F022A6F008A67337
:1001C00008A672088573F022E573B5F002E574F6AF
:1001D00008A67208A672088573F022A6F008A67217
:1001E00008A67208A672088573F022E529A2473393
:1001F000F52875290F8075E529A24733A24633F506
:100200002875290D8066E529A24733A24633A24509
:1002100033F52875290B8054E52854F0C24C452944
:10022000C4F5287529098044E528A24813A249137A
:10023000A24A13F5287529078032E528A24813A29F
:100240004913F5287529058023E528A24813F528C8
:100250007529038017204F93204E9C204DA8204CD9
:10026000B7204BC4204AD32049DFE528C465286560
:1002700029F478D08572F023541E11CDE52823543B
:100280001E11CDE528C423541E11CDE52923541E8B
:1002900011CDA6F008220540203B0132C0D0C0E0BD
:1002A00075D01018B8CF3320810BD28185728A089F
:1002B000D0E0D0D03275A4F8D281C23B758E0C75D7
:1002C00089AAC2A9C289C28B758A00758C00758201
:1002D00000D2A8D2AAD0E0D0D032B281868AD0E0B3
:1002E000D0D032C0D0C0E0C2CF0541E5676009E59B
:1002F000666005756600801B756601E52360021562
:1003000023C3E554600575550080080555E5557013
:10031000021555D0E0D0D032C2AF53E67F7592FAC5
:100320007593FFC22053917FD2AF32C0D075D010E9
:10033000E52C7004E52B601EE52BA26013F528A2C6
:1003400061132528F528E52C03C2E7F52903C2E748
:100350003529F52980067528FF7529FF5155C28D6D
:10036000758A86758E097589A2D23BD2A9D281750C
:10037000A4FAD0D032758200752800752900752A3C
:1003800000780075F000E0C0E0C395F0D0F028C31D
:10039000956B78004007D24B956C4001F80582E0E0
:1003A000C0E0C395F0D0F028C3956B78004007D229
:1003B0004A956C4001F80582E0C0E0C395F0D0F0AA
:1003C00028C3956B78004007D249956C4001F80529
:1003D00082E0C0E0C395F0D0F028C3956B78004070
:1003E00007D248956C4001F80582E0C0E0C395F063
:1003F000D0F028C3956B78004007D247956C400138
:10040000F80582E0C0E0C395F0D0F028C3956B7882
:10041000004007D246956C4001F80582E0C0E0C379
:1004200095F0D0F028C3956B78004007D245956CC5
:100430004001F80582E0C0E0C395F0D0F028C395F4
:100440006B78004007D244956C4001F80582E0C00B
:10045000E0C395F0D0F028C3956B78004007D243F5
:10046000956C4001F80582E0C0E0C395F0D0F0281B
:10047000C3956B78004007D242956C4001F8058225
:10048000E0C0E0C395F0D0F028C3956B780040073A
:10049000D241956C4001F80582E0C0E0C395F0D0F0
:1004A000F028C3956B78004007D240956C4001F866
:1004B0000582E0C0E0C395F0D0F028C3956B7800CA
:1004C0004007D253956C4001F80582E0C0E0C39527
:1004D000F0D0F028C3956B78004007D252956C405D
:1004E00001F80582E0C0E0C395F0D0F028C3956B19
:1004F00078004007D251956C4001F80582E0C0E0D9
:10050000C395F0D0F028C3956B78004007D2509582
:100510006C4001F80582E528C4652865293037015B
:10052000F4652A540F22900000D2A8D2AA0522E531
:1005300022700215220522E52270021522C3E5224F
:1005400094324005755400A14C75230AD0F0D0E0D8
:10055000D0D032C2AFC2A8C28EC0D0C0E0C0F07549
:10056000D008C2CAA8CCA9CDD2CAD2AF758A00C35E
:10057000E8956EF8E9956FF9E970ABE8957040A6DB
:10058000957150A2E582B4109D71757099A928E506
:1005900028C39460FAE5299400FB50177B007A0089
:1005A000E96010C313500CB5520405538005F55291
:1005B000755300303702712B303A27C3EA94D0F8D4
:1005C000EB9407F9400BE8FAE9FB203509D235A195
:1005D000D6303502C235203902B235C3EA33FAEBE0
:1005E00033FBEB2B3B3BF9C3EB13FBEA13FAEA2992
:1005F000FAEB3400FB30E3047AFF7BFFE52554037C
:10060000601B202A18E55E33F9EB7007C3E99A40B6
:1006100002E9FAE53CC4332AFAEB3400FBC3EA33BF
:10062000C4540FF8EB33C454F048F87005EA600284
:100630007801E52260021522D2308854E554600327
:10064000755500AC5CC3E55C955D4002AC5DC3ECE8
:1006500095545008EC75F008A4FAABF08A5A535A36
:1006600003EB13F45403F9EA13F4F8C3E89414FA0F
:10067000E99400FB50047A007B00885689578A5819
:100680008B5975230A203707900000D2A8D2AAD030
:10069000F0D0E0D0D032C0D0C0E0E58AF00582854D
:1006A0006D8BD0E0D0D032308120F00582856D8B0B
:1006B000D0E0D0D032F005822081FDE58AF00582BD
:1006C000856D8BD0E0D0D0C28932F005823081FDBB
:1006D000E58AF00582856D8BD0E0D0D0C28932C228
:1006E000AA856D8BD28EC2CA85CC6E85CD6FD2CADB
:1006F0003253E6EF327901801479038010790A8051
:100700000C791E80087964800479C880007817E429
:10071000D5E0FDD8FAD9F62278FF20282879A1E77C
:100720006023E548601F74FF8548F084853FF03002
:10073000290375F005A4F8C5F0600278FFC3E895B9
:100740005E5002A85E885D22C3E54794A0E5489408
:1007500000E55D5003148001046002F55D2275E838
:100760009022055FC3E55F9408405330EDF4A8BDC7
:10077000A9BE755F00E9FA79A0E76041EA7006E575
:10078000606018800CC3E89560600EE560500560FD
:100790000A1480070460FA8002E560F560C3956A78
:1007A000401B755CC0C394044013755C80C3940403
:1007B000400B755C40C394044003755C0022E55C0B
:1007C0002410500274FFF55C22743279A687F0A4DD
:1007D000C5F0A2F733F55E227547007548F022C2D6
:1007E000AFC2CAA8CCA9CDAA4130CF010AD2CAD281
:1007F000AFC3EA13FAE913F9E813F8AB42AC438844
:10080000428943C3E89BF8E99C20280A547FF930C9
:100810002C0201FC8040AD448A44F9EA9D547FFAE1
:10082000600678FF79FF8013AE45AF468B458C4656
:10083000A842A943C3E89EF8E99FF9C3E54813FB22
:10084000E54713FAE82AF547E93BF54850087547AC
:10085000FF7548FF804DAA47AB48AC47AD487E04C2
:100860007F02C3EB9404400D1E1FC3EB94084005A8
:100870002029021E1FC3ED13FDEC13FCDEF7C3EAB3
:100880009CFAEB9DFBEF6009C3E913F9E813F8DF6D
:10089000F7EA28FAEB39FB8A478B4850067BFF8B37
:1008A000478B48C3EB94025002D22C3028047F03BC
:1008B000801C7892E6FFC3E53D948240110FC3E5AA
:1008C0003D94A040010FC3EF940640027F057E02D5
:1008D000E548C4540FF9E548C454F0F8E547C4545A
:1008E0000F28F8C3E89EFAE99400FB400AC3EA9493
:1008F00001EB94004001227A01E4FB22AA47AB48B5
:10090000EBC4FEEAC4540F4EFCC3EA9CFAEB94001D
:10091000FBC3E813C313F8EA28FAEB3400FB8A4759
:100920008B48C3EB94024002C22C7802EBC4FE7BDE
:1009300000EAC4540F4EFAC3EA98FA4005C3940182
:1009400050027A017892E6FF22C2AF85472B854894
:100950002CD2AF3020022153854E92854F93D22066
:1009600043E68022C3E49AF8E49BF9C3E833F8E94C
:1009700033F9302C030209E9E8FAE9FBD3E913FD66
:10098000E813FC884E894FC3EF94036038EF20E0F2
:100990000CE82CF8E93DF9ECFAEDFB8013E828F8B7
:1009A000E939F9C3E82401F8E93400F97AFF7BFF5B
:1009B000C3EF9403400F8A508B51884A894B8C4C6B
:1009C0008D4D020A1E885089518A4A8B4B8C4C8D62
:1009D0004D3028127550F07551FF754CF0754DFF74
:1009E000754EF0754FFF020A1EE8FAD3E813FC8833
:1009F0004EC3EF94036021EF20E007E82CF8ECFAF7
:100A00004109E8282401F87AFFC3EF940340098ADA
:100A100050884A8C4C020A1E88508A4A8C4C3020DE
:100A200002411E753A02D22043E680E52554036058
:100A30002DA847A948C3E913F9E813F8302804E9B9
:100A40002440F9C2AF53E67F759100C3E498F59452
:100A5000E499F595759104D22043E680D2AF22D275
:100A600021754900752000302B03752040417DD24F
:100A700021754900752040302B03752000780179DD
:100A800001202C20E52554036002C2217914E54899
:100A9000C313700104F8C39414400278143028047E
:100AA000781B791BC3E833F8C3E933F9202010E53C
:100AB00049600C302803D53A04D222613051260512
:100AC00049E5BF5440B52002611A30280908C3E83F
:100AD0009940011841AC20210A08C3E8994002411D
:100AE0007D41ACC22153E67F759100302C11759485
:100AF000007595F0759104D22043E680020A7DE5E9
:100B0000487EFFC3334009C3334005C3334001FE71
:100B1000C3E49E759400F59541F4C3E53994015002
:100B200002417D302102417DD802612E41ACC222BA
:100B3000C2AF53E67F7591008550948551957591AC
:100B400004854A92854B93D22043E680D2AFE525B7
:100B5000540360072029020539801030220D202B14
:100B60000A2021071581158102177922780030218A
:100B7000027801E53D75F007A4F9E5F028F5F0E904
:100B8000A2F013A2F113A2F213F53DC3947850031F
:100B9000753D78C3E53D953E4000302002619A8561
:100BA0004C92854D93D22043E68022E55B455A71F5
:100BB000C0F55B43560130E006535BFE5356FE2200
:100BC0008322010203040D090508040D090C080421
:100BD0000D83220102030405060708393129211972
:100BE0001109100839312921191118100839312932
:100BF0002119201810083931292128201810083906
:100C000031293028201810083931383028201810A0
:100C1000083971AB20383EC2AFC291C29275D8007C
:100C20008558F98559FA53F77F8556FB8557FC851A
:100C300058E98559EA43F7808556FB8557FC855866
:100C4000E98559EA75D47F75D50375D840D290D21D
:100C5000AF75AA5322C2AFC290C29175D800855811
:100C6000F98559FA53F77F8556FB8557FC8558E976
:100C70008559EA43F7808556FB8557FC8558E985F9
:100C800059EA75D4DF75D50675D840D292D2AF75C2
:100C9000AA532271AB20383EC2AFC291C29275D81E
:100CA000008558F98559FA53F77F8556FB8557FC1F
:100CB0008558E98559EA43F7808556FB8557FC85B9
:100CC00058E98559EA75D4BF75D50575D840D290D5
:100CD000D2AF75AA4322C2AFC290C29175D8008527
:100CE00058F98559FA53F77F8556FB8557FC855887
:100CF000E98559EA43F7808556FB8557FC8558E915
:100D00008559EA75D4BF75D50575D840D292D2AF52
:100D100075AA632271AB20383EC2AFC290C29175F2
:100D2000D8008558F98559FA53F77F8556FB8557C2
:100D3000FC8558E98559EA43F7808556FB8557FCC1
:100D40008558E98559EA75D4BF75D50575D840D25F
:100D500092D2AF75AA6322C2AFC291C29275D80077
:100D60008558F98559FA53F77F8556FB8557FC85D9
:100D700058E98559EA43F7808556FB8557FC855825
:100D8000E98559EA75D4BF75D50575D840D290D29A
:100D9000AF75AA432271AB20383EC2AFC290C29158
:100DA00075D8008558F98559FA53F77F8556FB8524
:100DB00057FC8558E98559EA43F7808556FB8557E6
:100DC000FC8558E98559EA75D4DF75D50675D84094
:100DD000D292D2AF75AA5322C2AFC291C29275D835
:100DE000008558F98559FA53F77F8556FB8557FCDE
:100DF0008558E98559EA43F7808556FB8557FC8578
:100E000058E98559EA75D47F75D50375D840D290D5
:100E1000D2AF75AA532271AB20383EC2AFC290C286
:100E20009275D8008558F98559FA53F77F8556FB96
:100E30008557FC8558E98559EA43F7808556FB8537
:100E400057FC8558E98559EA75D4DF75D50675D8FC
:100E500040D291D2AF75AA4322C2AFC290C292755E
:100E6000D8008558F98559FA53F77F8556FB855781
:100E7000FC8558E98559EA43F7808556FB8557FC80
:100E80008558E98559EA75D47F75D50375D840D260
:100E900091D2AF75AA632271AB20383EC2AFC29027
:100EA000C29275D8008558F98559FA53F77F85564F
:100EB000FB8557FC8558E98559EA43F7808556FB41
:100EC0008557FC8558E98559EA75D47F75D5037532
:100ED000D840D291D2AF75AA6322C2AFC290C2925B
:100EE00075D8008558F98559FA53F77F8556FB85E3
:100EF00057FC8558E98559EA43F7808556FB8557A5
:100F0000FC8558E98559EA75D4DF75D50675D84052
:100F1000D291D2AF75AA43227A147B7880127A10CC
:100F20007B8C800C7A0D7BB480067A0B7BC88000AA
:100F3000E565D5E001227902E4C291D5E0FDD286D3
:100F4000D5E0FDC286D5E0FDD291D5E0FDE920E0F7
:100F500002D28530E002D287E565D5E0FDE920E0E8
:100F600002C28530E002C2877496D5E0FDD9C9EA95
:100F7000F8D5E0FDD8FBDBB8C29122C285C286C29B
:100F800087C290C291C29275D4FF75D5072278802E
:100F900076FF0876FF0876FF0876FF0876FF08766A
:100FA000FF0876090876FF087601788C76010876C6
:100FB000FF0876FF0876FF0876FF0876FF087603BD
:100FC0000876FF0876FF0876FF0876250876D008B1
:100FD00076280876500876040876FF0876020876A8
:100FE000FF08767A0876FF0876070876010876FF0C
:100FF0000876FF08760008760022FA75F00CA4AB9C
:10100000F0EAC333F8740133F9E8C333F8E933F98C
:10101000E8C32BF8E93400F9E8C333F8E933F922DF
:101020007888E6C39403D23A5002C23AC238E63016
:10103000E102D238A23892397886E6149000C09343
:1010400078A6F67886E6F53FC394025003753F0212
:10105000789CE6753EFFB40203753EA0B4030375A9
:101060003E8278A0E6F8600674282409D8FCF56A68
:101070007896E6120FFA88318932789EE6120FFAD6
:10108000883389347897E6120FFA88358936120F3B
:101090007B223036117A007B007CFF7D007E0011C0
:1010A000F88B628A6122303A227896E6FA7B0078E1
:1010B0009EE6FC7D00C3EA33FAEB33FBC3EC33FC62
:1010C000ED33FD7E0A11F88B648A637896303A021C
:1010D000789EE6FA7B007897E6FC7D007E00303A49
:1010E00010C3EA33FAEB33FBC3EC33FCED33FD7E84
:1010F0000A11F88B628A6122C3EC9EFCED9400FD1C
:10110000C3EC9AFCED9BFDC3EC9423ED94005004DA
:101110007C237D00C3EC94FFED940140047CFF7DB3
:10112000017BFF0B7A000AEA7009C3EC33FCED3354
:10113000FD80F0EC8AF0A4AEF0ED8AF0A42E947C51
:1011400040E4EAF460DD22D2361192120701120760
:10115000017A007B007C101206F9E5542AFA74002B
:101160003BFBDCF37C04C3EB13FBEA13FADCF7FF75
:10117000EB60027FFFC23611922278A5E6F9540394
:10118000D2837002C283E9540CD2847002C284E913
:1011900054307000E954C0700022758851758E0C6F
:1011A0007589AA758C00758D00758E0C756D3C75F2
:1011B0006B20756C1E303703756C1B75704E757126
:1011C000437572FF7573EC7574DD22758851758EE9
:1011D0000C7589AA758C00758D00758E0C756D0067
:1011E000756B40756C3C303703756C3675709D754A
:1011F00071877572EC7573CB7574AB22741E208188
:1012000015C0D0C0E0740AD5E0FDD0E0D0D0208178
:10121000EBD5E0EDC322C0D0C0E0740AD5E0FDD02C
:10122000E0D0D03081D6D5E0EDD322756800756965
:10123000007597DE7597AD7581AF43FF8075EF063A
:1012400075A900120F7B75800275F1FF75A4F87502
:10125000800275D4FF75900075F20775A50775902B
:101260000075D50775A60175E34075E202120F7B84
:10127000E4F8F6D8FD120F8EF1AD789886657530DA
:1012800001C2AF120709120F18120701120F1E1226
:101290000701120F24120701317AC2AF7568007579
:1012A000690078FA79FA308116D9FBD8F775A91355
:1012B00075A71075C10075A700756700021C0011A5
:1012C00020119278988665120F7B75A71075C13032
:1012D00075A70075A90375670175C8047591047534
:1012E000D84075D90875F782759E03755B087596A9
:1012F0000275DA4275DB4275A82375E68075B8037E
:1013000075BF8075AB0075D10C75BCB975BB107518
:10131000E88075B2011206F5753C00C2301207096B
:10132000C231C232C233C234755200755300D23456
:1013300031FC9237C23B752B00752C0075E491305F
:10134000370375E419319AC2A9D2ABD2AAD2AF75CC
:101350002232120705755200755300C3E52294022C
:10136000401731CB752232120705755200755300B4
:10137000C3E52294024002419A1206F9203002414C
:101380009AE5546002419AC2AF120F18120F181258
:101390000F18D2AF120709756800756900120705AA
:1013A000E5546002419AC2AF120F2A120F2A120F9F
:1013B0002AD2AF120709753000752B00752C00E496
:1013C000F537F5380537E537F4703F0538789AE694
:1013D0007819146012783214600D787D14600878E2
:1013E000FA146003753800C3E53898401D120F7B6E
:1013F0001206F5153875370078998665C2AF120F59
:101400002AD2AF789886651207051206FDE523708B
:1014100002419AC3E5549401500AC3E55294015025
:10142000160213C4120705E523700302129A7552BF
:10143000007553000215DAC3E55294017017C2AF6C
:10144000120F7B78998665120F1878988665D2AF4F
:10145000120705A1CCC3E55294027017C2AF120F58
:101460007B78998665120F1E78988665D2AF120731
:1014700005A1CCC3E55294037017C2AF120F7B785D
:10148000998665120F2478988665D2AF120705A158
:10149000CCC3E55294047017C2AF120F7B789986C3
:1014A00065120F2A78988665D2AF120705A1CCC3C2
:1014B000E55294057017C2AF120F7B7899866512BA
:1014C0000F2A78988665D2AF120705A1CCC3E552E2
:1014D00094077019C3E553940650028113740130C8
:1014E0003A0274037888F6C238C239A1CCC3E552F7
:1014F00094087019C3E553940650028113740230A6
:101500003A0274047888F6D238D239A1CCC3E552B5
:1015100094097017C3E553940650028113303A0BB7
:10152000C37888E69402F6C23AA1CCC3E552940A85
:101530007016C3E553940650028113203A0A788846
:10154000E62402F6D23AA1CCC3E55294147025C326
:10155000E553940650028113C2AF901A0B740093A6
:10156000D2AF7888F613C238C2394002D23840026E
:10157000D2398058C3E55294157038C3E5539406A8
:101580004050C2AF901A0B740093D2AFF8B801026A
:101590007402B802027401B803027404B80402743D
:1015A000037888F613C238C2394002D2384002D2DA
:1015B000398019C3E552940C70127568A57569F1EC
:1015C000C3E5539406400B1217F8D2AF755200755D
:1015D00053007568007569008113C2AF120F7BE478
:1015E000D2AFE4F55FF524F525F53D755F081206E9
:1015F000F512075E30EDFDA8BDA9BEE97001F888BF
:1016000060120762755F08C2AF1207C9855E5C850C
:101610005E5DD2AF75A71075C13075A70075A903BF
:10162000756701303A07C238303502D238D2287592
:101630003900120E16120E971207D81207DF120980
:10164000491209641207D81207DF12094912096406
:101650001207D8120A6F120B6C120C121207DF124B
:101660000949120964120A5F202C03120718302C52
:1016700003120748120B6C120C931207DF12094970
:10168000120964120A6F120B6C120D141207DF128A
:101690000949120964120A5F120B6C120D951207A8
:1016A000DF120949120964120A6F120B6C120E162E
:1016B0001207DF12094912096412075E120A5F124B
:1016C0000B6C120E971207621207DF1209491209FA
:1016D00064302827855E5C79187A0CC3E539994017
:1016E0000EC228D2298A3B855E5C855E5D800CC374
:1016F000E55494014003021653E18130291F202B49
:101700001CE53B147006C229D22AC153F53B203A8E
:1017100007C3E554940140030216538064753C00EE
:10172000203A0F78FA79A4E760027803C3E5559868
:10173000504FE523604B303A17203805203507809D
:101740000F303502800A202B07D22B855E5CC195B5
:1017500078F0302B05855E5C7820C3E5489850030F
:10176000021653302B1BC22BC238303502D238D26E
:1017700029753B12855E5CC153053CE5546002E16E
:1017800084753C00C2AF120F7B752500D2AF1207E3
:1017900005120F7B75240078A4E66006D290D291E2
:1017A000D292C3E53C94044002419A61B9901A0D6B
:1017B0007820121833E520B4550BA3121833E52016
:1017C000B4AA0280137568A57569F1120F8EF1F83D
:1017D000756800756900801F901A0378807B0A1273
:1017E0001833A308DBF9901A0F788C7B1A12183380
:1017F000A308DBF9901A2922C2AF121876121853E7
:10180000901A0074101138A3744E1138A37421116A
:1018100038901A0378807B0A1137A308DBFA901AF4
:101820000F788C7B1A1137A308DBFA1189116790A6
:101830001A2922E493F622E6438F01538FFDFFC35A
:10184000E583941C400122EF8568B78569B7F053A2
:101850008FFE22438F02438F018568B78569B79059
:101860001A0DF0538FFC22901A0D74551138901AEE
:101870000E74AA1138227A3079D07820901A40114B
:1018800033E520F709A3DAF7227A3079D0901A40AD
:10189000E7113809A3DAF9227C05120709DCFB22DB
:1018A000C2AF120F18120F1E120F24120F2A1206A7
:1018B000FD120F18120F1E120F24120F2A1206FD0E
:1018C000120F18120F1E120F24120F2AD2AF22C2AB
:1018D000AF120F2A120F24120F1E120F181206FD3C
:1018E000120F2A120F24120F1E120F181206FD12C9
:0E18F0000F2A120F24120F1E120F18D2AF2251
:1019FD0002122B104E21FFFFFFFFFFFF09FF01FF1A
:101A0D0055AA01FFFFFFFFFF03FFFFFF25D0285061
:0D1A1D0004FF02FF7AFF0701FFFF0000FF3A
:101A400023515F485F323023202020202020202097
:101A500023424C48454C492445464D3842323123B7
:101A60002020202020202020202020202020202076
:101A800083220102030405060708090A0B0C0D0E48
:101A90000F10F1E1D1C1B1A19181716151413121A9
:101AA000112010F1E1D1C1B1A19181716151413198
:101AB00021302010F1E1D1C1B1A191817161514179
:101AC0003140302010F1E1D1C1B1A191817161515A
:101AD000415040302010F1E1D1C1B1A1918171613B
:101AE00051605040302010F1E1D1C1B1A19181711C
:101AF0006170605040302010F1E1D1C1B1A19181FD
:101B0000718070605040302010F1E1D1C1B1A191DD
:101B100081908070605040302010F1E1D1C1B1A1BE
:101B200091A0908070605040302010F1E1D1C1B19F
:101B3000A1B0A0908070605040302010F1E1D1C180
:101B4000B1C0B0A0908070605040302010F1E1D161
:101B5000C1D0C0B0A0908070605040302010F1E142
:101B6000D1E0D0C0B0A0908070605040302010F123
:101B7000E1F0E0D0C0B0A090807060504030201004
:011B8000F173
:101C0000C2AFC2D37597DE7597AD7581C075A90057
:101C100043FF80752438752503B1EA7529A5752A17
:101C2000F143F10253A4FDD28175D4FF75E3407DE9
:101C3000FA780379E67C10752200752300901DF771
:101C40007B06752498752501E4308110C0E0E430EE
:101C5000810AD5E0FAD0E0D5E0EF806D208108D888
:101C6000FBD9F9DCF781C9308108D8FBD9F9DCF759
:101C700081C9B1AAE493A3C39A6004DDB481C9DB2E
:101C8000DBB19C600281317B08E493FAA3B17DDB78
:101C9000F87A30B17D752200752300B19CEAFCEB27
:101CA000FDC3ED94FE400EB19C8A278B28ED30E0F9
:101CB000048A828B83B19C7AC270D8C3ED94FE6093
:101CC0001950CEBD0029EC600F7520007521FF75FD
:101CD0002900752A000200008100A827A928080908
:101CE000D804D90281ECB1A0EAF281E00D81B5C33C
:101CF000ED94035051EDA2E092007AC5C3E58294C1
:101D000000E583941C508C200010438F02438F0108
:101D10008529B7852AB7F0300027A827A928080900
:101D2000438F01538FFDD804D902A141C3E58394A9
:101D30001C4003A3A126E28529B7852AB7F0A3A1F9
:101D400026538FFC81917AC1BD030CE493A3FAB1B1
:101D500061DCF8B15981918193AA22AB23B17DEB6B
:101D6000FAEA6222752608C3E52313F523E5221358
:101D7000F52250066323A0632201D526EAB1EAB119
:101D8000EA75260AEAF4200102D281300102C281FA
:101D9000B1EAC3134002C201D526EB22B1A0EAFB8F
:101DA000208102A1A0308102A1A5752608AE24AF32
:101DB00025C3EF13FFEE13FEB1EEB1EAC3EA133011
:101DC00081024480FA30E703632201C3E52313F55F
:101DD00023E52213F52250066323A0632201D526B2
:101DE000D9E52265236523F52222AE24AF250E0F07
:101DF000DEFEDFFCD20122424C48656C693437318B
:051E000064E8B20601D8
:00000001FF
