:020000040000FA
:060000000219FD02069E3C
:03000B0002029658
:030013000206E7FB
:03001B0002055388
:03002B000202E3EB
:03005B000206F9A1
:030073000203186D
:1000C0000406080C10182030406080A0C09000D1B9
:1000D0007301F101FE210E211E212B213B2148211C
:1000E0005B216B217E2188219821A521BB21C8217C
:1000F000DBA6F008A67408A672088572F022A6F0A6
:1001000008A67208A67308A672088572F022E57325
:10011000B5F002E574F608A674088572F022A6F020
:1001200008A67208A674088572F022A6F008A673C5
:1001300008A67208A672088572F022A6F008A673B7
:1001400008A673088572F022E573B5F002E574F62F
:1001500008A67208A673088572F022A6F008A67297
:1001600008A67208A673088572F022E573B5F0023E
:10017000E574F608A67308A672088572F022A6F048
:1001800008A674088573F022E573B5F002E574F6ED
:1001900008A673088573F022A6F008A67208A67355
:1001A000088573F022E573B5F002E574F608A672CF
:1001B00008A67208A672088572F022A6F008A67337
:1001C00008A672088573F022E573B5F002E574F6AF
:1001D00008A67208A672088573F022A6F008A67217
:1001E00008A67208A672088573F022E529A2473393
:1001F000F52875290F8075E529A24733A24633F506
:100200002875290D8066E529A24733A24633A24509
:1002100033F52875290B8054E52854F0C24C452944
:10022000C4F5287529098044E528A24813A249137A
:10023000A24A13F5287529078032E528A24813A29F
:100240004913F5287529058023E528A24813F528C8
:100250007529038017204F93204E9C204DA8204CD9
:10026000B7204BC4204AD32049DFE528C465286560
:1002700029F478D08572F023541E11CDE52823543B
:100280001E11CDE528C423541E11CDE52923541E8B
:1002900011CDA6F008220540203B0132C0D0C0E0BD
:1002A00075D01018B8CF3320830BD28385728A089B
:1002B000D0E0D0D03275A404D283C23B758E0C75C9
:1002C00089AAC2A9C289C28B758A00758C00758201
:1002D00000D2A8D2AAD0E0D0D032B283868AD0E0B1
:1002E000D0D032C0D0C0E0C2CF0541E5676009E59B
:1002F000666005756600801B756601E52360021562
:1003000023C3E554600575550080080555E5557013
:10031000021555D0E0D0D032C2AF53E67F7592FAC5
:100320007593FFC22053917FD2AF32C0D075D010E9
:10033000E52C7004E52B601EE52BA26013F528A2C6
:1003400061132528F528E52C03C2E7F52903C2E748
:100350003529F52980067528FF7529FF5155C28D6D
:10036000758A86758E097589A2D23BD2A9D283750A
:10037000A40CD0D032758200752800752900752A2A
:1003800000780075F000E0C0E0C395F0D0F028C31D
:10039000956B78004007D24B956C4001F80582E0E0
:1003A000C0E0C395F0D0F028C3956B78004007D229
:1003B0004A956C4001F80582E0C0E0C395F0D0F0AA
:1003C00028C3956B78004007D249956C4001F80529
:1003D00082E0C0E0C395F0D0F028C3956B78004070
:1003E00007D248956C4001F80582E0C0E0C395F063
:1003F000D0F028C3956B78004007D247956C400138
:10040000F80582E0C0E0C395F0D0F028C3956B7882
:10041000004007D246956C4001F80582E0C0E0C379
:1004200095F0D0F028C3956B78004007D245956CC5
:100430004001F80582E0C0E0C395F0D0F028C395F4
:100440006B78004007D244956C4001F80582E0C00B
:10045000E0C395F0D0F028C3956B78004007D243F5
:10046000956C4001F80582E0C0E0C395F0D0F0281B
:10047000C3956B78004007D242956C4001F8058225
:10048000E0C0E0C395F0D0F028C3956B780040073A
:10049000D241956C4001F80582E0C0E0C395F0D0F0
:1004A000F028C3956B78004007D240956C4001F866
:1004B0000582E0C0E0C395F0D0F028C3956B7800CA
:1004C0004007D253956C4001F80582E0C0E0C39527
:1004D000F0D0F028C3956B78004007D252956C405D
:1004E00001F80582E0C0E0C395F0D0F028C3956B19
:1004F00078004007D251956C4001F80582E0C0E0D9
:10050000C395F0D0F028C3956B78004007D2509582
:100510006C4001F80582E528C4652865293037015B
:10052000F4652A540F22900000D2A8D2AA0522E531
:1005300022700215220522E52270021522C3E5224F
:1005400094324005755400A14C75230AD0F0D0E0D8
:10055000D0D032C2AFC2A8C28EC0D0C0E0C0F07549
:10056000D008C2CAA8CCA9CDD2CAD2AF758A00C35E
:10057000E8956EF8E9956FF9E970ABE8957040A6DB
:10058000957150A2E582B4109D71757099A928E506
:1005900028C39460FAE5299400FB50177B007A0089
:1005A000E96010C313500CB5520405538005F55291
:1005B000755300303702712B303A27C3EA94D0F8D4
:1005C000EB9407F9400BE8FAE9FB203509D235A195
:1005D000D6303502C235203902B235C3EA33FAEBE0
:1005E00033FBEB2B3B3BF9C3EB13FBEA13FAEA2992
:1005F000FAEB3400FB30E3047AFF7BFFE52554037C
:10060000601B202A18E55E33F9EB7007C3E99A40B6
:1006100002E9FAE53CC4332AFAEB3400FBC3EA33BF
:10062000C4540FF8EB33C454F048F87005EA600284
:100630007801E52260021522D2308854E554600327
:10064000755500AC5CC3E55C955D4002AC5DC3ECE8
:1006500095545008EC75F008A4FAABF08A5A8BF068
:100660007900EAA2F013F55A535A07A2F113A2F245
:1006700013F4F8C3E8940AFAE99400FB50047A00F2
:100680007B00885689578A588B5975230A2037076B
:10069000900000D2A8D2AAD0F0D0E0D0D032C0D002
:1006A000C0E0E58AF00582856D8BD0E0D0D0323095
:1006B0008320F00582856D8BD0E0D0D032F00582AA
:1006C0002083FDE58AF00582856D8BD0E0D0D0C215
:1006D0008932F005823083FDE58AF00582856D8BD5
:1006E000D0E0D0D0C28932C2AA856D8BD28EC2CA68
:1006F00085CC6E85CD6FD2CA3253E6EF3279018058
:100700001479038010790A800C791E80087964803E
:100710000479C880007817E4D5E0FDD8FAD9F6222C
:1007200078FF20282879A1E76023E548601F74FF3F
:100730008548F084853FF030290375F005A4F8C59D
:10074000F0600278FFC3E8955E5002A85E885D22E3
:10075000C3E54794A0E5489400E55D50031480018B
:10076000046002F55D2275E89022055FC3E55F94A1
:1007700008405330EDF4A8BDA9BE755F00E9FA79D1
:10078000A0E76041EA7006E5606018800CC3E89558
:1007900060600EE5605005600A1480070460FA800E
:1007A00002E560F560C3956A401B755CC0C39404A4
:1007B0004013755C80C39404400B755C40C3940483
:1007C0004003755C0022E55C2410500274FFF55C68
:1007D00022743279A687F0A4C5F0A2F733F55E2221
:1007E0007547007548F022C2AFC2CAA8CCA9CDAAED
:1007F0004130CF010AD2CAD2AFC3EA13FAE913F9E2
:10080000E813F8AB42AC4388428943C3E89BF8E95C
:100810009C20280A547FF9302C0221048040AD44EA
:100820008A44F9EA9D547FFA600678FF79FF8013C5
:10083000AE45AF468B458C46A842A943C3E89EF817
:10084000E99FF9C3E54813FBE54713FAE82AF547A2
:10085000E93BF54850087547FF7548FF804DAA47AA
:10086000AB48AC47AD487E047F02C3EB9404400D17
:100870001E1FC3EB940840052029021E1FC3ED1361
:10088000FDEC13FCDEF7C3EA9CFAEB9DFBEF60097D
:10089000C3E913F9E813F8DFF7EA28FAEB39FB8A22
:1008A000478B4850067BFF8B478B48C3EB94025025
:1008B00002D22C3028047F03801C7892E6FFC3E527
:1008C0003D948240110FC3E53D94A040010FC3EF5A
:1008D000940640027F057E02E548C4540FF9E548BE
:1008E000C454F0F8E547C4540F28F8C3E89EFAE969
:1008F0009400FB400AC3EA9401EB94004001227A81
:1009000001E4FB22AA47AB48EBC4FEEAC4540F4EF5
:10091000FCC3EA9CFAEB9400FBC3E813C313F8EAA8
:1009200028FAEB3400FB8A478B48C3EB9402400261
:10093000C22C7802EBC4FE7B00EAC4540F4EFAC30B
:10094000EA98FA4005C3940150027A017892E6FFD2
:1009500022C2AF85472B85482CD2AF302002215BC5
:10096000854E92854F93D22043E68022C3E49AF8C5
:10097000E49BF9C3E833F8E933F9302C030209F1B9
:10098000E8FAE9FBD3E913FDE813FC884E894FC36D
:10099000EF94036038EF20E00CE82CF8E93DF9EC27
:1009A000FAEDFB8013E828F8E939F9C3E82401F8E7
:1009B000E93400F97AFF7BFFC3EF9403400F8A50BC
:1009C0008B51884A894B8C4C8D4D020A2688508960
:1009D000518A4A8B4B8C4C8D4D3028127550F075D6
:1009E00051FF754CF0754DFF754EF0754FFF020AC3
:1009F00026E8FAD3E813FC884EC3EF94036021EF96
:100A000020E007E82CF8ECFA4111E8282401F87AF4
:100A1000FFC3EF940340098A50884A8C4C020A268F
:100A200088508A4A8C4C3020024126753A02D220E6
:100A300043E680E5255403602DA847A948C3E91380
:100A4000F9E813F8302804E92440F9C2AF53E67FEF
:100A5000759100C3E498F594E499F595759104D2E5
:100A60002043E680D2AF22D22175490075200030A4
:100A70002B037520404185D22175490075204030F7
:100A80002B0375200078017901202C20E5255403E3
:100A90006002C2217914E548C313700104F8C394BD
:100AA0001440027814302804781B791BC3E833F80B
:100AB000C3E933F9202010E549600C302803D53A0A
:100AC00004D2226138512E0549E59B5440B52002DD
:100AD000612230280908C3E89940011841B4202157
:100AE0000A08C3E8994002418541B4C22153E67F18
:100AF000759100302C117594007595F0759104D2A4
:100B00002043E680020A85E5487EFFC3334009C3DF
:100B1000334005C3334001FEC3E49E759400F59550
:100B200041FCC3E5399401500241853021024185E1
:100B3000D802613641B4C222C2AF53E67F7591003C
:100B4000855094855195759104854A92854B93D231
:100B50002043E680D2AFE525540360072029020533
:100B600039801030220D202B0A2021071581158194
:100B70000216882278003021027801E53D75F007E1
:100B8000A4F9E5F028F5F0E9A2F013A2F113A2F21E
:100B900013F53DC394785003753D78C3E53D953E0C
:100BA0004009C291C292C29375D57F30200261ABD9
:100BB000854C92854D93D22043E68022E55B455AD1
:100BC00071E2F55B43560130E006535B3D5356FE40
:100BD000228322010203040D090508040D090C08F3
:100BE000040D832201020304050607083931292177
:100BF0001911091008393129211911181008393132
:100C00002921192018100839312921282018100805
:100C10003931293028201810083931383028201867
:100C200010083971BC203829C2AFC295C29675D858
:100C3000008558F975FA008556FB8556FC8558E9FC
:100C40008558EA75D53775D840D294D2AF759F458F
:100C500022C2AFC294C29575D8008558F975FA00C2
:100C60008556FB8556FC8558E98558EA75D56D751E
:100C7000D840D296D2AF759F452271BC203829C288
:100C8000AFC295C29675D8008558F975FA00855699
:100C9000FB8556FC8558E98558EA75D55B75D840C3
:100CA000D294D2AF759F6522C2AFC294C29575D857
:100CB000008558F975FA008556FB8556FC8558E97C
:100CC0008558EA75D55B75D840D296D2AF759F75B9
:100CD0002271BC203829C2AFC294C29575D8008554
:100CE00058F975FA008556FB8556FC8558E98558F4
:100CF000EA75D55B75D840D296D2AF759F7522C282
:100D0000AFC295C29675D8008558F975FA00855618
:100D1000FB8556FC8558E98558EA75D55B75D84042
:100D2000D294D2AF759F652271BC203829C2AFC260
:100D300094C29575D8008558F975FA008556FB85DB
:100D400056FC8558E98558EA75D56D75D840D29618
:100D5000D2AF759F4522C2AFC295C29675D80085A5
:100D600058F975FA008556FB8556FC8558E9855873
:100D7000EA75D53775D840D294D2AF759F452271A8
:100D8000BC203829C2AFC294C29675D8008558F9E4
:100D900075FA008556FB8556FC8558E98558EA7535
:100DA000D56D75D840D295D2AF759F6522C2AFC2BE
:100DB00094C29675D8008558F975FA008556FB855A
:100DC00056FC8558E98558EA75D53775D840D295CF
:100DD000D2AF759F752271BC203829C2AFC294C2B0
:100DE0009675D8008558F975FA008556FB8556FC2E
:100DF0008558E98558EA75D53775D840D295D2AF70
:100E0000759F7522C2AFC294C29675D8008558F9F5
:100E100075FA008556FB8556FC8558E98558EA75B4
:100E2000D56D75D840D295D2AF759F65227A147B67
:100E30007880127A107B8C800C7A0D7BB480067AD5
:100E40000B7BC88000E565D5E001227902E4C295FC
:100E5000D5E0FDD292D5E0FDC292D5E0FDD295D588
:100E6000E0FDE920E002D29130E002D293E565D5C1
:100E7000E0FDE920E002C29130E002C2937496D511
:100E8000E0FDD9C9EAF8D5E0FDD8FBDBB8C2952270
:100E9000C291C292C293C294C295C29675D57F2266
:100EA000788076FF0876FF0876FF0876FF0876FFE1
:100EB0000876FF0876090876FF087601788C7601B7
:100EC0000876FF0876FF0876FF0876FF0876FF08A9
:100ED00076030876FF0876FF0876FF087625087601
:100EE000D00876280876500876040876FF0876023F
:100EF0000876FF08767A0876FF08760708760108F4
:100F000076FF0876FF08760008760022FA75F00C66
:100F1000A4ABF0EAC333F8740133F9E8C333F8E95A
:100F200033F9E8C32BF8E93400F9E8C333F8E933BF
:100F3000F9227888E6C39403D23A5002C23AC23802
:100F4000E630E102D238A23892397886E614900071
:100F5000C09378A6F67886E6F53FC39402500375F1
:100F60003F02789CE6753EFFB40203753EA0B403D1
:100F700003753E8278A0E6F8600674282409D8FC40
:100F8000F56A7896E6F10C88318932789EE6F10CA4
:100F9000883389347897E6F10C88358936D19022E8
:100FA0003036127A007B007CFF7D007E0012100834
:100FB0008B628A6122303A237896E6FA7B00789E2B
:100FC000E6FC7D00C3EA33FAEB33FBC3EC33FCED04
:100FD00033FD7E0A1210088B648A637896303A02D9
:100FE000789EE6FA7B007897E6FC7D007E00303A3A
:100FF00010C3EA33FAEB33FBC3EC33FCED33FD7E75
:101000000A11088B628A6122C3EC9EFCED9400FDFC
:10101000C3EC9AFCED9BFDC3EC9423ED94005004CB
:101020007C237D00C3EC94FFED940140047CFF7DA4
:10103000017BFF0B7A000AEA7009C3EC33FCED3345
:10104000FD80F0EC8AF0A4AEF0ED8AF0A42E947C42
:1010500040E4EAF460DD22D236120FA01207091232
:1010600007097A007B007C10120701E5542AFA7404
:10107000003BFBDCF37C04C3EB13FBEA13FADCF765
:10108000FFEB60027FFFC236120FA02278A5E6F9BF
:101090005403D2827002C282E9540C7000E95430C9
:1010A0007000E954C0700022758851758E0C7589E6
:1010B000AA758C00758D00758E0C756D3C756B2056
:1010C000756C1E303703756C1B75704E75714375EA
:1010D00072FF7573EC7574DD22758851758E0C7511
:1010E00089AA758C00758D00758E0C756D00756BF9
:1010F00040756C3C303703756C3675709D75718723
:101100007572EC7573CB7574AB22741E208315C099
:10111000D0C0E0740AD5E0FDD0E0D0D02083EBD57C
:10112000E0EDC322C0D0C0E0740AD5E0FDD0E0D02D
:10113000D03083D6D5E0EDD322756800756900758F
:1011400097DE7597AD7581AF43FF8075EF0675A982
:1011500000120E907580FB75F10F75A4047580FB6D
:1011600075D4FF75900075F27E75A57E759000753B
:10117000D57F75A60175E34075E202120E90E4F882
:10118000F6D8FD120EA0D1BC78988665753001C2E4
:10119000AF120711120E2D120709120E3312070992
:1011A000120E39120709118CC2AF756800756900FB
:1011B00078FA79FA308316D9FBD8F775A91375A791
:1011C0001075C10075A700756700021C00120F3270
:1011D000120FA078988665120E9075A71075C13011
:1011E00075A70075A90375670175C8047591047525
:1011F000D84075D90875F780759E03755B20759684
:101200000275DA4275DB4275A82375E68075B8036E
:10121000759B80759D0075D10C75BCB975BB10753B
:10122000E88075B2011206FD753C00C2301207114C
:10123000C231C232C233C234755200755300D23447
:10124000310A9237C23B752B00752C0075E4B33020
:10125000370375E43B11A8C2A9D2ABD2AAD2AF75AD
:10126000223212070D755200755300C3E522940215
:10127000401711D975223212070D755200755300AF
:10128000C3E5229402400221A81207012030022166
:10129000A8E554600221A8C2AF120E2D120E2D1225
:1012A0000E2DD2AF12071175680075690012070D77
:1012B000E554600221A8C2AF120E3F120E3F120E7B
:1012C0003FD2AF120711753000752B00752C00E46A
:1012D000F537F5380537E537F4703F0538789AE685
:1012E0007819146012783214600D787D14600878D3
:1012F000FA146003753800C3E53898401D120E904B
:101300001206FD153875370078998665C2AF120E42
:101310003FD2AF7898866512070D120705E5237056
:101320000221A8C3E5549401500AC3E55294015028
:10133000160212D412070DE52370030211A875528C
:10134000007553000214E9C3E55294017017C2AF4F
:10135000120E9078998665120E2D78988665D2AF18
:1013600012070D81DBC3E55294027017C2AF120E53
:101370009078998665120E3378988665D2AF1207F9
:101380000D81DBC3E55294037017C2AF120E907843
:10139000998665120E3978988665D2AF12070D814D
:1013A000DBC3E55294047017C2AF120E9078998691
:1013B00065120E3F78988665D2AF12070D81DBC3A8
:1013C000E55294057017C2AF120E90789986651297
:1013D0000E3F78988665D2AF12070D81DBC3E552C8
:1013E00094077019C3E553940650026123740130C9
:1013F0003A0274037888F6C238C23981DBC3E552F9
:1014000094087019C3E553940650026123740230A6
:101410003A0274047888F6D238D23981DBC3E552B7
:1014200094097017C3E553940650026123303A0BB8
:10143000C37888E69402F6C23A81DBC3E552940A87
:101440007016C3E553940650026123203A0A788847
:10145000E62402F6D23A81DBC3E55294147025C328
:10146000E553940650026123C2AF901A0B740093A7
:10147000D2AF7888F613C238C2394002D23840025F
:10148000D2398057C3E55294157038C3E55394069A
:10149000404FC2AF901A0B740093D2AFF8B801025C
:1014A0007402B802027401B803027404B80402742E
:1014B000037888F613C238C2394002D2384002D2CB
:1014C000398018C3E552940C70117568A57569F1DF
:1014D000C3E5539406400AF103D2AF755200755329
:1014E000007568007569006123C2AF120E90E4D2E6
:1014F000AFE4F55FF524F525F53D755F081206FDAF
:1015000012076630EDFDA8BDA9BEE97001F888603C
:1015100012076A755F08C2AF1207D1855E5C855EEF
:101520005DD2AF75A71075C13075A70075A9037599
:101530006701303A07C238303502D238D2287539BF
:1015400000120D7F120DD61207E01207E7120951A3
:1015500012096C1207E01207E712095112096C1206
:1015600007E0120A77120B74120C231207E7120914
:101570005112096C120A67202C03120720302C0329
:10158000120750120B74120C7A1207E7120951124B
:10159000096C120A77120B74120CD11207E71209A8
:1015A0005112096C120A67120B74120D281207E708
:1015B00012095112096C120A77120B74120D7F1264
:1015C00007E712095112096C120766120A67120B1B
:1015D00074120DD612076A1207E712095112096C2C
:1015E000302827855E5C79187A0CC3E53999400E5E
:1015F000C228D2298A3B855E5C855E5D800CC3E58E
:101600005494014003021562C19030291F202B1C05
:10161000E53B147006C229D22AA162F53B203A07A5
:10162000C3E554940140030215628064753C0020B8
:101630003A0F78FA79A4E760027803C3E555985029
:101640004FE523604B303A17203805203507800FCF
:10165000303502800A202B07D22B855E5CA1A4784E
:10166000F0302B05855E5C7820C3E5489850030276
:101670001562302B1BC22BC238303502D238D2292A
:10168000753B12855E5CA162053CE5546002C19326
:10169000753C00C2AF120E90752500D2AF12070D37
:1016A000120E9075240078A4E66006D294D295D2EA
:1016B00096C3E53C9404400221A841C9901A0D78D4
:1016C00020F13CE520B4550AA3F13CE520B4AA0280
:1016D00080137568A57569F1120EA0F10375680095
:1016E000756900801D901A0378807B0AF13CA3087D
:1016F000DBFA901A0F788C7B1AF13CA308DBFA9086
:101700001A2922C2AFF17FF15C901A007410F141E6
:10171000A3744EF141A37421F141901A0378807BA8
:101720000AF140A308DBFA901A0F788C7B1AF1407B
:10173000A308DBFAF192F170901A2922E493F622C1
:10174000E6438F01538FFDFFC3E583941C400122C4
:10175000EF8568B78569B7F0538FFE22438F024348
:101760008F018568B78569B7901A0DF0538FFC22F9
:10177000901A0D7455F141901A0E74AAF141227A13
:101780003079D07820901A40F13CE520F709A3DAAF
:10179000F7227A3079D0901A40E7F14109A3DAF9BB
:1017A000227C05120711DCFB22C2AF120E2D120E95
:1017B00033120E39120E3F120705120E2D120E3380
:1017C000120E39120E3F120705120E2D120E331291
:1017D0000E39120E3FD2AF22C2AF120E3F120E3997
:1017E000120E33120E2D120705120E3F120E391271
:1017F0000E33120E2D120705120E3F120E39120E65
:0718000033120E2DD2AF22BE
:1019FD00021139104E21FFFFFFFFFFFF09FF01FF0D
:101A0D0055AA01FFFFFFFFFF03FFFFFF25D0285061
:0D1A1D0004FF02FF7AFF0701FFFF0000FF3A
:101A4000234D5F485F31302320202020202020209C
:101A500023424C48454C492445464D3842323123B7
:101A60002020202020202020202020202020202076
:101BFF00FFC2AFC2D37597DE7597AD7581C075A95A
:101C0F000043FF80752438752503B1EA7529A57542
:101C1F002AF143F10853A4F7D28375D4FF75E3403B
:101C2F007DFA780379E67C10752200752300901DEC
:101C3F00F77B06752498752501E4308310C0E0E426
:101C4F0030830AD5E0FAD0E0D5E0EF806D2083082D
:101C5F00D8FBD9F9DCF781C9308308D8FBD9F9DC77
:101C6F00F781C9B1AAE493A3C39A6004DDB481C913
:101C7F00DBDBB19C600281317B08E493FAA3B17D79
:101C8F00DBF87A30B17D752200752300B19CEAFC38
:101C9F00EBFDC3ED94FE400EB19C8A278B28ED30EF
:101CAF00E0048A828B83B19C7AC270D8C3ED94FE14
:101CBF00601950CEBD0029EC600F7520007521FF13
:101CCF00752900752A000200008100A827A928089D
:101CDF0009D804D90281ECB1A0EAF281E00D81B5F7
:101CEF00C3ED94035051EDA2E092007AC5C3E58293
:101CFF009400E583941C508C200010438F02438F77
:101D0F00018529B7852AB7F0300027A827A9280809
:101D1F0009438F01538FFDD804D902A141C3E58335
:101D2F00941C4003A3A126E28529B7852AB7F0A307
:101D3F00A126538FFC81917AC1BD030CE493A3FAC2
:101D4F00B161DCF8B15981918193AA22AB23B17DA6
:101D5F00EBFAEA6222752608C3E52313F523E52281
:101D6F0013F52250066323A0632201D526EAB1EAB8
:101D7F00B1EA75260AEAF4200102D283300102C2C9
:101D8F0083B1EAC3134002C201D526EB22B1A0EA08
:101D9F00FB208302A1A0308302A1A5752608AE24E3
:101DAF00AF25C3EF13FFEE13FEB1EEB1EAC3EA1393
:101DBF003083024480FA30E703632201C3E5231323
:101DCF00F523E52213F52250066323A0632201D5E4
:101DDF0026D9E52265236523F52222AE24AF250EF1
:101DEF000FDEFEDFFCD20122424C48656C693437AE
:061DFF003164E8B20601A8
:011FFF00FFE2
:00000001FF
