:020000040000FA
:060000000219FD02069E3C
:03000B0002029658
:030013000206E7FB
:03001B0002055388
:03002B000202E3EB
:03005B000206F9A1
:030073000203186D
:1000C0000406080C10182030406080A0C09000D1B9
:1000D0007301F101FE210E211E212B213B2148211C
:1000E0005B216B217E2188219821A521BB21C8217C
:1000F000DBA6F008A67408A672088572F022A6F0A6
:1001000008A67208A67308A672088572F022E57325
:10011000B5F002E574F608A674088572F022A6F020
:1001200008A67208A674088572F022A6F008A673C5
:1001300008A67208A672088572F022A6F008A673B7
:1001400008A673088572F022E573B5F002E574F62F
:1001500008A67208A673088572F022A6F008A67297
:1001600008A67208A673088572F022E573B5F0023E
:10017000E574F608A67308A672088572F022A6F048
:1001800008A674088573F022E573B5F002E574F6ED
:1001900008A673088573F022A6F008A67208A67355
:1001A000088573F022E573B5F002E574F608A672CF
:1001B00008A67208A672088572F022A6F008A67337
:1001C00008A672088573F022E573B5F002E574F6AF
:1001D00008A67208A672088573F022A6F008A67217
:1001E00008A67208A672088573F022E529A2473393
:1001F000F52875290F8075E529A24733A24633F506
:100200002875290D8066E529A24733A24633A24509
:1002100033F52875290B8054E52854F0C24C452944
:10022000C4F5287529098044E528A24813A249137A
:10023000A24A13F5287529078032E528A24813A29F
:100240004913F5287529058023E528A24813F528C8
:100250007529038017204F93204E9C204DA8204CD9
:10026000B7204BC4204AD32049DFE528C465286560
:1002700029F478D08572F023541E11CDE52823543B
:100280001E11CDE528C423541E11CDE52923541E8B
:1002900011CDA6F008220540203B0132C0D0C0E0BD
:1002A00075D01018B8CF3320850BD28585728A0897
:1002B000D0E0D0D03275A480D285C23B758E0C754B
:1002C00089AAC2A9C289C28B758A00758C00758201
:1002D00000D2A8D2AAD0E0D0D032B285868AD0E0AF
:1002E000D0D032C0D0C0E0C2CF0541E5676009E59B
:1002F000666005756600801B756601E52360021562
:1003000023C3E554600575550080080555E5557013
:10031000021555D0E0D0D032C2AF53E67F7592FAC5
:100320007593FFC22053917FD2AF32C0D075D010E9
:10033000E52C7004E52B601EE52BA26013F528A2C6
:1003400061132528F528E52C03C2E7F52903C2E748
:100350003529F52980067528FF7529FF5155C28D6D
:10036000758A86758E097589A2D23BD2A9D2857508
:10037000A4A0D0D032758200752800752900752A96
:1003800000780075F000E0C0E0C395F0D0F028C31D
:10039000956B78004007D24B956C4001F80582E0E0
:1003A000C0E0C395F0D0F028C3956B78004007D229
:1003B0004A956C4001F80582E0C0E0C395F0D0F0AA
:1003C00028C3956B78004007D249956C4001F80529
:1003D00082E0C0E0C395F0D0F028C3956B78004070
:1003E00007D248956C4001F80582E0C0E0C395F063
:1003F000D0F028C3956B78004007D247956C400138
:10040000F80582E0C0E0C395F0D0F028C3956B7882
:10041000004007D246956C4001F80582E0C0E0C379
:1004200095F0D0F028C3956B78004007D245956CC5
:100430004001F80582E0C0E0C395F0D0F028C395F4
:100440006B78004007D244956C4001F80582E0C00B
:10045000E0C395F0D0F028C3956B78004007D243F5
:10046000956C4001F80582E0C0E0C395F0D0F0281B
:10047000C3956B78004007D242956C4001F8058225
:10048000E0C0E0C395F0D0F028C3956B780040073A
:10049000D241956C4001F80582E0C0E0C395F0D0F0
:1004A000F028C3956B78004007D240956C4001F866
:1004B0000582E0C0E0C395F0D0F028C3956B7800CA
:1004C0004007D253956C4001F80582E0C0E0C39527
:1004D000F0D0F028C3956B78004007D252956C405D
:1004E00001F80582E0C0E0C395F0D0F028C3956B19
:1004F00078004007D251956C4001F80582E0C0E0D9
:10050000C395F0D0F028C3956B78004007D2509582
:100510006C4001F80582E528C4652865293037015B
:10052000F4652A540F22900000D2A8D2AA0522E531
:1005300022700215220522E52270021522C3E5224F
:1005400094324005755400A14C75230AD0F0D0E0D8
:10055000D0D032C2AFC2A8C28EC0D0C0E0C0F07549
:10056000D008C2CAA8CCA9CDD2CAD2AF758A00C35E
:10057000E8956EF8E9956FF9E970ABE8957040A6DB
:10058000957150A2E582B4109D71757099A928E506
:1005900028C39460FAE5299400FB50177B007A0089
:1005A000E96010C313500CB5520405538005F55291
:1005B000755300303702712B303A27C3EA94D0F8D4
:1005C000EB9407F9400BE8FAE9FB203509D235A195
:1005D000D6303502C235203902B235C3EA33FAEBE0
:1005E00033FBEB2B3B3BF9C3EB13FBEA13FAEA2992
:1005F000FAEB3400FB30E3047AFF7BFFE52554037C
:10060000601B202A18E55E33F9EB7007C3E99A40B6
:1006100002E9FAE53CC4332AFAEB3400FBC3EA33BF
:10062000C4540FF8EB33C454F048F87005EA600284
:100630007801E52260021522D2308854E554600327
:10064000755500AC5CC3E55C955D4002AC5DC3ECE8
:1006500095545008EC75F008A4FAABF08A5A8BF068
:100660007900EAA2F013F55A535A07A2F113A2F245
:1006700013F4F8C3E8940AFAE99400FB50047A00F2
:100680007B00885689578A588B5975230A2037076B
:10069000900000D2A8D2AAD0F0D0E0D0D032C0D002
:1006A000C0E0E58AF00582856D8BD0E0D0D0323095
:1006B0008520F00582856D8BD0E0D0D032F00582A8
:1006C0002085FDE58AF00582856D8BD0E0D0D0C213
:1006D0008932F005823085FDE58AF00582856D8BD3
:1006E000D0E0D0D0C28932C2AA856D8BD28EC2CA68
:1006F00085CC6E85CD6FD2CA3253E6EF3279018058
:100700001479038010790A800C791E80087964803E
:100710000479C880007817E4D5E0FDD8FAD9F6222C
:1007200078FF20282879A1E76023E548601F74FF3F
:100730008548F084853FF030290375F005A4F8C59D
:10074000F0600278FFC3E8955E5002A85E885D22E3
:10075000C3E54794A0E5489400E55D50031480018B
:10076000046002F55D2275E89022055FC3E55F94A1
:1007700008405330EDF4A8BDA9BE755F00E9FA79D1
:10078000A0E76041EA7006E5606018800CC3E89558
:1007900060600EE5605005600A1480070460FA800E
:1007A00002E560F560C3956A401B755CC0C39404A4
:1007B0004013755C80C39404400B755C40C3940483
:1007C0004003755C0022E55C2410500274FFF55C68
:1007D00022743279A687F0A4C5F0A2F733F55E2221
:1007E0007547007548F022C2AFC2CAA8CCA9CDAAED
:1007F0004130CF010AD2CAD2AFC3EA13FAE913F9E2
:10080000E813F8AB42AC4388428943C3E89BF8E95C
:100810009C20280A547FF9302C0221048040AD44EA
:100820008A44F9EA9D547FFA600678FF79FF8013C5
:10083000AE45AF468B458C46A842A943C3E89EF817
:10084000E99FF9C3E54813FBE54713FAE82AF547A2
:10085000E93BF54850087547FF7548FF804DAA47AA
:10086000AB48AC47AD487E047F02C3EB9404400D17
:100870001E1FC3EB940840052029021E1FC3ED1361
:10088000FDEC13FCDEF7C3EA9CFAEB9DFBEF60097D
:10089000C3E913F9E813F8DFF7EA28FAEB39FB8A22
:1008A000478B4850067BFF8B478B48C3EB94025025
:1008B00002D22C3028047F03801C7892E6FFC3E527
:1008C0003D948240110FC3E53D94A040010FC3EF5A
:1008D000940640027F057E02E548C4540FF9E548BE
:1008E000C454F0F8E547C4540F28F8C3E89EFAE969
:1008F0009400FB400AC3EA9401EB94004001227A81
:1009000001E4FB22AA47AB48EBC4FEEAC4540F4EF5
:10091000FCC3EA9CFAEB9400FBC3E813C313F8EAA8
:1009200028FAEB3400FB8A478B48C3EB9402400261
:10093000C22C7802EBC4FE7B00EAC4540F4EFAC30B
:10094000EA98FA4005C3940150027A017892E6FFD2
:1009500022C2AF85472B85482CD2AF302002215BC5
:10096000854E92854F93D22043E68022C3E49AF8C5
:10097000E49BF9C3E833F8E933F9302C030209F1B9
:10098000E8FAE9FBD3E913FDE813FC884E894FC36D
:10099000EF94036038EF20E00CE82CF8E93DF9EC27
:1009A000FAEDFB8013E828F8E939F9C3E82401F8E7
:1009B000E93400F97AFF7BFFC3EF9403400F8A50BC
:1009C0008B51884A894B8C4C8D4D020A2688508960
:1009D000518A4A8B4B8C4C8D4D3028127550F075D6
:1009E00051FF754CF0754DFF754EF0754FFF020AC3
:1009F00026E8FAD3E813FC884EC3EF94036021EF96
:100A000020E007E82CF8ECFA4111E8282401F87AF4
:100A1000FFC3EF940340098A50884A8C4C020A268F
:100A200088508A4A8C4C3020024126753A02D220E6
:100A300043E680E5255403602DA847A948C3E91380
:100A4000F9E813F8302804E92440F9C2AF53E67FEF
:100A5000759100C3E498F594E499F595759104D2E5
:100A60002043E680D2AF22D22175490075200030A4
:100A70002B037520404185D22175490075204030F7
:100A80002B0375200078017901202C20E5255403E3
:100A90006002C2217914E548C313700104F8C394BD
:100AA0001440027814302804781B791BC3E833F80B
:100AB000C3E933F9202010E549600C302803D53A0A
:100AC00004D2226138512E0549E59B5440B52002DD
:100AD000612230280908C3E89940011841B4202157
:100AE0000A08C3E8994002418541B4C22153E67F18
:100AF000759100302C117594007595F0759104D2A4
:100B00002043E680020A85E5487EFFC3334009C3DF
:100B1000334005C3334001FEC3E49E759400F59550
:100B200041FCC3E5399401500241853021024185E1
:100B3000D802613641B4C222C2AF53E67F7591003C
:100B4000855094855195759104854A92854B93D231
:100B50002043E680D2AFE525540360072029020533
:100B600039801030220D202B0A2021071581158194
:100B70000216AD2278003021027801E53D75F007BC
:100B8000A4F9E5F028F5F0E9A2F013A2F113A2F21E
:100B900013F53DC394785003753D78C3E53D953E0C
:100BA000400CC296C294C29075D4FF75D57F302098
:100BB0000261AE854C92854D93D22043E68022E5BA
:100BC0005B455A71E5F55B43560130E006535B3DEA
:100BD0005356FE228322010203040D090508040D69
:100BE000090C08040D8322010203040506070839D5
:100BF0003129211911091008393129211911181029
:100C000008393129211920181008393129212820C3
:100C10001810083931293028201810083931383097
:100C200028201810083971BF20382CC2AFC291C2D9
:100C30008775D8008558F975FA008556E98556EA12
:100C40008558FB8558FC75D47F75D57E75D840D204
:100C500095D2AF759F1222C2AFC295C29175D800CE
:100C60008558F975FA008556E98556EA8558FB8559
:100C700058FC75D4FF75D51F75D840D287D2AF7593
:100C80009F122271BF20382CC2AFC291C28775D883
:100C9000008558F975FA008556E98556EA8558FBAE
:100CA0008558FC75D4FF75D56D75D840D295D2AFF7
:100CB000759F3222C2AFC295C29175D8008558F98E
:100CC00075FA008556E98556EA8558FB8558FC7506
:100CD000D4FF75D56D75D840D287D2AF759F0222EB
:100CE00071BF20382CC2AFC295C29175D80085580B
:100CF000F975FA008556E98556EA8558FB8558FC52
:100D000075D4FF75D56D75D840D287D2AF759F0267
:100D100022C2AFC291C28775D8008558F975FA0012
:100D20008556E98556EA8558FB8558FC75D4FF75CC
:100D3000D56D75D840D295D2AF759F322271BF2044
:100D4000382CC2AFC295C29175D8008558F975FA92
:100D5000008556E98556EA8558FB8558FC75D4FF11
:100D600075D51F75D840D287D2AF759F1222C2AFFA
:100D7000C291C28775D8008558F975FA008556E981
:100D80008556EA8558FB8558FC75D47F75D57E75E8
:100D9000D840D295D2AF759F122271BF20382CC295
:100DA000AFC295C28775D8008558F975FA00855687
:100DB000E98556EA8558FB8558FC75D4FF75D51F23
:100DC00075D840D291D2AF759F3222C2AFC295C2C0
:100DD0008775D8008558F975FA008556E98556EA71
:100DE0008558FB8558FC75D47F75D57E75D840D263
:100DF00091D2AF759F022271BF20382CC2AFC2952D
:100E0000C28775D8008558F975FA008556E9855668
:100E1000EA8558FB8558FC75D47F75D57E75D8401A
:100E2000D291D2AF759F0222C2AFC295C28775D848
:100E3000008558F975FA008556E98556EA8558FB0C
:100E40008558FC75D4FF75D51F75D840D291D2AFA7
:100E5000759F32227A147B7880127A107B8C800CFA
:100E60007A0D7BB480067A0B7BC88000E565D5E0FF
:100E700001227902E4C291D5E0FDD294D5E0FDC211
:100E800094D5E0FDD291D5E0FDE920E002D2963084
:100E9000E002D290E565D5E0FDE920E002C296309F
:100EA000E002C2907496D5E0FDD9C9EAF8D5E0FD1C
:100EB000D8FBDBB8C29122C296C294C290C295C23E
:100EC00091C28775D4FF75D57F22788076FF08762A
:100ED000FF0876FF0876FF0876FF0876FF08760998
:100EE0000876FF087601788C76010876FF0876FF91
:100EF0000876FF0876FF0876FF0876030876FF0875
:100F000076FF0876FF0876250876D00876280876DA
:100F1000500876040876FF0876020876FF08767A8D
:100F20000876FF0876070876010876FF0876FF083E
:100F3000760008760022FA75F00CA4ABF0EAC33311
:100F4000F8740133F9E8C333F8E933F9E8C32BF84F
:100F5000E93400F9E8C333F8E933F9227888E6C3C5
:100F60009403D23A5002C23AC238E630E102D23893
:100F7000A23892397886E6149000C09378A6F67865
:100F800086E6F53FC394025003753F02789CE675F0
:100F90003EFFB40203753EA0B40303753E8278A001
:100FA000E6F8600674282409D8FCF56A7896E6F11C
:100FB0003688318932789EE6F136883389347897DD
:100FC000E6F13688358936D1B7223036127A007B81
:100FD000007CFF7D007E001210318B628A6122301E
:100FE0003A227896E6FA7B00789EE6FC7D00C3EA1A
:100FF00033FAEB33FBC3EC33FCED33FD7E0A1131E6
:101000008B648A637896303A02789EE6FA7B0078A1
:1010100097E6FC7D007E00303A10C3EA33FAEB33EA
:10102000FBC3EC33FCED33FD7E0A11318B628A6128
:1010300022C3EC9EFCED9400FDC3EC9AFCED9BFDFD
:10104000C3EC9423ED940050047C237D00C3EC9406
:10105000FFED940140047CFF7D017BFF0B7A000AC9
:10106000EA7009C3EC33FCED33FD80F0EC8AF0A4A8
:10107000AEF0ED8AF0A42E947C40E4EAF460DD2228
:10108000D236120FCA1207091207097A007B007CB8
:1010900010120701E5542AFA74003BFBDCF37C04D0
:1010A000C3EB13FBEA13FADCF7FFEB60027FFFC22E
:1010B00036120FCA2278A5E6F954037000E9540CE1
:1010C0007000E954307000E954C0700022758851F6
:1010D000758E0C7589AA758C00758D00758E0C75D2
:1010E0006D3C756B20756C1E303703756C1B75700D
:1010F0004E7571437572FF7573EC7574DD227588DA
:1011000051758E0C7589AA758C00758D00758E0CC5
:10111000756D00756B40756C3C303703756C3675BA
:10112000709D7571877572EC7573CB7574AB227495
:101130001E208515C0D0C0E0740AD5E0FDD0E0D0F7
:10114000D02085EBD5E0EDC322C0D0C0E0740AD535
:10115000E0FDD0E0D0D03085D6D5E0EDD322756863
:10116000007569007597DE7597AD7581AF43FF8097
:1011700075EF0675A900120EB775807F75F1F075D1
:10118000A48075807F75D4FF75900075F27375A586
:101190007375900075D57F75A60175E34075E20201
:1011A000120EB7E4F8F6D8FD120ECAD1E17898868F
:1011B00065753001C2AF120711120E5412070912E1
:1011C0000E5A120709120E6012070911B5C2AF7547
:1011D000680075690078FA79FA308516D9FBD8F776
:1011E00075A91375A71075C10075A7007567000272
:1011F0001C00120F5C120FCA78988665120EB77524
:10120000A71075C13075A70075A90375670175C86A
:101210000475910475D84075D90875F780759E03DB
:10122000755B2075960175DB4275DA4275A82375EA
:10123000E68075B803759B80759D0075D10C75BCF3
:10124000B975BB1075E88075B2011206FD753C00DA
:10125000C230120711C231C232C233C234755200D9
:10126000755300D234312F9237C23B752B00752C49
:101270000075E4D530370375E45D11CDC2A9D2AB5A
:10128000D2AAD2AF75223212070D755200755300E3
:10129000C3E5229402401711FE75223212070D7524
:1012A0005200755300C3E5229402400221CD12077B
:1012B0000120300221CDE554600221CDC2AF120ED3
:1012C00054120E54120E54D2AF12071175680075E5
:1012D000690012070DE554600221CDC2AF120E66FF
:1012E000120E66120E66D2AF120711753000752B02
:1012F00000752C00E4F537F5380537E537F4703F15
:101300000538789AE67819146012783214600D78EE
:101310007D14600878FA146003753800C3E53898C6
:10132000401D120EB71206FD1538753700789986E4
:1013300065C2AF120E66D2AF7898866512070D129D
:101340000705E523700221CDC3E5549401500AC37B
:10135000E552940150160212F912070DE5237003AD
:101360000211CD75520075530002150EC3E552945B
:10137000017017C2AF120EB778998665120E5478B5
:10138000988665D2AF12070DA100C3E55294027092
:1013900017C2AF120EB778998665120E5A789886E2
:1013A00065D2AF12070DA100C3E55294037017C2B6
:1013B000AF120EB778998665120E6078988665D25E
:1013C000AF12070DA100C3E55294047017C2AF120B
:1013D0000EB778998665120E6678988665D2AF1238
:1013E000070DA100C3E55294057017C2AF120EB7E6
:1013F00078998665120E6678988665D2AF12070DC9
:10140000A100C3E55294077019C3E5539406500236
:1014100061487401303A0274037888F6C238C239E0
:10142000A100C3E55294087019C3E5539406500215
:1014300061487402303A0274047888F6D238D2399E
:10144000A100C3E55294097017C3E55394065002F6
:101450006148303A0BC37888E69402F6C23AA1009C
:10146000C3E552940A7016C3E553940650026148CE
:10147000203A0A7888E62402F6D23AA100C3E5525F
:1014800094147025C3E553940650026148C2AF908E
:101490001A0B740093D2AF7888F613C238C2394061
:1014A00002D2384002D2398057C3E55294157038C1
:1014B000C3E5539406404FC2AF901A0B740093D209
:1014C000AFF8B801027402B802027401B8030274E2
:1014D00004B8040274037888F613C238C239400293
:1014E000D2384002D2398018C3E552940C7011757D
:1014F00068A57569F1C3E5539406400AF128D2AF97
:101500007552007553007568007569006148C2AF77
:10151000120EB7E4D2AFE4F55FF524F525F53D757D
:101520005F081206FD12076630EDFDA8BDA9BEE9F1
:101530007001F8886012076A755F08C2AF1207D1A0
:10154000855E5C855E5DD2AF75A71075C13075A7ED
:101550000075A903756701303A07C238303502D2E9
:1015600038D228753900120D9A120DF71207E012C1
:1015700007E712095112096C1207E01207E7120976
:101580005112096C1207E0120A77120B74120C2622
:101590001207E712095112096C120A67202C031274
:1015A0000720302C03120750120B74120C83120701
:1015B000E712095112096C120A77120B74120CE02F
:1015C0001207E712095112096C120A67120B741202
:1015D0000D3D1207E712095112096C120A77120B1E
:1015E00074120D9A1207E712095112096C1207665C
:1015F000120A67120B74120DF712076A1207E7122C
:10160000095112096C302827855E5C79187A0CC361
:10161000E53999400EC228D2298A3B855E5C855EF9
:101620005D800CC3E55494014003021587C1B530B9
:10163000291F202B1CE53B147006C229D22AA18742
:10164000F53B203A07C3E554940140030215878017
:1016500064753C00203A0F78FA79A4E760027803B9
:10166000C3E55598504FE523604B303A17203805B5
:10167000203507800F303502800A202B07D22B85BA
:101680005E5CA1C978F0302B05855E5C7820C3E5EF
:1016900048985003021587302B1BC22BC2383035B7
:1016A00002D238D229753B12855E5CA187053CE5E4
:1016B000546002C1B8753C00C2AF120EB775250068
:1016C000D2AF12070D120EB775240078A4E660069B
:1016D000D295D291D287C3E53C9404400221CD41FA
:1016E000EE901A0D7820F161E520B4550AA3F1615E
:1016F000E520B4AA0280137568A57569F1120ECAB7
:10170000F128756800756900801D901A0378807B48
:101710000AF161A308DBFA901A0F788C7B1AF16149
:10172000A308DBFA901A2922C2AFF1A4F181901A22
:10173000007410F166A3744EF166A37421F16690F3
:101740001A0378807B0AF165A308DBFA901A0F78F8
:101750008C7B1AF165A308DBFAF1B7F195901A2991
:1017600022E493F622E6438F01538FFDFFC3E58306
:10177000941C400122EF8568B78569B7F0538FFE4E
:1017800022438F02438F018568B78569B7901A0D90
:10179000F0538FFC22901A0D7455F166901A0E7456
:1017A000AAF166227A3079D07820901A40F161E56A
:1017B00020F709A3DAF7227A3079D0901A40E7F1BE
:1017C0006609A3DAF9227C05120711DCFB22C2AFFD
:1017D000120E54120E5A120E60120E6612070512E5
:1017E0000E54120E5A120E60120E66120705120ED9
:1017F00054120E5A120E60120E66D2AF22C2AF12EF
:101800000E66120E60120E5A120E54120705120EB8
:1018100066120E60120E5A120E54120705120E6650
:0C182000120E60120E5A120E54D2AF22AB
:1019FD0002115E104E21FFFFFFFFFFFF09FF01FFE8
:101A0D0055AA01FFFFFFFFFF03FFFFFF25D0285061
:0D1A1D0004FF02FF7AFF0701FFFF0000FF3A
:101A400023565F485F313023202020202020202093
:101A500023424C48454C492445464D3842323123B7
:101A60002020202020202020202020202020202076
:101BFF00FFC2AFC2D37597DE7597AD7581C075A95A
:101C0F000043FF80752438752503B1EA7529A57542
:101C1F002AF143F12053A4DFD28575D4FF75E34039
:101C2F007DFA780379E67C10752200752300901DEC
:101C3F00F77B06752498752501E4308510C0E0E424
:101C4F0030850AD5E0FAD0E0D5E0EF806D20850829
:101C5F00D8FBD9F9DCF781C9308508D8FBD9F9DC75
:101C6F00F781C9B1AAE493A3C39A6004DDB481C913
:101C7F00DBDBB19C600281317B08E493FAA3B17D79
:101C8F00DBF87A30B17D752200752300B19CEAFC38
:101C9F00EBFDC3ED94FE400EB19C8A278B28ED30EF
:101CAF00E0048A828B83B19C7AC270D8C3ED94FE14
:101CBF00601950CEBD0029EC600F7520007521FF13
:101CCF00752900752A000200008100A827A928089D
:101CDF0009D804D90281ECB1A0EAF281E00D81B5F7
:101CEF00C3ED94035051EDA2E092007AC5C3E58293
:101CFF009400E583941C508C200010438F02438F77
:101D0F00018529B7852AB7F0300027A827A9280809
:101D1F0009438F01538FFDD804D902A141C3E58335
:101D2F00941C4003A3A126E28529B7852AB7F0A307
:101D3F00A126538FFC81917AC1BD030CE493A3FAC2
:101D4F00B161DCF8B15981918193AA22AB23B17DA6
:101D5F00EBFAEA6222752608C3E52313F523E52281
:101D6F0013F52250066323A0632201D526EAB1EAB8
:101D7F00B1EA75260AEAF4200102D285300102C2C7
:101D8F0085B1EAC3134002C201D526EB22B1A0EA06
:101D9F00FB208502A1A0308502A1A5752608AE24DF
:101DAF00AF25C3EF13FFEE13FEB1EEB1EAC3EA1393
:101DBF003085024480FA30E703632201C3E5231321
:101DCF00F523E52213F52250066323A0632201D5E4
:101DDF0026D9E52265236523F52222AE24AF250EF1
:101DEF000FDEFEDFFCD20122424C48656C693437AE
:061DFF003164E8B20601A8
:011FFF00FFE2
:00000001FF
